:100000000C949B050C94D3050C94D3050C94D30548
:100010000C94D3050C94D3050C94D3050C94D30500
:100020000C94D3050C94D3050C942B260C94FF262A
:100030000C9489200C94D3050C94D3050C94D3050F
:100040000C94D3050C94D3050C94D3050C94D305D0
:100050000C94D3050C9410210C94D3050C94D30567
:100060000C94D3050C94D3050C94D3050C94D305B0
:100070000C94D3050C94D3050C94D3050C94D305A0
:100080000C94D3050C94D3050C94D3050C94D30590
:100090000C94D3050C94D3050C94D3050C94D30580
:1000A0000C94D3050C94D3050C94D3052B001A00A3
:1000B000150000001C000C001300002616000900AB
:1000C0003B000B000E003300E1001B001900000094
:1000D000110036003800E000E30022524C002C00F2
:1000E000E400000024522352290000002152E700BE
:1000F000E6001D0006000500000010003700340077
:10010000040007000A0000000D000F002800140082
:10011000080017000000180012002A00010001006A
:1001200001000000010001000100010001000100C8
:100130000100500052000100010001000100010017
:1001400001000100010001000100010001000100A7
:100150000100010001000100010000000100010098
:100160000100010001000100000001000100010088
:10017000010001000100000051004F0001000100DA
:1001800001000100000001000100010001001F0248
:1001900021020000230225022E0001003500260264
:1001A0000100300030022D020100010001000100B9
:1001B00001003602310001000100010001000100D0
:1001C0000100010001000100010000000100010028
:1001D00001000100010001000000010037023102AE
:1001E00035022F022F00000027022D0001001E0201
:1001F00020022202000024022E024C000100010015
:10020000010000002400260001000100010001009F
:100210000100210023000100010001000100010094
:100220001E0020000100010001000100010001008A
:10023000370001000100010001000000270001005B
:10024000010001000100010000001F000100010089
:100250000100010001000000220001000100010076
:100260000100010000002500010001000100010063
:1002700001000000400042000100010001000100F7
:1002800001003D003F0001000100010001000100EC
:100290003A003C000100010001000100010044009F
:1002A00045000100010001000100000043000100C1
:1002B000010001000100010000003B0001000100FD
:1002C00001000100010000003E00010001000100EA
:1002D00001000100000041000100010044454255B9
:1002E000473A2064697361626C65642E0A00444574
:1002F0004255473A20656E61626C65642E0A000AB9
:100300000025303258006C65645F7461736B3A206D
:10031000004F6E6573686F743A2061637469766527
:100320003A2025640A000A0025303862003A20008D
:1003300025303258000A722F632030313233343581
:1003400036370A00290A002575002F002575005D43
:10035000280025640020002564002000256400207A
:10036000002564007C0025303258006D6F75736580
:100370006B6579205B62746E7C78207920762068CA
:100380005D287265702F61636C293A205B00313AF9
:100390000964656C6179282A31306D73293A20250A
:1003A000750A323A09696E74657276616C286D73EC
:1003B000293A2025750A333A096D61785F737065B3
:1003C00065643A2025750A343A0974696D655F746D
:1003D0006F5F6D61783A2025750A353A097768654F
:1003E000656C5F6D61785F73706565643A20257533
:1003F0000A363A09776865656C5F74696D655F7484
:100400006F5F6D61783A2025750A00703A09707245
:10041000696E742076616C7565730A643A09736558
:10042000742064656661756C74730A75703A092B83
:10043000310A646E3A092D310A6C743A092B313055
:100440000A72743A092D31300A4553432F713A0923
:10045000717569740A0A7370656564203D2064656E
:100460006C7461202A206D61785F7370656564200B
:100470002A2028726570656174202F2074696D656B
:100480005F746F5F6D6178290A77686572652064B3
:10049000656C74613A20637572736F723D25642CCC
:1004A00020776865656C3D25640A5365652068742E
:1004B00074703A2F2F656E2E77696B697065646969
:1004C000612E6F72672F77696B692F4D6F7573653A
:1004D0005F6B6579730A004D3E20004D25753A2506
:1004E000733E20003F0A003D2025750A003F0A00A8
:1004F00064656661756C74730A0025750A003F0AAD
:10050000000A092D2056616C756573202D0A007153
:100510000A000A092D204D6F7573656B6579202DD2
:100520000A003F00433E20004C25640A000A092DC2
:1005300020537461747573202D0A686F73745F6B38
:100540006579626F6172645F6C65647328293A2013
:10055000253032580A6B6579626F6172645F707220
:100560006F746F636F6C3A20253032580A6B65796F
:10057000626F6172645F69646C653A20253032583D
:100580000A74696D65725F72656164333228293A55
:10059000202530386C580A002573000A092D2043A5
:1005A0006F6E736F6C65202D0A4553432F713A09A6
:1005B000717569740A6D3A096D6F7573656B65794C
:1005C0000A000A092D204D61676963202D0A443A0B
:1005D000094465627567204D6573736167652054D2
:1005E0006F67676C650A583A094D617472697820C3
:1005F0004465627567204D6F646520546F67676C52
:1006000065202D2053686F77206B65797072657354
:1006100073657320696E206D6174726978206772EA
:1006200069640A4B3A094B6579626F6172642044D0
:100630006562756720546F67676C65202D2053686D
:100640006F77206B65797072657373207265706F58
:1006500072740A4D3A094465627567204D6F75736F
:100660006520546F67676C650A563A095665727360
:10067000696F6E0A533A095374617475730A433A89
:1006800009416374697661746520436F6E736F6CA2
:1006900065204D6F64650A46312D4631303A095365
:1006A000776974636820746F204C617965722030BB
:1006B0002D392028463130203D204C30290A302D5C
:1006C000393A0953776974636820746F204C6179F3
:1006D000657220302D390A47524156453A09537701
:1006E0006974636820746F204C61796572203020D2
:1006F00028616C7465726E617465290A423A094A10
:10070000756D7020746F20426F6F746C6F616465DB
:10071000720A4553433A094A756D7020746F20423E
:100720006F6F746C6F616465722028616C746572A0
:100730006E617465290A453A095072696E742045E4
:100740004550524F4D2053657474696E67730A4269
:1007500041434B53504143453A09436C6561722014
:10076000454550524F4D0A006B65796D61705F636E
:100770006F6E6669672E7261773A20253032580AAB
:100780002E737761705F636F6E74726F6C5F6361FD
:1007900070736C6F636B3A2025750A2E63617073FA
:1007A0006C6F636B5F746F5F636F6E74726F6C3AC4
:1007B0002025750A2E737761705F6C63746C5F6CB3
:1007C0006775693A2025750A2E737761705F7263C9
:1007D000746C5F726775693A2025750A2E737761AC
:1007E000705F6C616C745F6C6775693A2025750A7F
:1007F0002E737761705F72616C745F726775693AAE
:100800002025750A2E6E6F5F6775693A2025750A77
:100810002E737761705F67726176655F6573633AA7
:100820002025750A2E737761705F6261636B736C4C
:100830006173685F6261636B73706163653A202501
:10084000750A2E6E6B726F3A2025750A2E737761CA
:10085000705F6573636170655F636170736C6F6314
:100860006B3A2025750A0064656275675F636F6E79
:100870006669672E7261773A20253032580A2E65F4
:100880006E61626C653A2025750A2E6D617472691D
:10089000783A2025750A2E6B6579626F6172643A29
:1008A0002025750A2E6D6F7573653A2025750A002F
:1008B0006565636F6E6669673A0A64656661756C43
:1008C000745F6C617965723A2025750A003F000AF1
:1008D0006D6F7573653A206F66660A000A6D6F75F5
:1008E00073653A206F6E0A000A6B6579626F6172F8
:1008F000643A206F66660A000A6B6579626F6172FE
:10090000643A206F6E0A000A6D61747269783A2049
:100910006F66660A000A6D61747269783A206F6EBC
:100920000A000A64656275673A206F66660A000A03
:1009300064656275673A206F6E0A000A0A4A756D2F
:1009400070696E6720746F20626F6F746C6F616482
:1009500065722E2E2E2000433E2000436C6561728E
:10096000696E6720454550524F4D0A000A002530F8
:10097000325820006B6579626F6172645F726570D6
:100980006F72743A20005B735D005B575D005B53D0
:100990005D005B525D005B445D005B435D003003C6
:1009A0006D006F006E007400730069006E006700D8
:1009B000650072002F007200650062006F00750014
:1009C0006E0064002F0072006500760034000000A5
:1009D00016034D006F006E007400730069006E0016
:1009E00067006500720000000403090409025B004F
:1009F000030100A0FA09040000010301010009211C
:100A000011010001224000070581030800010904CB
:100A100001000103000000092111010001227B00F7
:100A20000705820320000109040200020300000000
:100A30000921110100012222000705830320000182
:100A40000705030320000112010002000000084D09
:100A50005201000200010200010631FF0974A101E8
:100A60000975150026FF0095207508810209761585
:100A70000026FF00952075089102C005010902A11A
:100A80000185020901A100050919012908150025A0
:100A9000019508750181020501093009311581258B
:100AA0007F95027508810609381581257F950175A6
:100AB000088106050C0A38021581257F9501750805
:100AC0008106C0C005010980A101850319012AB76B
:100AD00000150126B700950175108100C0050C09AD
:100AE00001A101850419012AA002150126A0029581
:100AF0000175108100C005010906A101050719E073
:100B000029E71500250195087501810295017508F1
:100B100081010507190029FF150026FF00950675BC
:100B200008810005081901290595057501910295AF
:100B30000175039101C011241FBECFEFDAE0DEBFC3
:100B4000CDBF04B603FE18C08091C3039091C403C7
:100B5000A091C503B091C6038730904BA740B04B1E
:100B600059F41092C3031092C4031092C50310925B
:100B7000C603E0E0F8E3099512E0A0E0B1E0EEE59D
:100B8000F3E502C005900D92A23EB107D9F723E02C
:100B9000A2EEB2E001C01D92A33CB207E1F70E94B1
:100BA000C8160C946E290C940000FF93EF93E0910B
:100BB000E202F091E302309709F00995EF91FF917D
:100BC0000895FC018591803011F0EFDFFBCF08958F
:100BD000FF27E0E230E247FF0CC0419597FF09C0D4
:100BE000EDE26095709580959095611D711D811D58
:100BF000911D27FF02C0219530E350E2AA27660F1E
:100C0000771F881F991FAA1FA41710F0A41B6395B4
:100C10005A95A9F7AA3008F0A95FA05DAF93F395A4
:100C2000611571058105910541F7ED3211F4EF93DE
:100C3000F395F21718F43F93F395FBCF8F91B5DF3F
:100C4000FA95E1F70895E991F9918591803021F0C5
:100C5000853219F0AADFF9CF089520E0E894559184
:100C60005532C1F3503311F4689455915A3348F416
:100C7000505390F3220F022E220F220F200D250F2A
:100C8000F4CF0EF4219589919991533619F3533786
:100C900029F1533559F1BC0188279927E8945C362E
:100CA00021F48991999168945591543639F446EF1D
:100CB0007EF077FF0DC08FEF9FEF0AC055374AE0F7
:100CC00039F0583540E121F0523642E009F00895FC
:100CD000FF93EF937DDFEF91FF91B7CFFF93EF93FA
:100CE000FC0181918030B9F360DFFBCFFF93EF937C
:100CF00068DFF1CFDF93CF93CDB7DEB72596A3DFC3
:100D0000CF91DF9108958530B8F46830A8F447306A
:100D100098F450E097E0699F400D511D1124FA01AD
:100D200098E3899FE00DF11D1124EE0FFF1FE4559C
:100D3000FF4F85919491089581E090E008950E947D
:100D40008306089581E0089581E008950E94A40635
:100D5000089508950E94A9060895A5E0B0E0E3EB88
:100D6000F6E00C94DA2849835A833091E9028981AC
:100D70009A81311119C0662399F0222389F00E94CB
:100D80000C0D182F682F89819A810E94E80C6981C7
:100D90007A81812F0E9402142596E3E00C94F628B4
:100DA0000E94FA0C182FF3CF0E940C0D69817A81F2
:100DB000F1CFFC01262F40815181628173818481B2
:100DC0000E94AD06089581E00895CF93DF93EC0172
:100DD00060E00E94D906BE010E94AA06DF91CF9171
:100DE000089508950E94B70B0E94F1062FEF84E347
:100DF0009CE0215080409040E1F700C00000089541
:100E00000E94F2060E94342108950E94F2060E9478
:100E1000582108950F931F93CF93DF938C0161E0C6
:100E20000E94D906EC01B8010E94A606811106C0F5
:100E300080E0DF91CF911F910F910895B801CE010D
:100E40000E94EE1E8823A1F3B801CE010E94DB1997
:100E5000882371F3B801CE010E94601E882341F3FC
:100E6000F8018281882369F0C330FCE7DF0781F154
:100E700060F4C130ECE7DE0769F1C0F4C115DC476E
:100E800091F0C8010E94A206D4CFCB35ECE7DE0773
:100E900039F1CC35FCE7DF0701F1CA35DC4789F7CA
:100EA0000E945011EECF0E940007C2CF90916C03B8
:100EB000892F8E7F90FF816080936C0380FF05C037
:100EC0008EEE92E00E94E105B3CF8CED92E0FACF76
:100ED0000E9458110E940507ABCF0E944611D1CF46
:100EE0000E945411CECF0E9466200E94B20708953E
:100EF0000E94B6070E946B200895829590E09C01A5
:100F0000220F331F220F331F2C7C959587959595C3
:100F100087958373282B30E0C901880F991F8A7A3F
:100F2000359527952575822B0895089581E00895BC
:100F30000895CF93DF93D82F0E949607C82F882358
:100F400019F08D2F0E9498078C2FDF91CF91089573
:100F50000895CF93C82F0E9495078C2F0E94990760
:100F6000CF91089580E00E94A90708950E943C1F38
:100F70000E94A9070895CF930E943C1FC82F80911B
:100F8000E4028C1789F1C093E4020E94F52060937B
:100F9000E5027093E6028093E7029093E802809165
:100FA0006C0382FF1EC080FF1CC086E093E00E949D
:100FB000E10580916C0380FF14C01F92CF9381E004
:100FC00093E09F938F930E947A0680916C030F9019
:100FD0000F900F900F9080FF04C08FEF92E00E945F
:100FE000E1058C2F0E94A907CF910895ABE0B0E0F6
:100FF000ECEFF7E00C94DB284F83588769877A87FA
:101000008B8761110E947E101E821D8285E0FE0189
:101010003796DE01119601900D928A95E1F78C8149
:101020009D81892B61F449815A816B817C818D81FD
:101030009E810E94A60F2B96E2E00C94F7288981EE
:101040009A8189238F3F79F3CE0101960E94E306AE
:101050008111E9CFF0CFFC01808191810E943E0D8A
:101060000895662329F00E944C170E941F180895C6
:101070000E94A617FACFCF93C82F8823C9F08238D1
:10108000C9F40E943C1F81FD13C089E30E94361001
:101090000E949F102FEF87EE93E0215080409040F8
:1010A000E1F700C0000089E30E943E100E949F10FB
:1010B000CF9108958338A1F40E943C1F80FDF8CFA2
:1010C00083E50E9436100E949F102FEF81EE94E07E
:1010D000215080409040E1F700C0000083E5E4CF5C
:1010E0008438A1F40E943C1F82FDE2CF87E40E9475
:1010F00036100E949F102FEF81EE94E02150804027
:101100009040E1F700C0000087E4CECF8CEF8C0F59
:10111000813AB8F48C2F0E940C1E8111C9CF6C2F1C
:1011200080910001909101010E94F71F882329F00E
:101130008C2F0E943E100E949F108C2F0E94361010
:10114000B5CF80E28C0F883048F4C77081E001C0D1
:10115000880FCA95EAF70E946110A8CFEBE5EC0F63
:10116000E33040F4F0E0E75BFE4F808190E00E94C6
:101170009B1F9ECFE8E5EC0FEB3150F4F0E0EE0F53
:10118000FF1FED5EFE4F808191810E94C01F90CFB6
:1011900083E38C0F833108F08BCF61E08C2F0E94AA
:1011A000310886CF882309F456C0823879F40E942A
:1011B0003C1F81FF50C089E30E9436100E949F109F
:1011C00089E30E943E100E949F100895833859F4CD
:1011D0000E943C1F80FF3FC083E50E9436100E94A2
:1011E0009F1083E5EECF843859F40E943C1F82FFA4
:1011F00032C087E40E9436100E949F1087E4E1CF3E
:101200009CEF980F913AE8F290E2980F983050F4E2
:10121000877091E001C0990F8A95EAF7892F0E94A3
:101220006710D1CF9BE5980F933028F490E080E0D1
:101230000E949B1F089598E5980F9B3128F490E039
:1012400080E00E94C01F089593E3980F933118F433
:1012500060E00E94310808951F93CF93DF93182F09
:10126000EB010E943B08209739F4812F0E94D2089D
:10127000DF91CF911F9108958FE99FE00197F1F7DA
:1012800000C000002197EFCF70E060E0893311F4D7
:1012900060E570E00E942C090895882321F00E94E7
:1012A00061100E949F100895882321F00E9467100A
:1012B0000E949F100895B0E0A0E0E1E6F9E00C94F0
:1012C000D4286C01D62FC72FFC011281058102950D
:1012D0000F700E945710E82E8823E9F0E12E1123A9
:1012E000D1F08C2F807F803451F080E28D0F8830D8
:1012F000F8F0011104C08C2F807E8032C9F08091FB
:10130000A10382FF15C082E00E9402110E945710C3
:1013100091E0E82EE926BC2EB2949FE0B922FBE0D2
:10132000FB15B8F1EB2DF0E0E059F64D0C94C52813
:10133000E12CF1CF0C2F0F70C07F11F00295007FD0
:10134000112399F0002359F080E28D0F883010F0BE
:10135000D11107C0802F0E9461100E949F108D2F15
:1013600063C0802F0E947110F8CF8D2F0E94D20889
:10137000002379F080E28D0F883010F0D11104C085
:10138000802F0E94671003C0802F0E9477100E9458
:101390009F102B2D2850330B2430310520F40E9450
:1013A0003C1F0E94A907EE2089F00E94531080FD87
:1013B0000DC0F60112820E944D100E94460CC6011B
:1013C0000E94770B0E944D100E94560CCDB7DEB7DD
:1013D000E9E00C94F0282C2F2F70F22EC07FC03241
:1013E00019F0F29480EFF822DD2381F0D13009F476
:1013F00049C0112309F451C0002309F448C0F60183
:10140000858180FFACCF8F70858341C08091A1031F
:1014100082FD15C0112359F0FF2029F08F2D0E9465
:1014200061100E949F1080E00E943B08B2CF80E0D4
:101430000E94D208FF2009F4ACCF8F2DA2CF112338
:1014400081F0011106C00E9481108F290E944D0970
:10145000A0CF0130C1F70E9481108F290E9488100F
:1014600098CF011106C00E9495108F2D0E9454093B
:1014700090CF013009F48DCF8F2D0E9454090E9426
:10148000951087CF112329F0063008F082CF8F2DD9
:10149000DDCF053008F07DCFE8CF002331F3D9331D
:1014A00049F4FFEF27EE33E0F15020403040E1F700
:1014B00000C000008D2F0E94D2086BCF8C2F869524
:1014C0008695837069F0813009F063CF8D2F9C2F52
:1014D0009370111102C080E090E00E94C01F59CFAC
:1014E0008D2F9C2F9370111102C080E090E00E941C
:1014F0009B1F4FCF612F8D2F0E9431084ACF8C2F19
:101500008370A1F5111145CF4D2F42954695477037
:10151000440F440F2D2F2F7030E0042E02C0220FF5
:10152000331F0A94E2F790E080E0D4FF09C08FE017
:1015300090E002C0880F991F4A95E2F78095909538
:10154000C695C695C370822B932BC23049F058F4D0
:10155000C13019F00E94160C1CCF0E940D0C19CF3F
:101560000E941F0C16CF0E940A0C13CF86951123E0
:1015700011F08C2F8170882309F40BCF4D2F4295E9
:1015800046954770440F440F2D2F2F7030E0042EE6
:1015900002C0220F331F0A94E2F790E080E0D4FFEC
:1015A00009C08FE090E002C0880F991F4A95E2F7CA
:1015B00080959095C695C695C370822B932BC230AB
:1015C00049F058F4C13019F00E94810CE2CE0E941B
:1015D000780CDFCE0E948A0CDCCE0E942E0CD9CE75
:1015E000CF70112329F08C2F0E94460C8D2F2ECF07
:1015F0008D2F0E9454098C2F0E94560CCACED23FC8
:1016000041F160F4D03FB9F0D13F81F0112309F4EA
:1016100046C00111A4CE8C2F8F711FC0D33F01F1A2
:10162000D43FA1F78091A10382FD24C08C2F8F713C
:10163000112311F312C0112341F0053008F0A9CE97
:101640008C2F8F710E94680CA4CE063008F0A1CEBA
:10165000F7CF8C2F8F711111CFCF0E94460C99CEEE
:10166000112329F08C2F8F710E943A0C92CE0E9488
:10167000350C8FCE112349F0CF718C2F0E94460C70
:1016800063E08C2F0E94E41084CE81E00E9402115E
:10169000023008F47ECE82E00E9402117ACE00234E
:1016A00059F0D93309F006CF8FEF97EEE3E0815080
:1016B0009040E040E1F7FCCE8C2F8F719DCF0F93CF
:1016C0001F93CF93DF93EC01688179818A810E9417
:1016D000490D8C010E94930C0E94090CB801CE01A7
:1016E0000E945B09DF91CF911F910F910895CF93D5
:1016F000DF93EC018B819C81892B29F08881998172
:1017000089238F3F51F4DF91CF910895CE010E943C
:101710005F0BCE010E94E506F6CFCE010E940A07BC
:101720008111F4CF0E945710882369F38A8188239E
:1017300051F38091A10382FFE6CF82E00E94021163
:10174000E2CF90E080E00E949B1F90E080E00E944A
:10175000C01F0E947E100E949F100E94BD180E9410
:101760001F1808950E9446100E94A10B08950E9420
:101770006E100E94B20B089592959F70963091F072
:1017800058F4925F9F70923058F4803F19F030F413
:10179000883E30F481E008959A5FF4CF843FD1F31E
:1017A00080E00895883EB0F3813FD1F7F3CFFC018C
:1017B00083819481892B29F08081918189238F3FB6
:1017C00011F480E00895808191810E943E0D0E9475
:1017D000BC0B0895A5E0B0E0E0EFFBE00C94DB2843
:1017E0002596E2E00C94F728A6E0B0E0EAEFFBE0F3
:1017F0000C94DB282696E2E00C94F72808950E94CA
:10180000FE0B08950E94FF0B909309038093080339
:10181000089508950E94020C0895209108033091C4
:101820000903822B932B0E94020C08952091080338
:1018300030910903822393230E94020C0895209182
:10184000080330910903822793270E94020C089510
:101850000E94FE0B08950E94280C08950E942B0CF4
:101860009093070380930603089590E080E00E9420
:101870002E0C089521E030E0A90102C0440F551F4D
:101880008A95E2F7CA010E942E0C089521E030E00B
:1018900002C0220F331F8A95E2F7809106039091D0
:1018A0000703822B932B0E942E0C089521E030E039
:1018B00002C0220F331F8A95E2F720953095809160
:1018C000060390910703822393230E942E0C089510
:1018D00021E030E002C0220F331F8A95E2F78091A9
:1018E000060390910703822793270E942E0C0895E8
:1018F0002091060330910703822B932B0E942E0C1C
:1019000008952091060330910703822393230E94B8
:101910002E0C089520910603309107038227932708
:101920000E942E0C08950895262F277091E001C083
:10193000990F2A95EAF723E0769567952A95E1F7BE
:10194000660F771F660F771FFA01E60FF71F50E04B
:1019500040E0682F70E08191DF0111979B01042E18
:1019600002C0369527950A94E2F721702195282721
:10197000292328272C934F5F5F4F4430510559F797
:101980000895A82FA77023E0969587952A95E1F7EB
:10199000880F991F880F991FFB01E80FF91F50E06E
:1019A00040E080E0219130E00A2E02C03695279574
:1019B0000A94E2F721703327042E01C0220F0A9403
:1019C000EAF7822B4F5F5F4F4430510559F7089576
:1019D000262F983070F4873060F4682F70E087E02D
:1019E000989F600D711D11244AEE52E0822F0E94D3
:1019F000940C0895292F983068F4873058F490E0BB
:101A00006AEE72E037E0239F800D911D11240E9441
:101A1000C10C089580E00895B0E0A0E0E2E1FDE0AF
:101A20000C94D4287C010091060310910703809147
:101A3000080390910903082B192BCFE0D0E0CC24A8
:101A4000C394D12CBC2EC6010C2E02C0880F991F46
:101A50000A94E2F780239123892B49F4219790F788
:101A6000B12C8B2DCDB7DEB7E9E00C94F028B7018F
:101A70008C2F0E940E14019789F3F3CFCF93DF933D
:101A8000EC010E940C0DBE010E940E14DF91CF915B
:101A900008951F93CF93DF93EB019091E90299236F
:101AA00039F0CB010E943E0DDF91CF911F91089537
:101AB000882369F0CB010E940C0D182F682FCE01EE
:101AC0000E94E80CBE01812F0E940E14EDCFCB01C5
:101AD0000E94FA0C182FF6CF1F93CF93DF93C0917B
:101AE0000A0316E080910B038C1304C0DF91CF91A1
:101AF0001F910895D0E01C9FF0011D9FF00D11244F
:101B0000E45FFC4F408151816281738184819581C2
:101B10000E94F40B2196C770E5CF40913C03509191
:101B20003D0360913E0370913F038091400390918B
:101B300041030E94F40B089520910A0390910B0336
:101B400056E0291302C080E0089530E0529FF00172
:101B5000539FF00D1124E45FFC4F7181761306C092
:101B60007081781303C07281741304C02F5F3F4FDC
:101B70002770E7CF81E008951F93CF93DF93809183
:101B80004103807F09F04BC080913E03882309F414
:101B900046C080910A03C0910B0340913C035091D1
:101BA0003D0360913F0370914003D42FD52316E08D
:101BB000C817A9F190E061157105A9F1DF3F99F10E
:101BC000189FF001199FF00D1124DF01A45FBC4F95
:101BD00011962C911197251326C02C91241323C004
:101BE00012962C91129721111EC013962D913C91A3
:101BF000261B370B283C3105B0F4809141038F70D0
:101C0000806180934103EF5EFC4F80818F70806123
:101C100080838CE393E00E94770B0E946C0DDF9130
:101C2000CF911F91089501968770C2CFA1E1B0E0D6
:101C3000ECE1FEE00C94D1288C0185E0F801DE0196
:101C40001D9601900D928A95E1F7F801F2808CE3E0
:101C5000A82E83E0B82E40913F03509140034115D8
:101C6000510509F45AC190913C0320913D03892FFD
:101C700082238F3F09F451C1C080D180838094803A
:101C8000E0903E03B401641B750BEE2009F4F6C02E
:101C900080914103382F307F683C710508F0AFC058
:101CA00031117AC0EF2C2D1116C09C1114C0F11007
:101CB00012C08F708061809341030E948D0DC50119
:101CC0000E94770B80914103F80185838E2D6196E8
:101CD000ECE00C94ED2881149104C9F18C2D8D2138
:101CE0008F3FA9F181E08F2580FF05C04F2D6D2D1D
:101CF0008C2D0E949C0D8114910459F18C2D8D2105
:101D00008F3F39F181E08F25F82FF170BF2E80FFD2
:101D100039C04F2D6D2D8C2D0E949C0DA82E811148
:101D200031C0CD86DE868D859E850E943E0D292F91
:101D300022952F70243078F49F702230A8F09923D8
:101D4000B9F0F8019581907F99F4EA2CBFCF80E03B
:101D5000CBCF80E0D9CF2A5F2F70223068F0C80146
:101D60000E94770BAB2CF1CF992311F0882369F3F4
:101D7000805E883050F3F3CF803F38F3815F83304B
:101D800070F7E3CFFF2009F4A1CF80914103816078
:101D900080934103E12C9ACF2D1105C09C1103C003
:101DA000FF2009F486C0C8010E94D70B882319F1CF
:101DB000FF2009F180914103803270F020913C03B3
:101DC00030913D0338872F8319869B868A868C87BE
:101DD000CE0107960E94770B86E0F801ACE3B3E0F2
:101DE00001900D928A95E1F70E94BC0D0E948D0D25
:101DF000EE24E3946BCFC8010E94770BF9CF311129
:101E000014C0782D998A888AA6016F2D89890E942D
:101E1000EA0B8CE393E00E94770B86E0F5011192C8
:101E20008A95E9F70E948D0DB5CF2D110EC09C113A
:101E30000CC0F1100AC08583C8010E94770B86E0B0
:101E4000F50111928A95E9F741CFC8010E94D70B9D
:101E5000882389F2FF2079F280914103803208F4CF
:101E6000BBCF20913C0330913D033A8329831B82F1
:101E70009D828C828E83CE010196ACCF683C710529
:101E800008F03DC0EF2CFF2009F4B5CF2D1129C07B
:101E90009C1127C08091410380FD1AC0982F907F2C
:101EA000B9F08583903F31F0982F907F905F8F70CD
:101EB000892B8583C8010E94770B86E0F801ACE38B
:101EC000B3E001900D928A95E1F70E948D0DFECE50
:101ED00086E0F801ACE3B3E001900D928A95E1F75A
:101EE000F5CEC8010E94D70B811176CF80914103B6
:101EF000816080934103C8010E94770BE7CE782D63
:101F0000998A888AA6016F2D89890E94EA0B86E04A
:101F1000F50111928A95E9F7D8CFFF2009F46BCF2C
:101F2000C8010E94D70BE82E882309F464CF86E00D
:101F3000F801ACE3B3E001900D928A95E1F78CE3F0
:101F400093E00E942B080E94BC0DBFCFACE0B0E034
:101F5000ECEAFFE00C94DA284F83588769877A8788
:101F60008B879C87CE0107960E94160E8823B1F0BE
:101F70008A859B85892B39F04F815885842F85234D
:101F80008F3F09F06CC016E080910A0390910B031B
:101F9000891343C02C96E3E00C94F62886E0FE01FA
:101FA0003796DE01119601900D928A95E1F78A85A8
:101FB0009B85892B41F38F81988589238F3F19F366
:101FC00020910B0330E0C901019687709927409159
:101FD0000A034817190671F40E94B70B10920B03FD
:101FE00010920A0386E0ECE3F3E0DF011D928A958C
:101FF000E9F7C9CF96E0929FD001939FB00D1124CD
:10200000A45FBC4FFE01319601900D929A95E1F7C5
:1020100080930B030E946C0DB6CF819FC0011124E9
:10202000845F9C4F0E94160E882309F4B3CFE09181
:102030000A031E9FF0011124E45FFC4F408151818F
:1020400062817381848195810E94F40B80910A03DF
:1020500090E001968770992780930A0395CF698550
:102060007A858B859C850E94F40B8DCF682F80919B
:102070000001909101010E942D200895682F809108
:102080000001909101010E9430200895809100018B
:10209000909101010E943320089580914A03859513
:1020A00085958595089580914A038770089590914C
:1020B0004A03977081E009F480E008958091550308
:1020C000089590915503892B809355030895809529
:1020D00090915503982390935503089510925503BA
:1020E000089590915403892B80935403089580950B
:1020F000909154039823909354030895109254039D
:10210000089580914B03089508950E9484100895C6
:102110009091A10392FF08C090914B03981721F072
:1021200080934B030E948510089580914B03882370
:1021300029F010924B0380E00E9485100895CF9300
:10214000DF93E0910001F0910101809155038083BC
:10215000E0910001F0910101808190915403892B5D
:10216000808390914B03992381F0E0910001F091DD
:1021700001018081892B8083809100019091010170
:102180000E94E51F81110E949510C0910001D0911D
:10219000010148E050E062E473E0CE010E9416299C
:1021A000892B59F088E0FE01A2E4B3E001900D9282
:1021B0008A95E1F7CE010E94491FDF91CF910895E2
:1021C00008950E94E01008959091A10392FF11C01C
:1021D00098E0899F90011124622B60934A030E942A
:1021E000460C80914A038595859585950E94E1105E
:1021F00008950E94460C089510924A0380E00E94C0
:10220000E110089590914A038095892380934A03B1
:10221000282F277091F4282F082E000C330B9217CB
:10222000130659F09091A10392FF07C085958595FB
:1022300085950E94560C0E94FC100895CF93C82FDC
:102240008091A10382FB992790F99C17E9F0C0FBCC
:1022500082F98093A1038091A0039091A1030E9431
:10226000791182E00E94021180916C0380FF0CC002
:102270001F92CF9381E193E09F938F930E947A0600
:102280000F900F900F900F90CF9108958091A10320
:1022900082FB882780F991E089270E941E1108950A
:1022A00081E00E941E11089580E00E941E11089591
:1022B0006FEF7FEF90E080E00E945829089590E052
:1022C00080E00E94342921E0873E9E4F09F020E003
:1022D000822F089582E090E00E942C29089583E0E7
:1022E00090E00E942C29089584E090E00E94342917
:1022F0000895BC0184E090E00E9458290895AB0144
:10230000BC018FE090E00E944C290895AB01BC0114
:1023100083E190E00E944C29089560E070E0CB01D9
:102320000E948611089560E070E0CB010E947F1149
:102330000E948D11089567EE7EEF90E080E00E948C
:10234000582960E082E090E00E943A2960E083E052
:1023500090E00E943A29109209031092080360E06D
:1023600074E184E090E00E94582960E086E090E00B
:102370000E943A296FEF87E090E00E943A2940E0FE
:1023800050E0BA0188E090E00E944C2960E08DE0C6
:1023900090E00E943A2940E050E0BA0188E190E0E4
:1023A0000E944C2960E087E190E00E943A2940E0D9
:1023B00050E0BA018CE190E00E944C2970E060E0AE
:1023C00080E290E00E94582940E050E0BA0188E1A4
:1023D00090E00E944C290E94931108950E949B1145
:1023E0000895682F8EE090E00E943A290895A5E0B4
:1023F000B0E0EDEFF1E10C94D9280E94E9208C01C6
:10240000809156039091570380179107A1F08FEFA9
:1024100089838A831B820E94E9208160782F9D83B3
:102420008C8349815A816B818D810E94F6071093BC
:102430005703009356032596E4E00C94F5280E9478
:10244000F520609368037093690380936A03909307
:102450006B036093640370936503809366039093AA
:10246000670308950E94F5206093680370936903E1
:1024700080936A0390936B0360936003709361038E
:1024800080936203909363030895089508950E94D2
:102490004612089508950E944A12089581E0089511
:1024A0008DEF92E20E94321F0E9445120E94471255
:1024B00008950E944E1208950E9459120895089599
:1024C00008950E945F120E94601208950E941515DF
:1024D0000E94A80708950E94E0200E94C31A0E944B
:1024E00027160E9466120E944B120895A5E0B0E0E4
:1024F000ECE7F2E10C94D3280E944E1281110FC038
:102500000E94F7110E94E21A81110E9432120E9469
:10251000DF180E94BB072596EAE00C94EF280E9482
:102520003D1688E5A82E83E0B82E750110E0F7016E
:1025300001917F01812F0E943B151F5F183009F424
:1025400040C00817A1F380916C0381FD0E944115E2
:102550000E945C12C82E10E0812F0E943B15082FAC
:10256000F50181915F01081731F1F12CEE24E3941C
:10257000D02ED8268D2D8E21B1F0CC20A1F0F9825D
:102580001A8391E0802F8E2109F490E09B830E94B2
:10259000E9208160782F9D838C8349815A816B81EA
:1025A0008D810E94F607F394EE0CF7E0FF12E2CF64
:1025B000F501319700831F5F183071F60E941F12DA
:1025C000A1CF0813C0CF9CCF1F93CF93DF930E945E
:1025D0001314EC01C11580E5D807F0F5C11580E4AE
:1025E000D80708F09CC0C03ED10520F5CD3CD105F0
:1025F00008F082C0C83AD10578F4C53AD10508F090
:1026000073C0C130D10519F1209709F1C430D1054B
:10261000F0F4D0E0C0E01BC0C33CD105D0F7C85AED
:10262000D0E0CC0FDD1FC45BDE4F0990D881C02DF8
:10263000D4640DC0C11580E2D80708F0D1C0C1151F
:1026400081E0D80708F05AC0C83ED10510F7CE0186
:10265000DF91CF911F910895C03682E5D80718F514
:10266000C03482E5D80708F06BC0C03282E5D807D5
:1026700008F05FC0C11582E5D80708F497C02C2F79
:102680002695269580E2289F900111248C2F837037
:10269000C1E0D0E002C0CC0FDD1F8A95E2F7C22B6B
:1026A000D32BDD68D4CFC03A82E5D80760F4C038B8
:1026B00082E5D80708F459C0CF71D0E0DC2FCC27D1
:1026C000C46FD06AC4CFC03C82E5D80708F462C0AA
:1026D000C03E82E5D80708F09CCFDC2FCC27CC2762
:1026E000DF71C06FD06AB3CFC55AD0E0CE57DE4F8E
:1026F000C881D0E0D064ABCFD065A9CF8D2F0E9428
:10270000B514182FCE0199270E941314C12FD0E0C1
:10271000DC2FCC27CC27DF71C82BD92B98CFCE014B
:1027200099270E941314CC27DF70C82BD92BD06AAD
:102730008ECFCF71D0E0DC2FCC27C16FD06A87CF8E
:102740002C2F26952695277080E2289F9001112432
:102750008C2F8370C1E0D0E002C0CC0FDD1F8A95C2
:10276000E2F7C22BD32BDC6872CF2C2F269526954F
:10277000277080E2289F900111248C2F8370C1E084
:10278000D0E002C0CC0FDD1F8A95E2F7C22BD32B1D
:10279000DA685DCF8C2F8F710E94B514C82FD0E0FE
:1027A000DC2FCC27CC27DF71D06251CF8C2F8F71DB
:1027B0000E94B51455E0D695C7955A95E1F7CF70AC
:1027C000D0E0DC2FCC27282F30E084FF05C044E088
:1027D000220F331F4A95E1F7C22BD32BD06937CF95
:1027E0008D2F8F710E94B514182FCE0199270E944A
:1027F0001314C12FD0E0DC2FCC27CC27DF71C82BDE
:10280000D92BD2CF462F783030F4673020F4672FA1
:102810000E949F06089590E080E008950E940214AF
:102820000E94E412089582389105B9F1B0F4813321
:10283000910509F47DC048F48932910509F46DC011
:102840008A32910509F47BC008958533910509F416
:102850005FC08933910509F10895833E9105D9F14F
:1028600038F4803E910529F1823E910579F1089571
:10287000863E9105D9F1873E910509F43EC0843E1C
:10288000910541F52091A10321FF24C08091A0036F
:1028900084FD19C087EE90E008952091A003237075
:1028A00009F05AC02091A10323FF14C089E290E0EF
:1028B00008952091A00320FD38C03091A10330FF7E
:1028C00009C024FF43C090E080E008952091A00358
:1028D00022FDF7CF08952091A00322FD3AC0309148
:1028E000A10330FD39C024FFF5CFEDCF2091A00327
:1028F00023FFF0CF24FDE7CFCDCF2091A00323FD10
:102900002EC03091A10331FFEECF84EE90E0089508
:102910002091A00325FFDECFC9CF2091A00325FD84
:1029200021C02091A10323FFD5CF89E390E0D2CF2E
:102930002091A00326FFCECF8AE290E00895209157
:10294000A00326FFC7CF81E390E0089583EE90E0D7
:10295000089582EE90E0089580EE90E0089586EE6E
:1029600090E0089585E390E008959091A00392FF90
:1029700006C0282F28712830F9F4877F846093FFE0
:1029800006C0282F28712831F1F4877E84612091B8
:10299000A10320FF06C0382F38713830D9F4877F63
:1029A000816021FF06C0282F28712831D1F4877E4D
:1029B000816194FD877E0895282F24712430F9F6D3
:1029C0008B7F8860DCCF282F2471243101F78B7E28
:1029D0008861DDCF382F3171313019F78E7F8860F3
:1029E000E0CF282F2171213121F78E7E8861E1CF40
:1029F0000E94581108950E943D162FEF86E791E03E
:102A0000215080409040E1F700C000000E943D1638
:102A100080E00E943B1580FF04C00E94F8140E94D1
:102A2000342108950E94FB1408950E945F118111C2
:102A300002C00E94EE110E946A1180936C030E94F2
:102A400074119093A1038093A0030E9412150E9419
:102A50006F1190E00E940A0C809106039091070389
:102A60000E942B0C089508950E943315089508952F
:102A70000E9437150895E82FF0E0E655FC4F80815D
:102A80000895B0E0A0E0E7E4F5E10C94D52885E3F3
:102A900093E00E94E1058AEAE82E83E0F82ED0E078
:102AA000C0E090E3C92E93E0D92E08E213E0DF9353
:102AB000CF93DF92CF920E947A068DE293E00E943C
:102AC000E105F70181917F010E947D071F928F939D
:102AD0001F930F930E947A0686E293E00E94E1051D
:102AE00021968DB79EB708960FB6F8949EBF0FBE7D
:102AF0008DBFC830D105D9F6CDB7DEB7E8E00C946C
:102B0000F12880EA8A95F1F7089500C008950E949F
:102B100081150895F894E82FE295EF70F0E031A167
:102B2000282F2F7081E090E001C0880F2A95EAF7E6
:102B3000982F9095932391A392A1892B82A37894A7
:102B400008950F931F93CF93DF93C5E8D1E0899148
:102B50008F3F11F00E948A1581E0CC38D807B9F771
:102B6000CCE8D1E004E911E089918F3F11F00E9497
:102B70008A150C171D07C1F7DF91CF911F910F9197
:102B80000895B0E0A0E0E7ECF5E10C94D5287C01D5
:102B9000162F042FC62FD0E0CB57DE4F28812F3FB2
:102BA00009F44CC0F894E22FE295EF70F0E031A107
:102BB0002F7081E090E001C0880F2A95EAF7932FEB
:102BC000982B91A392A18095892382A378940E9447
:102BD00085158CE8C82E81E0D82EF701A701485F43
:102BE0005F4FF12CE02EE094D6019D916D01819113
:102BF0009F01215031099F3F31F1692F62956F701C
:102C000070E0DB0190966C9170E09F7002C075954A
:102C100067959A95E2F760FD16C0802BD9018C93D9
:102C2000FF24F394E417F507F9F688818F3F11F03C
:102C30000E948A156F2D812F0E948715CDB7DEB7B0
:102C4000E8E00C94F1288E21D9018C93EBCF0E94FF
:102C5000A11588E0EAEAF3E0DF01982F1D929A952A
:102C6000E9F7E2EAF3E0DF011D928A95E9F788E0EF
:102C70000E947C160E9434150895A8E0B0E0E3E4B9
:102C8000F6E10C94D7288E010F5F1F4F88E0F80102
:102C900011928A95E9F7F12CEE24E3944E2D6F2DD5
:102CA000C8010E94C115F394EE0CF7E0FF12F6CFB5
:102CB00048E050E0B80182EA93E00E94162921E042
:102CC000009709F420E0892B41F088E0F801A2EA9E
:102CD000B3E001900D928A95E1F748E06AEA73E06B
:102CE00082EA93E00E947D16182F0E943815812FEA
:102CF0002896E6E00C94F3280895CF92DF92EF92A5
:102D0000FF920F931F93CF936C017B01042F22231B
:102D100049F081E080936F030E94E92090936E0355
:102D200080936D03C0916F03C1110AC0C0E08C2F66
:102D3000CF911F910F91FF90EF90DF90CF9008956A
:102D400080916D0390916E030E940121059770F3AD
:102D500010E0A801B601C7010E941629892B41F095
:102D6000A801B601C7010E94232910926F03DFCF8B
:102D7000C0E0FBCF0E9479230E946B120E94862341
:102D800008950E948B230E9476120E94A923089521
:102D90000E9482200E945F230E9450120E94BA1655
:102DA0000E94C1160E946112FBCF8091760380FFC2
:102DB0000DC06091070170E0660F771F60387105E4
:102DC00070F56115710569F1862F089581FF07C0BF
:102DD0006091070184E0689FB0011124EFCF6091FA
:102DE000070182FD0AC0809175038823A9F0209114
:102DF000060160910701821710F088E0ECCF869FF2
:102E0000C001112433E0880F991F3A95E1F7622F32
:102E100070E00E94B128D2CF68E070E0D5CF8FE794
:102E2000089581E008958091760380FF0CC0609141
:102E3000030170E075956795759567956115710546
:102E400049F1862F089581FF06C06091030170E06B
:102E500075956795F3CF6091030182FD0BC090914A
:102E600074039923A1F060910201809103019617E8
:102E700038F0682F70E06038710500F38FE708952F
:102E8000899FC001112470E00E94B128F4CF61E055
:102E900070E0D7CF81E008958D3C31F40E94D516C3
:102EA000819580937A0308958E3C19F40E94D5167B
:102EB000F8CF8F3C31F40E94D51681958093790329
:102EC0000895803D19F40E94D516F8CF893D29F464
:102ED0000E94131780937B0308958A3D21F40E947A
:102EE00013178195F7CF8B3D31F40E94131781950D
:102EF00080937C0308958C3D19F40E941317F8CF3A
:102F00009FE2980F983070F4815D990B21E030E0DA
:102F100001C0220F8A95EAF780917803822B809373
:102F2000780308958D3D31F480917603816080931C
:102F3000760308958E3D21F4809176038260F7CF69
:102F40008F3DB9F7809176038460F1CF409179038A
:102F50008D3C59F480917A0387FF0DC010927A035B
:102F600041110BC01092750308C08E3C81F4809112
:102F70007A0318169CF3442381F080917B0390918F
:102F80007C03892B09F05AC01092740308958F3C7A
:102F900049F447FFF0CF1092790380917A038111B1
:102FA000ECCFE0CF803D19F41416ACF3E4CF909150
:102FB0007B03893D29F41916F4F610927B03DBCFCD
:102FC0008A3D19F497FFD7CFF8CF90917C038B3DC2
:102FD00029F497FFD0CF10927C03CDCF8C3D19F40C
:102FE0001916CCF3C8CF9FE2980F983090F4815D0A
:102FF000990B21E030E0B90102C0660F771F8A9576
:10300000E2F7CB0180959091780389238093780330
:10301000B2CF8D3D31F4809176038E7F809376031D
:10302000AACF8E3D21F4809176038D7FF7CF8F3D1F
:1030300009F0A1CF809176038B7FF0CF0895809126
:103040006C0383FF7EC08BE693E00E94E1058091D4
:1030500078031F928F9386E693E09F938F930E944D
:103060007A0684E693E00E94E10580917903282F97
:10307000082E000C330B3F938F9381E693E09F93D0
:103080008F930E947A068FE593E00E94E10580917C
:103090007A03282F082E000C330B3F938F938CE577
:1030A00093E09F938F930E947A068AE593E00E94B3
:1030B000E10580917B03282F082E000C330B3F93F2
:1030C0008F9387E593E09F938F930E947A0685E51F
:1030D00093E00E94E10580917C03282F082E000CCC
:1030E000330B3F938F9382E593E09F938F930E94DE
:1030F0007A068FE493E00E94E105809175031F92A8
:103100008F938CE493E09F938F930E947A068AE4D6
:1031100093E00E94E105809176031F928F9387E4EC
:1031200093E09F938F930E947A0684E493E00E9439
:10313000E1058DB79EB74C960FB6F8949EBF0FBEB3
:103140008DBF0E94E9209C019091790380917A03C0
:10315000982B21F0309373032093720390917B039B
:1031600080917C03982B21F030937103209370039E
:1031700087E793E00E948D1F089586E0E7E7F3E07C
:10318000DF011D928A95E9F710927503109274037E
:10319000109276030895FC01828181110EC0838113
:1031A00081110BC08481811108C091E0858181115A
:1031B00001C090E0892F8170089581E0FCCFA6E0E6
:1031C000B0E0E5EEF8E10C94DA2886E0E7E7F3E01A
:1031D000DE01119601900D928A95E1F71092790324
:1031E00010927A0310927B0310927C038B819C8156
:1031F000892B89F080917203909173030E940121C1
:10320000AC01909175039923C9F18091080184174D
:10321000150608F440C08D819E81892B91F0809124
:103220007003909171030E940121AC01909174038D
:10323000992309F471C0809104018417150608F4DC
:1032400079C0BE016F5F7F4F87E793E00E943A200D
:10325000811105C087E793E00E94CB1881110E947D
:103260001F1886E0FE013196A7E7B3E001900D92AA
:103270008A95E1F72696E3E00C94F628209109015F
:103280008AE0289F900111242417350720F69F5FBC
:103290009093750302C09F3FD1F71B81112359F012
:1032A0000E94D5169FEF11160CF491E0899F802D96
:1032B0001124809379031C81112359F00E94D516A3
:1032C0009FEF11160CF491E0899F802D11248093BB
:1032D0007A0330917903332309F49DCF20917A0347
:1032E000222309F498CF45EB3403C001112499231C
:1032F00059F09093790345EB240390011124332373
:1033000039F030937A0387CF81E080937903F3CF4C
:1033100081E080937A037FCF209105018AE0289F86
:10332000900111242417350708F08BCF9F5F9093ED
:10333000740302C09F3FD1F71D81112359F00E94F1
:1033400013179FEF11160CF491E0899F802D112423
:1033500080937B031E81112359F00E9413179FEF66
:1033600011160CF491E0899F802D112480937C0329
:1033700030917B03332309F464CF20917C03222313
:1033800009F45FCF45EB3403C0011124992359F0B0
:1033900090937B0345EB240390011124332339F0F0
:1033A00030937C034ECF81E080937B03F3CF81E0A9
:1033B00080937C0346CFCF93DF93EC01FB018281A6
:1033C000882309F4D2C09E0130572332310508F01A
:1033D000B2C00E9474119093A1038093A003FE01D8
:1033E000E150F047E232F10520F4E458F64D0C9438
:1033F000C5288091A00381608093A00393C0809131
:10340000A10388608093A1038DC08091A003826096
:10341000F3CF8091A0038460EFCF8091A0038860F8
:10342000EBCF8091A1038160EDCF8091A1038260F9
:10343000E9CF8091A0038061DFCF8091A0038062FB
:10344000DBCF8091A0038064D7CF0E94B70B80911F
:10345000A0038068D1CF8091A0038C60CDCF8091F4
:10346000A1038360CFCF8091A0038E7FC5CF8091D1
:10347000A103877FC7CF8091A0038D7FBDCF8091AF
:10348000A0038B7FB9CF8091A003877FB5CF8091B8
:10349000A1038E7FB7CF8091A1038D7FB3CF8091A1
:1034A000A0038F7EA9CF8091A0038F7DA5CF8091AF
:1034B000A0038F7BA1CF0E94B70B8091A0038F77D1
:1034C0009BCF8091A003837F97CF8091A1038C7FB6
:1034D00099CF8091A00382FB992790F921E0922750
:1034E00090FB82F990FB83F987CF8091A103982FFD
:1034F000909591708E7F892B90FB81F983CF90916D
:10350000A003892F8F7B96FF806476CF0E94B70B34
:103510009091A003892F97FB87F980586DCF81E0A8
:103520000E94F1118091A0039091A1030E94791152
:103530000E94B70B80E0DF91CF91089580E0F0CF3B
:103540009091A003892F8F7E94FF806155CF909139
:10355000A003892F8E7F90FF81604ECF9091A103B1
:10356000892F877F93FF88604DCF81E0E4CF8FE87C
:1035700091E00197F1F700C00000089581E00895FF
:103580000E94BE1A089581E080937E0352985A9A51
:1035900053985B9A0E94B71A20917E0340E853E04B
:1035A000FA018E2F841B821708F0089589B182FBDF
:1035B000882780F94B9904C090E0892B8193F1CF43
:1035C00092E0FBCFB0E0A0E0E8EEFAE10C94D52861
:1035D000F12CE12C84E0C82ED12C80917E03F816CA
:1035E00030F08E2DCDB7DEB7E8E00C94F1280F2D2A
:1035F00010E0E9B1E2FBEE27E0F94B9940C080E032
:103600008E2BD801A058BC4FEC919E2F9370981729
:10361000A1F1EE0FEE0FE82BEC93EF70F0E0EC561B
:10362000FE4FE801C158DC4F80819881890F888363
:1036300020E084305CF0F801E358FC4F80818F5F1C
:10364000808360E08F2D0E94C01A21E088818D3F29
:103650005CF4F801E358FC4F80818150808361E085
:103660008F2D0E94C01A21E08881082E000C990B32
:10367000B6010E94B1288883E22AF394AECF82E09B
:10368000BFCF809102011F928F93809103011F92FF
:103690008F93809106011F928F93809107011F9253
:1036A0008F93809108011F928F93809109011F923F
:1036B0008F938EE893E09F938F930E947A068DB745
:1036C0009EB70E960FB6F8949EBF0FBE8DBF08959D
:1036D000883228F58E3108F072C08B3041F130F419
:1036E000873009F4CFC08DEE94E0E0C0833109F457
:1036F0005FC08431C1F78FE095E00E94E1058091C1
:103700008503882309F4FEC0109285031092840378
:1037100010928303109282031092810320C08F3491
:1037200009F4C7C0D8F5893231F38833E1F682E174
:1037300095E00E94E1050E94411B1F9281E08F935A
:103740001F9288E08F938BE094E09F938F930E9469
:103750007A060F900F900F900F900F900F9020917E
:103760008503222309F4C9C08091810390918203CB
:10377000009711F484EA91E09F938F931F922F9307
:103780008BED94E09F938F930E947A060F900F9099
:103790000F900F900F900F9081E00895813509F4FC
:1037A0009CC008F49CC0823509F09DCF81E082C0A6
:1037B00081E095E00E94E1050E94411BD0CF8D5130
:1037C00080938503833009F442C058F48130C1F0FE
:1037D0008230A1F1109285038EEF94E00E94E10502
:1037E0001BC0853009F445C0D8F1863099F782E0D6
:1037F00091E090938403809383038CEE91E008C062
:1038000089E091E0909384038093830388EA91E0B8
:10381000909382038093810380918503882309F428
:103820009ECF1F928F938AEF94E09F938F930E9475
:103830007A060F900F900F900F9091CF88E091E053
:10384000909384038093830381EB91E0E1CF87E041
:1038500091E090938403809383038DEB91E0D8CF24
:1038600086E091E090938403809383038AEC91E057
:10387000CFCF83E091E0909384038093830389ED1D
:1038800091E0C6CF81E08093090184E18093080133
:103890008AE0809307018EE18093060188E080939F
:1038A000030188E28093020180EF94E00E94E10529
:1038B00056CF8AE0E0918303F09184033097D1F0F2
:1038C0002081082E000C990B820F911D8F3F9105CE
:1038D00041F03CF08FEF808307C08FEFEBCF86EF96
:1038E000E9CF97FFF8CF108280811F928F9387EEE8
:1038F00094E09BCF84EE94E0D9CF87ED94E00E94D2
:10390000E1054ACF80E00895CF93C82F1F928F938F
:1039100088E295E09F938F930E947A0681E090E081
:1039200002C0880F991FCA95E2F70E940A0C0E94F4
:10393000B70B0F900F900F900F90CF910895EF92CB
:10394000FF920F931F93CF93DF938B3109F410C134
:1039500008F0B0C08B3009F4CCC008F082C08630CB
:1039600009F4DAC048F4853009F4B2C08DEC98E06F
:103970000E94E10580E0E0C0873009F4E2C08830B1
:10398000A9F70E946F111F928F9380EB98E09F938D
:103990008F930E947A060E946A1183FB992790F9FF
:1039A0001F929F9382FB992790F91F929F9381FB0F
:1039B000992790F91F929F93982F91701F929F9330
:1039C0001F928F9387E698E09F938F930E947A06C9
:1039D0000E94741193FB222720F91F922F9387FBDB
:1039E000222720F91F922F9386FB222720F91F926E
:1039F0002F9385FB222720F91F922F9384FB2227E8
:103A000020F91F922F9383FB222720F91F922F93D7
:103A100082FB222720F91F922F9391FB222720F966
:103A20001F922F93292F21701F922F9381FB222702
:103A300020F91F922F93282F21701F922F939F936D
:103A40008F9388E697E09F938F930E947A068DB7B5
:103A50009EB78A960FB6F8949EBF0FBE8DBF81E0C9
:103A60006BC0803109F49CC080F48E3009F07ECFA9
:103A700090916C03892F8B7F92FF846080936C03FD
:103A800082FF8BC088EF98E07FC0863109F498C030
:103A9000893109F06BCF81E092E09F938F9388E9A1
:103AA00095E09F938F930E947A060F900F900F904E
:103AB0000F90D5CF8A3249F190F4873211F128F472
:103AC0008E3108F453CF8D511DC0893209F04ECF8D
:103AD0008BE399E00E94E1050E940007C0CF833488
:103AE00068F48A3308F091C0853359F0883309F0BF
:103AF0003DCF82EC95E00E94E105B1CF833409F01F
:103B000035CF80E00E94841CAACF8BE599E00E940B
:103B1000E1050E94EE11A3CF80916C03807F80931A
:103B20006C038BE995E00E94E10587E599E00E942E
:103B3000E10581E080938603CDB7DEB7E6E00C9423
:103B4000F32890916C03892F8E7F90FF8160809382
:103B50006C0380FF03C08FE299E0CDCF82E299E051
:103B60000E94E10580916C03817F80936C0377CF85
:103B700090916C03892F8D7F91FF826080936C03FD
:103B800081FF08C085E199E00E94E10580916C0306
:103B90008160EBCF87E099E0AECF88EE98E0ABCFC5
:103BA00090916C03892F877F93FF886080936C03CB
:103BB00083FF03C08CED98E0E7CF8FEC98E09BCFBC
:103BC0000E94F520162F072FF82EE92ED0919F0383
:103BD000C09112010E943C1FEF92FF920F931F931E
:103BE0001F92DF931F92CF931F928F938DE295E0E8
:103BF0009F938F930E947A068DB79EB70C960FB64F
:103C0000F8949EBF0FBE8DBF2ACF89537BCF80E033
:103C100008950E94071E0895CF93C82F80918603B0
:103C20008130C1F0882339F0823009F444C0109209
:103C3000860380E00DC00E945E108232D1F78C2F87
:103C40000E94071E81111BC08C2F0E949F1C817037
:103C5000CF9108950E945E10823289F38C2F0E94CA
:103C6000091E81111BC0C431D9F060F4CB3071F052
:103C7000C031D1F082E295E00E94E10513C081E0FD
:103C800090E0E5CFC93261F0C833A1F78BE995E048
:103C90000E94E10584E295E00E94E10581E0D7CF32
:103CA0001092860380E0D3CF82E08093860388E37E
:103CB0000E94681BF3CF8C2F0E94681B81E0C8CF45
:103CC000CF93DF93EB0186319C4711F50E945E1084
:103CD0009A81992399F08A7A91E009F490E090937F
:103CE0008703811109C089E20E9436100E949F104B
:103CF00080E0DF91CF91089585E3F6CF809187032F
:103D0000811104C089E20E943E10F0CF85E3FBCF11
:103D100081E0EFCF0F931F93CF93DF93C42FD22F68
:103D2000FC0182818823C9F040938A030E94E92024
:103D3000909389038093880380E28C0F883040F44D
:103D4000C77081E001C0880FCA95EAF70E944D094B
:103D5000DF91CF911F910F91089510918A03141351
:103D600032C080918803909189030E940121883C90
:103D7000910548F5C0E2CD0F1D17B9F080E2810F23
:103D8000883040F4177081E001C0880F1A95EAF777
:103D90000E945409C83048F481E09D2F977001C0FB
:103DA000880F9A95EAF70E944D09802F0E944409D6
:103DB000C83070F6D77081E001C0880FDA95EAF755
:103DC0000E945409C5CF80E28C0F883008F6C77076
:103DD00081E001C0880FCA95EAF7F2CF0F93DB01AB
:103DE00088519C4787309105A0F5FC01E256F64DBD
:103DF0000C94C52806E221EE41EE6AE17CE7CD0194
:103E00000E948A1E80E00F91089507E225EE45EE9C
:103E10006BE17CE7F4CF06E221EE40EE68E17CE75F
:103E2000EECF07E225EE44EE69E17CE7E8CF06E25B
:103E300021EE42EE6CE17CE7E2CF07E225EE46EEB2
:103E40006DE17CE7DCCF08E221E045EE6EE17CE746
:103E5000D6CF12968C91882319F010928A03D3CF73
:103E600081E0D1CF9093E3028093E2020895909392
:103E7000900380938F030895E0918F03F091900356
:103E8000309729F00190F081E02D0995089580E0A8
:103E90000895EF92FF920F931F93CF93DF938C01BE
:103EA000E0918F03F0919003309791F10280F381BC
:103EB000E02D099580916C0382FF2AC080FF04C029
:103EC00084E799E00E94E105D0E0C0E08EE6E82EAC
:103ED00089E0F82E80916C0380FF0EC0F801EC0F92
:103EE000FD1F80811F928F93FF92EF920E947A06AE
:103EF0000F900F900F900F902196C830D10551F779
:103F000080916C0380FF04C08CE699E00E94E1057B
:103F1000CDB7DEB7E6E00C94F328E0918F03F09183
:103F20009003309739F022E0DC012C930480F58176
:103F3000E02D09950895A3E0B0E0E1EAFFE10C94DB
:103F4000DB2820918D0330918E0328173907A1F0CB
:103F500090938E0380938D03E0918F03F0919003F3
:103F6000309751F023E029839B838A830680F78171
:103F7000E02DCE01019609952396E2E00C94F728F6
:103F8000A3E0B0E0E6ECFFE10C94DB2820918B038A
:103F900030918C0328173907A1F090938C038093FC
:103FA0008B03E0918F03F0919003309751F024E060
:103FB00029839B838A830680F781E02DCE010196B9
:103FC00009952396E2E00C94F7289C012E5F3F4F61
:103FD000AC01485F5F4F80E02417350709F408956E
:103FE000F90191919F019923B9F38F5FF5CF662372
:103FF00049F0FC01329608962191261729F0E8171E
:10400000F907D1F780E0089581E008959C01FC0153
:1040100032969FEF80E04191461751F09F3F19F48F
:10402000411101C0982F8F5F8630A9F79F3F09F497
:104030000895290F311D97FD3A95F901628308957E
:10404000FC01329608962191261303C0DF011197D7
:104050001C92E817F907B9F708950E940620089501
:104060000E9420200895029626E0FC0111922A95D4
:10407000E9F7089546E050E00E94162921E0892BD7
:1040800009F420E0822F089508950E9444200895A5
:10409000811106C081E0809391030E94452008951C
:1040A00082E0F9CF83E0809391030E944520089538
:1040B0000E944820089581E0809391030E9445204A
:1040C00008950E945B200895089508950E94652038
:1040D0000895089508950E9464200895CF930E9442
:1040E00069200E943D160E946A20C0E08C2F0E9429
:1040F0003B15811105C0CF5FC830C1F7CF9108953E
:1041000081E0FCCF85B7806885BF85B7806885BFB3
:1041100008951F921FB61F9211248F939F93AF9300
:10412000BF9380919203811113C08091B20390914B
:10413000B303A091B403B091B5034196A11DB11D85
:104140008093B2039093B303A093B403B093B503E9
:10415000BF91AF919F918F911F901FBE1F90189597
:104160008091BA03843031F10E9473071092920358
:1041700088E190E020E40FB6F894A8958093600061
:104180000FBE2093600083B7817F846083BF83B7B5
:10419000816083BF7894889583B78E7F83BF0FB685
:1041A000F894A895809160008861809360001092D7
:1041B00060000FBE08950E94B70B0E947807089513
:1041C00082E084BD93E095BD9AEF97BD80936E0029
:1041D00008952FB7F8948091B2039091B303A09102
:1041E000B403B091B5032FBF08952FB7F894609131
:1041F000B2037091B3038091B4039091B5032FBFC4
:1042000008959C014FB7F8948091B2039091B30345
:10421000A091B403B091B5034FBF821B930B0895D7
:1042200078941F921FB61F9211248F939F93AF9380
:10423000BF938091B2039091B303A091B403B09166
:10424000B5030196A11DB11D8093B2039093B303F2
:10425000A093B403B093B503BF91AF919F918F9199
:104260001F901FBE1F90189581E08093E00080E2B0
:104270008093D8001092C9008FE19EE40197F1F776
:1042800000C0000087E090EBDC018093C3039093B3
:10429000C403A093C503B093C60388E19CE00FB6A6
:1042A000F894A895809360000FBE90936000FFCFB4
:1042B00088E19CE00FB6F894A895809360000FBE4B
:1042C00090936000FFCF80919E0308959B01BA01F7
:1042D0009091BA039430E9F48F708093E9009FEFD6
:1042E0008091E800915085FD06C085ED8A95F1F733
:1042F00000009111F5CF8091E80085FF0AC050E0E1
:1043000040E0C9010E941F248091E8008E778093CD
:10431000E800089543E050E0BC0182E00E9466217D
:10432000089546E050E0BC0182E00E9466210895B5
:10433000CF93DF93EC0148E050E0BC0181E00E94A4
:10434000662188E0FE01A6E9B3E001900D928A950E
:10435000E1F7DF91CF9108958AE999E00E94E105A4
:104360008091B903811109C00E94AF250E940C26DB
:104370008091E20084608093E200089586E999E0EC
:104380000E94E1051092B903089582E999E00E9424
:10439000E1050E945B2008958EE899E00E94E10506
:1043A0006091B60381E0611101C080E00E9452205B
:1043B00008958AE899E00E94E1059091BA0381E0AE
:1043C000943009F080E06091B6030E94582008956F
:1043D000209194032F5F822F62E30E94A5289923E6
:1043E00019F02093940308951092940380919503FB
:1043F0008823F1F08091BA038430C1F49091E900F0
:104400009F702091EC00822F817020FD80E8892B25
:1044100093E09093E9009091EB0090FF04C090919D
:10442000EE0097FD08C08F708093E900109295030D
:1044300008951092F1009091E80095FDFACF9091C7
:10444000E80090FFF0CF9091E8009E779093E8000D
:10445000EACF42E061EC81E00E942B2542E261EC70
:1044600082E00E942B2542E261EC83E00E942B2532
:104470009091BA0381E0943009F080E06091B60336
:104480000E94482008958091BC03833009F461C0E4
:1044900030F48130D1F1823009F49EC008958A3021
:1044A00009F48AC08B3009F46FC0893009F050C01C
:1044B0008091BB03813209F04BC08091BF03909182
:1044C000C003029708F044C08091E800877F809382
:1044D000E8008091E80082FF37C09091F30080915E
:1044E000F200029731F48091F100813011F08630B2
:1044F00021F48091F10080939E038091E8008B77F6
:104500008093E8000E945F2523C08091BB03813A1D
:10451000F9F48091E800877F8093E8008091BF03E1
:104520009091C003892B61F468E086E993E070E024
:104530000E946E248091E8008B778093E8000895B4
:1045400060E090E080E0F3CF8091BA038111C1CFA9
:1045500008958091BB03813AD9F78091BF03909170
:10456000C003892BA9F78091E800877F8093E8003A
:104570008091E80080FFFCCF809112018093F100D0
:104580008091E8008E77BCCF8091BB03813201F728
:104590008091BF039091C003892BD1F68091E800F0
:1045A000877F8093E8000E945F258091BD03809300
:1045B00012010E94B70B08958091BB03813241F62E
:1045C0008091E800877F8093E8000E945F258091BA
:1045D000BE0380939F0308958091BB03813A09F045
:1045E000B7CF8091E800877F8093E8008091E80052
:1045F00080FFFCCF80919F03C1CF9FB7F8941092AA
:1046000095039FBF9091BA03943009F048C0209160
:10461000E9002F703091EC00932F917030FD90E8FD
:10462000922B23E02093E9002091EB0020FF34C07F
:104630002091EE0027FF30C020919303222321F028
:104640002091E80025FF28C01092930326E03091C6
:10465000E80035FF14C08093F1008091E80085FDEB
:1046600027C08091E80080FFFCCF8091E8008E7722
:104670008093E8009F709093E90080E00895309166
:10468000BA03343049F43091EB0035FD05C02150B8
:1046900041F481E0809393039F709093E9008FEF42
:1046A0000895EFE9FFE03197F1F700C00000CFCFA8
:1046B0008FB7F89421E0209395038FBFDBCF84B7A9
:1046C000877F84BF0FB6F894A895809160008861B9
:1046D00080936000109260000FBE80E890E00FB6FB
:1046E000F89480936100909361000FBE0E94612056
:1046F00008950E94AF250E940C26E2EEF0E0808132
:104700008460808378940E948A2808958AE091E0EA
:104710000E94371F08958091BA03853051F486E8CE
:1047200099E00E94E1058091BA03853019F00E945A
:10473000DB2008950E94B0208091B803882399F36C
:104740000E946E20882379F30E9409240E94B70BEF
:10475000EACF08959A014091C1035091C2030E948B
:10476000B2230895492F55274330510521F168F4AC
:104770004130510509F443C04230510509F444C0A9
:1047800090E080E050E040E026C04132510551F118
:1047900042325105A9F76330710590F7FB01EE0F26
:1047A000FF1FEB52FD4F408151816E527D4FFB0147
:1047B000808190E010C099278130910581F00097A9
:1047C00029F00297E9F6EEE9F9E002C0E8EEF9E037
:1047D000849190E0AF01F901518340830895E0EDA9
:1047E000F9E0F6CF6330710558F6660F771FFB01CD
:1047F000E552FD4F4081518189E090E0ECCF82E1AC
:1048000090E047E45AE0E7CF8BE590E04CEE59E0CA
:10481000E2CF80E189BD82E189BD09B400FEFDCF10
:104820008091D8008F7D8093D8008091E0008260D5
:104830008093E0008091E00081FDFCCF0895AF926D
:10484000BF92CF92DF92FF920F931F93CF93DF938C
:104850006C01EB018A010E947E25F82E811123C094
:104860000115110539F0F80180819181C81BD90B20
:10487000C80ED91EB12CA12C2097A9F08091E80078
:1048800085FD22C08091E8008E778093E8000115B5
:104890001105A1F0F80180819181A80EB91EB182A5
:1048A000A08285E0F82E8F2DDF91CF911F910F917F
:1048B000FF90DF90CF90BF90AF9008950E947E252B
:1048C0008823D1F2F82EEFCFF60181916F0180930A
:1048D000F1002197FFEFAF1ABF0ACECFFC01809104
:1048E000C1039091C20386179707A0F06115710567
:1048F00029F49091E8009E779093E80090E061158C
:10490000710551F4911108C08091E80082FF34C014
:1049100080E00895BC01F2CF8091BA038823C1F1F1
:104920008530C1F18091E80083FD30C08091E800BE
:1049300082FDEACF8091E80080FFE1CF8091F30013
:104940002091F200382F6115710519F028303105DA
:1049500058F091E02830310509F090E02091E8000E
:104960002E772093E800CBCF81918093F1006150A6
:1049700071092F5F3F4FE7CF8091BA03882341F041
:10498000853041F08091E80083FFBECF81E008953B
:1049900082E0089583E00895FC018091C103909125
:1049A000C20386179707A0F06115710529F480915D
:1049B000E8008E778093E80090E06115710551F46E
:1049C000911108C08091E80082FF35C080E0089511
:1049D000BC01F2CF8091BA038823C9F18530C9F1B7
:1049E0008091E80083FD31C08091E80082FDEACF2C
:1049F0008091E80080FFE1CF8091F3002091F200E8
:104A0000382F6115710519F02830310558F091E003
:104A10002830310509F090E08091E8008E7780938E
:104A2000E800CBCF84918093F100319661507109F9
:104A30002F5F3F4FE6CF8091BA03882341F0853046
:104A400041F08091E80083FFBDCF81E0089582E0CE
:104A5000089583E00895982F973028F08F70809301
:104A6000E90081E008959093E900242F762F50E02B
:104A7000981731F07091EC002091ED005091F0000A
:104A800021FD02C09F5FE8CF3091EB003E7F309365
:104A9000EB003091ED003D7F3093ED003091EB0065
:104AA00031603093EB007093EC002093ED00509355
:104AB000F0002091EE0027FDE5CF80E00895809181
:104AC000BB0387FF13C08091E80082FF06C080917E
:104AD000E8008B778093E80004C08091BA038111CD
:104AE000F2CF08958091BA038823D9F38091E8002A
:104AF00080FFF8CF8091E8008E77ECCF2091E40022
:104B00003091E50095E6A9012091EC00822F81709B
:104B100020FF06C08091E80080FF06C080E0089575
:104B20002091E80022FD1AC08091BA03882389F001
:104B3000853089F08091EB0085FD0FC02091E40065
:104B40003091E50042175307F9F29150E1F684E005
:104B5000089582E0089583E0089581E008950E9419
:104B60001E260E942626E0EEF0E080818160808390
:104B7000E8EDF0E080818F77808319BCA7EDB0E08D
:104B80008C918E7F8C9380818F7E80831092B9036D
:104B900008950F931F93CF93DF930E941E260E94C8
:104BA0002626C8EDD0E088818F7788838881806849
:104BB000888388818F7D888319BC1092BA031092F4
:104BC000B6031092B8031092B70300EE10E0F8019C
:104BD00080818B7F808388818160888342E060E070
:104BE00080E00E942B25E1EEF0E080818E7F8083C3
:104BF000E2EEF0E080818160808380818860808344
:104C0000F80180818E7F8083888180618883DF9135
:104C1000CF911F910F910895E8EDF0E080818F7E94
:104C20008083E7EDF0E080818160808384E082BF53
:104C300081E08093B9030E94C9250895E8EDF0E072
:104C400080818E7F80831092E20008951092DA00B6
:104C50001092E10008951F920F920FB60F92112447
:104C60002F933F934F935F936F937F938F939F9374
:104C7000AF93BF93EF93FF938091E10082FF0BC04E
:104C80008091E20082FF07C08091E1008B7F8093DA
:104C9000E1000E94E8218091DA0080FF19C0809134
:104CA000D80080FF15C08091DA008E7F8093DA00F3
:104CB0008091D90080FF96C080E189BD82E189BDE5
:104CC00009B400FEFDCF81E08093BA030E94AC21BD
:104CD0008091E10080FF19C08091E20080FF15C043
:104CE0008091E2008E7F8093E2008091E2008061FB
:104CF0008093E2008091D80080628093D80019BC34
:104D000085E08093BA030E94CC218091E10084FF6A
:104D10002BC08091E20084FF27C080E189BD82E141
:104D200089BD89B5982F917080FFFBCF8091D80005
:104D30008F7D8093D8008091E1008F7E8093E10089
:104D40008091E2008F7E8093E2008091E20081609A
:104D50008093E2008091B603882309F449C084E07F
:104D60008093BA030E94D9218091E10083FF29C07A
:104D70008091E20083FF25C08091E100877F8093CE
:104D8000E10082E08093BA031092B6038091E100C3
:104D90008E7F8093E1008091E2008E7F8093E2001D
:104DA0008091E20080618093E20042E060E080E078
:104DB0000E942B258091F00088608093F0000E9473
:104DC000C521FF91EF91BF91AF919F918F917F91FD
:104DD0006F915F914F913F912F910F900FBE0F9068
:104DE0001F90189519BC1092BA030E94BE2170CF73
:104DF0008091E30087FD93E09093BA03B3CF1F92B5
:104E00000F920FB60F9211242F933F934F935F93FE
:104E10006F937F938F939F93AF93BF93CF93DF93C2
:104E2000EF93FF93D091E900DF708091EC00C82FE1
:104E3000C17080FDC0E81092E9008091F000877F8A
:104E40008093F00078940E9443271092E9008091AB
:104E5000F00088608093F000CD2BCF70C093E90004
:104E6000FF91EF91DF91CF91BF91AF919F918F9182
:104E70007F916F915F914F913F912F910F900FBE56
:104E80000F901F901895AAE2B0E0E9E4F7E20C94C5
:104E9000DA288BEB93E02091F100FC012193CF0104
:104EA000F3E0833C9F07B9F70E9443228091E8001A
:104EB00083FF1EC18091BB039091BC039A3008F020
:104EC00017C1E92FF0E0EB55F64D0C94C52880385A
:104ED00099F0823809F00CC18091BF038F70873040
:104EE00008F006C18093E9008091EB0085FB8827DC
:104EF00080F91092E90006C08091B7039091B80341
:104F0000911182609091E800977F9093E8008093E0
:104F1000F1001092F1008091E8008E77E5C08823BF
:104F200009F4D3C0823009F0E3C08091BD03811140
:104F3000D6C08091BF038F702FEF280F263008F066
:104F4000D7C08093E9002091EB0020FFC8C09330C8
:104F500031F48091EB0080628093EB00C0C09091AF
:104F6000EB0090619093EB0021E030E001C0220F54
:104F70008A95EAF72093EA001092EA008091EB000C
:104F80008860EACF8111B4C01091BD031F77809172
:104F9000E3008078812B8093E3008091E800877F95
:104FA0008093E8000E945F258091E80080FFFCCF9D
:104FB0008091E30080688093E30082E0111183E038
:104FC0008093BA0395C08058823008F091C08091D8
:104FD000BD039091BE038C3D23E09207A1F583E0D1
:104FE0008A838AE289834FB7F894DE01139620E022
:104FF0003EE051E2E32FF0E050935700E49120FFB0
:1050000003C0E295EF703F5FEF708E2F90E0EA30C3
:10501000C0F0C7968D939D932F5F243159F74FBFF2
:105020008091E800877F8093E8006AE270E0CE011B
:1050300001960E946E248091E8008B778093E800AF
:1050400057C0C096E7CF6091BF037091C003AE0117
:105050004F5F5F4F0E94AA23BC01892B09F448C00F
:105060009091E800977F9093E80089819A810E944F
:10507000CC24E1CF8038E1F58091E800877F8093F0
:10508000E8008091B6038093F10045CF811130C0D4
:105090009091BD03923060F58091E800877F809306
:1050A000E8009093B6030E945F258091B6038823A1
:1050B00011F084E005C08091E30087FDFACF81E024
:1050C0008093BA030E94292213C08091BD038130CE
:1050D00079F481E0933009F080E08093B803109276
:1050E000E9008091E800877F8093E8000E945F25B7
:1050F0008091E80083FF0AC08091E800877F809359
:10510000E8008091EB0080628093EB00AA96E3E0D8
:105110000C94F628CF938091BA038823A1F0C09114
:10512000E900CF709091EC00892F817090FD80E8AC
:10513000C82B1092E9008091E80083FD0E9443276C
:10514000CF70C093E900CF910895991B79E004C016
:10515000991F961708F0961B881F7A95C9F78095B6
:10516000089597FB072E16F4009407D077FD09D019
:105170000E94022907FC05D03EF4909581959F4F2F
:105180000895709561957F4F0895EE0FFF1F05906C
:10519000F491E02D09942F923F924F925F926F927B
:1051A0007F928F929F92AF92BF92CF92DF92EF92B7
:1051B000FF920F931F93CF93DF93CDB7DEB7CA1B38
:1051C000DB0B0FB6F894DEBF0FBECDBF09942A8863
:1051D000398848885F846E847D848C849B84AA840B
:1051E000B984C884DF80EE80FD800C811B81AA8198
:1051F000B981CE0FD11D0FB6F894DEBF0FBECDBF63
:10520000ED010895AA1BBB1B51E107C0AA1FBB1FDC
:10521000A617B70710F0A61BB70B881F991F5A9542
:10522000A9F780959095BC01CD010895FB01DC01A3
:1052300004C08D910190801921F441505040C8F76D
:10524000881B990B0895FB01DC0102C001900D92AF
:1052500041505040D8F70895F999FECF92BD81BDD5
:10526000F89A992780B50895A8E1B0E042E050E0AF
:105270000C946029262FF999FECF92BD81BDF89A32
:10528000019700B4021639F01FBA20BD0FB6F8948A
:10529000FA9AF99A0FBE08950396272F0E943B2988
:1052A0000E943A29252F0E943B29242F0C943B2948
:1052B0000196272F0E943B290C943A29DC01CB014F
:1052C000FC01F999FECF06C0F2BDE1BDF89A319616
:1052D00000B40D9241505040B8F70895F894FFCFB4
:1052E0009A099A09EB09EB095E0A7A0AC909C90900
:1052F0007F0AF00AFF0AFF0A331AA71A3B1A051A97
:10530000091A3F1A0D1A431A4F1A191AA01A1D1A10
:10531000531A211A571A7F1A251A5B1A861A2B1A42
:10532000611A691A111A471A151A4B1A2F1A651A97
:10533000751A8F1A9E1AFF19371AAE1A0B1F111FF2
:10534000FA1E051F171F1D1F231F67278F27782889
:0E5350008F277828C227E32778283A28462896
:10535E004C03280850011E0A140163219821912143
:10536E008A2101E200E900EA00B500B600B700CDDF
:10537E00008301CC008A01920194012102230224B0
:10538E00022502260227022A02B300B4006F007023
:10539E00009F01CB019F02A002818283E200E900FF
:1053AE00EA00B500B600B700CD008301CC008A013B
:1053BE0092019401210223022402250226022702D1
:1053CE002A02B300B4006F0070009F01CB019F0250
:1053DE00A00281828397C634353233319190946620
:1053EE00F7F6F5F400FF0100010000FFFF000001D9
:1053FE000001FF003F3F3F006D6B5F64656C61799C
:10540E00006D6B5F696E74657276616C006D6B5FBB
:10541E006D61785F7370656564006D6B5F74696D47
:10542E00655F746F5F6D6178006D6B5F7768656542
:10543E006C5F6D61785F7370656564006D6B5F772F
:10544E006865656C5F74696D655F746F5F6D6178BB
:10545E00000A092D2056657273696F6E202D0A564B
:10546E0049443A2030783532344428224D6F6E74D8
:10547E0073696E6765722229205049443A2030784C
:10548E003030303128226D6F6E7473696E676572BD
:10549E002F7265626F756E642F72657634222920C5
:1054AE005645523A203078303030320A4255494C07
:1054BE00443A2020284D6172203130203230323370
:1054CE00290A4F5054494F4E533A204C55464120CD
:1054DE004D4F5553454B45592045585452414B4518
:1054EE005920434F4E534F4C4520434F4D4D414E47
:1054FE004420343039360A4743433A20382E332E6F
:10550E0030204156522D4C4942433A20322E302EF5
:10551E0030204156525F415243483A2061767235EF
:10552E000A00407B22F60A7B0A590AFE09170A3046
:02553E000A0061
:00000001FF
