:100000000C9456020C949D020C949D020C949D023B
:100010000C949D020C949D020C949D020C949D02E4
:100020000C949D020C949D020C940B270C94DE27DB
:100030000C94591C0C949D020C949D020C949D02EE
:100040000C949D020C949D020C949D020C949D02B4
:100050000C949D020C94BF1C0C949D020C949D0268
:100060000C949D020C949D020C949D020C949D0294
:100070000C949D020C949D020C949D020C949D0284
:100080000C949D020C949D020C949D020C949D0274
:100090000C949D020C949D020C949D020C949D0264
:1000A0000C949D020C949D020C949D0207634236B1
:1000B000B79BD8A71A39685618AEBAAB558C1D3CF9
:1000C000B7CC5763BD6DEDFD753EF6177231BF00BD
:1000D0000000803F05A84CCDB2D44EB93836A902F5
:1000E0000C50B9918688083CA6AAAA2ABE00000036
:1000F000803F29001E001F002000210022002D004B
:1001000035002E00230024002500260027002A00A9
:100110002B0014001A000800150017002F003100F2
:1001200030001C0018000C001200130034002900DD
:1001300004001600070009000A004A0047004D00AD
:100140000B000D000E000F0033002800E1001D0021
:100150001B000600190005004C0052004900110068
:100160001000360037003800E500E0004E00460081
:10017000E200E300E700500051004F002C002C008B
:10018000E60001514B00E4003A003B003C003D001A
:100190003E003F005300380025024000410042006D
:1001A000430044004500AF00B200B300B100C65C9C
:1001B000C55C5F00600061002D0001000100460089
:1001C00047004800AC00AE00AB00AD00C85CC75CA7
:1001D0005C005D005E002E020100005C0100010079
:1001E0000100AA00A800A9006500CA5CC95C59000A
:1001F0005A005B00580001000100010001000100ED
:1002000001000100C25C0151C45CC35C62000100DA
:100210006300580058000151010001000100000472
:100220007F3F1F643214643214783C1E1E140A058A
:100230006801F000B40078005A00000000000001DE
:100240000101010101010101020202020202020296
:100250000203030303030303030404040404040567
:100260000505050506060606060707070708080828
:10027000080909090A0A0A0A0B0B0B0C0C0C0D0DD4
:100280000D0E0E0F0F0F1010111111121213131467
:1002900014151516161717181819191A1A1B1C1CDD
:1002A0001D1D1E1F1F202021222223242525262735
:1002B0002728292A2B2B2C2D2E2F2F303132333467
:1002C0003536363738393A3B3C3D3E3F4041424374
:1002D00044464748494A4B4C4D4F5051525355564E
:1002E00057585A5B5C5E5F606263646667696A6CFC
:1002F0006D6E707173747678797B7C7E8081838477
:1003000086888A8B8D8F91929496989A9B9D9FA1B7
:10031000A3A5A7A9ABADAFB1B3B5B7B9BBBDBFC1BD
:10032000C4C6C8CACCCFD1D3D6D8DADCDFE1E4E684
:10033000E8EBEDF0F2F5F7FAFCFF04033000000003
:100340000A03580044003700350000000C03780011
:1003500069007500640069000000040309040902D3
:100360003B00020100A0FA090400000103010100A2
:100370000921110100012240000705810308000A3C
:1003800009040100010300000009211101000122FC
:10039000C0000705820320000A12011001000000BE
:1003A00008CDCD757501000102030105010902A107
:1003B0000185020901A1000509190129051500257A
:1003C00001950575018102950175038101050109FA
:1003D0003009311581257F95027508810609381588
:1003E00081257F950175088106050C0A3802158163
:1003F000257F950175088106C0C005010980A1010E
:1004000085031601002603001A81002A8300751057
:1004100095018100C0050C0901A1018504160100A8
:10042000269C021A01002A9C02751095018100C0C9
:1004300005010906A1018505050719E029E7150051
:100440002501950875018102050819012905950501
:10045000750191029501750391010507190029EFB6
:100460001500250195F075018102C005010906A15D
:1004700001050719E029E715002501950875018197
:100480000295017508810105081901290595057571
:100490000191029501750391010507190029FF15C6
:1004A0000026FF00950675088100C00011241FBEBC
:1004B000CFEFDAE0DEBFCDBF04B603FE27C08091E8
:1004C000800290918102A0918202B09183028730D4
:1004D000904BA740B04BD1F4109280021092810251
:1004E000109282021092830214BE84B7877F84BF69
:1004F0000FB6F894A89580916000886180936000A1
:10050000109260000FBEE0E0F8E3099511E0A0E072
:10051000B1E0ECE4FBE502C005900D92AE33B1070B
:10052000D9F722E0AEE3B1E001C01D92A038B207D6
:10053000E1F70E9437240C94552D0C9400000C9484
:10054000FA070C94D5020C94E1022A9A0895229A93
:100550000C94A5028F9A0895879A0C94AA028C98FD
:100560000895849A0C94AF028D9A0895859A0C94FC
:10057000B4020E94A7020E94AC020E94B1020E9433
:10058000B6020C94F907611107C0FC01828188232F
:1005900031F085EE0E94EA1090E080E0089585EE4B
:1005A0000E94CD11F9CF81E0089581E008950E9465
:1005B000FE1A811102C00E94761B0C94B9020C94A1
:1005C0009F0208950C94A30208950E94C9140E94EA
:1005D000E4022FEF84E39CE0215080409040E1F75B
:1005E00000C000000C94E31CFF920F931F93CF9365
:1005F000DF938C01FC01C081D18180918B0181113D
:1006000049C08281882309F440C0CE010E94DB19D1
:10061000F82E682FCE010E948719BE018F2D0E94EF
:100620009F05EC01B8010E94A102882309F4E2C0F1
:10063000CC3CFCE5DF0709F42EC108F071C0C43CD6
:100640009CE5D90709F400C108F048C0C531FCE5B4
:10065000DF0728F5C2308CE5D80708F09CC1C1152A
:100660009CE5D90709F4C1C0C130DC4509F4C9C013
:1006700081E08093430180934401C801DF91CF91D1
:100680001F910F91FF900C94D302CE010E94B319D9
:10069000F82EC3CFCE010E94DB19BE01C0CFC23CF1
:1006A000FCE5DF0709F4BEC008F0C3C0C631DC4575
:1006B000F9F60E94C21AF8019281992309F434C212
:1006C0008A7A91E009F490E090933E0181112AC268
:1006D00089E20E944B1A0E948F1A8CC0F801828115
:1006E000C83CFCE5DF0709F4C4C068F4C63CECE58F
:1006F000DE0709F4B9C008F4B2C0882309F47AC04F
:100700000E942F0B77C0CA3C9CE5D90709F4BDC0F5
:1007100008F4B5C0882309F46DC00E94D1096AC0ED
:10072000C43DFCE5DF0709F414C170F5F8018281CE
:10073000C03DFCE5DF0709F4D0C0D8F4CE3CECE5C1
:10074000DE0709F4B7C008F4AEC0882309F452C02C
:100750000E94C309663071058105910540F00E9431
:10076000C309683071058105910508F475C086E0FC
:100770009EC0C23D9CE5D90709F4D7C008F4C1C0AA
:100780008823C1F188E193C0C83DFCE5DF0709F487
:10079000AEC1B0F4F8018281C63DFCE5DF0709F483
:1007A0006CC108F4ECC0882309F48CC11092440198
:1007B0000E94891C909342018093410180E268C1AC
:1007C000CC3DECE5DE0709F4DFC0CD3DFCE5DF07FD
:1007D00011F1CB3DDC4509F04BCFF8018281882334
:1007E00049F080E00E94D52405C0F8018281811182
:1007F0000E94E50280E0DF91CF911F910F91FF9061
:100800000895F80182818823A9F3809123028160F1
:1008100080932302EFCFF8018281882359F30E944D
:10082000761BE8CFF8018281882321F30E94440CD3
:10083000E1CFF80182818823E9F20E94C21A827214
:1008400059F00E94E60BD6CFF8018281882391F2FD
:100850000E94C21A8272A9F30E94DC0BCBCF8823BC
:1008600049F20E94F80AC6CF882321F20E94100B99
:10087000C1CF882309F4BECF0E94470BBBCF88238A
:1008800009F4B8CF0E945F0BB5CF882309F4B2CF2B
:100890000E94770BAFCFF8018281882309F4AACF99
:1008A0000E94E609A7CF882309F4A4CF81E00E9423
:1008B000D90BA0CF882309F49DCF0E94C3096230D1
:1008C00071058105910538F00E94C30965307105F5
:1008D0008105910508F282E0EACF882309F48ACFE6
:1008E0000E94C309693071058105910540F00E949D
:1008F000C3096E3071058105910508F4ADCF89E01B
:10090000D6CF882309F476CF0E94C3096F307105D2
:100910008105910540F00E94C3096431710581058C
:10092000910508F499CF8FE0C2CF882309F462CFF4
:100930000E94C309653171058105910540F00E944F
:10094000C309673171058105910508F485CF85E1FB
:10095000AECFF8018281882309F44CCF0E94C309ED
:10096000693171058105910540F00E94C309623229
:1009700071058105910508F46FCF89E198CF88232F
:1009800009F438CF83E293CFF8018281882309F4F8
:1009900031CF82E027CFF8018281882309F46DCE20
:1009A0000E94FE1A811102C00E94761B0E941B1B2E
:1009B00090E09093720280937102FE01E350FC4537
:1009C000809171028160E231F10538F4E95AF24D0B
:1009D0000C94FA2C80917102826080937102809154
:1009E00071020E941F1B0E94C91404CF80917102E2
:1009F0008460F3CF809171028860EFCF80917102A3
:100A00008061EBCF809171028062E7CF80917102AB
:100A10008064E3CF809171028068DFCF80917102A2
:100A20008C60DBCF809171028E7FD7CF8091710275
:100A30008D7FD3CF809171028B7FCFCF8091710258
:100A4000877FCBCF809171028F7EC7CF809171025B
:100A50008F7DC3CF809171028F7BBFCF8091710258
:100A60008F77BBCF80917102837FB7CF9091710256
:100A7000892F97FB87F98058B0CF882361F01092B7
:100A800043010E94891C9093400180933F0182E0C2
:100A90000E942312AFCE8091430181110FC080913B
:100AA0003F01909140010E94951C883C910530F4D3
:100AB00086E20E94EA1086E20E94CD1182E00E9446
:100AC0002A1298CE8091440181110FC0809141017A
:100AD000909142010E94951C883C910530F487E278
:100AE0000E94EA1087E20E94CD1180E2E8CFF8016F
:100AF000828181115BCE809144018111F6CF80917A
:100B00004101909142010E94951C883C910568F733
:100B100080E20E942A1288E20E94EA1088E20E9483
:100B2000CD1168CE85E3D5CD80913E01811104C001
:100B300089E20E94521ACFCD85E3FBCF0895972F0B
:100B400070E02FE0929F600D711D1124FB019BE46A
:100B5000899FE00DF11D1124EE0FFF1FEE50FF4F96
:100B6000859194910895FC01EE0FFF1FEE50FF4F09
:100B7000859194910895CF93DF930E949F050E94E1
:100B80005B07EC01811520E5920708F042C0811552
:100B900030E4930708F007C1883E910528F5803EB0
:100BA000910508F09BC0883A910588F4853A910533
:100BB00008F08AC08130910509F490C0009709F4CB
:100BC0008DC0049708F08AC0D0E0C0E087C08D3B9C
:100BD000910508F487C0805C9109C03CD105A0F361
:100BE0000E94B305EC017AC08115904250F4C11502
:100BF00081E0D80708F072C0C03FD10528F3D06566
:100C00006DC0C11590E3D90708F0C3C0CE019F7035
:100C1000E7CF811525E5920758F5811534E593074F
:100C200008F0F0C0811542E5940750F4C11581E544
:100C3000D80708F4BBC0DC2FCC27C16FD06A4EC0E8
:100C4000982F969596959E0123703327C115D3450D
:100C500008F0C9C0C1E0D0E002C0CC0FDD1F2A956A
:100C6000E2F720E2929FC0011124C82BD92BB9C012
:100C7000C11589E5D80780F4C11598E5D90708F0B2
:100C8000C6C0C11526E5D20708F09ECFDC2FCC27C1
:100C9000CC27DF71D06222C0CE01C1153AE5D3075F
:100CA00008F4BAC090568115904208F08DCF8D2F70
:100CB0008F710E94D60790E0982F882788279F7110
:100CC0009C012C2BE901E6CF853A910509F4AEC0D1
:100CD000863A910509F0ADC0C2E8D0E4CE01DF91BB
:100CE000CF910895883A910509F4A6C0893A9105F3
:100CF00009F4A5C08A3A910509F4A4C08B3A91057C
:100D000009F4A3C08C3A910509F4A2C08B3B91056C
:100D100009F4A1C08C3B910509F4A0C08D3A91055E
:100D200009F49FC0803B910509F49EC08E3A91055D
:100D300009F49DC08F3A910509F49CC0813B91054F
:100D400009F49BC0823B910509F49AC0833B91054D
:100D500009F499C0843B910509F498C0853B91053D
:100D600009F497C0863B910509F496C0873B91052D
:100D700009F495C0883B910509F494C0893B91051D
:100D800009F493C08A3B910509F492C0C0E0D4E411
:100D9000A5CFCE019927D3FF03C0EC01D86C9ECF1D
:100DA000EC01D06C9BCFDF70D06A98CFCE01E4E02D
:100DB00096958795EA95E1F783702C2F26952695D1
:100DC000237090E2299F90011124382B8C2F83707F
:100DD000C1E0D0E002C0CC0FDD1F8A95E2F7C22B44
:100DE000D32BDC687BCFC1E0D0E002C0CC0FDD1F8D
:100DF0002A95E2F730E2939FC0011124C82BD92B2A
:100E0000DA686CCFD82FCC27C46FD06A67CFDC2FBD
:100E1000CC27C06FD06A62CF34E0969587953A951B
:100E2000E1F78F70CF70C06ED82FBECFC1E8D0E48D
:100E300055CFC3E8D0E452CFC2EED4E44FCFC9EED1
:100E4000D4E44CCFCAEED4E449CFC5EBD4E446CFCA
:100E5000C6EBD4E443CFC3EBD4E440CFC4EBD4E43B
:100E60003DCFC7EBD4E43ACFCCECD4E437CFCDECD4
:100E7000D4E434CFC3E8D5E431CFCAE8D5E42ECFEB
:100E8000C2E9D5E42BCFC4E9D5E428CFC1E2D6E44A
:100E900025CFC3E2D6E422CFC4E2D6E41FCFC5E219
:100EA000D6E41CCFC6E2D6E419CFC7E2D6E416CF0B
:100EB000CAE2D6E413CF8238910549F1B0F4813308
:100EC000910509F462C048F48932910509F456C0CD
:100ED0008A32910509F460C008958533910509F4BB
:100EE00046C08933910599F00895833E910531F10B
:100EF00038F4803E910591F0823E9105B1F008955D
:100F0000863E910521F1873E910551F1089520918A
:100F100071022370D9F080EE90E008952091710263
:100F200020FF14C089E390E008952091710222FF10
:100F30000DC024FD09C083EE90E008952091710258
:100F400022FD31C024FF02C090E080E0089520918E
:100F5000710223FFFBCF24FDF7CF87EE90E00895C9
:100F60002091710223FFEECF86EE90E0089520914C
:100F7000710225FFEBCF89E290E008952091710284
:100F800025FFE4CF85E390E008952091710226FFCC
:100F9000DDCF8AE290E008952091710226FFD6CF3E
:100FA00081E390E0089582EE90E0089590917102BF
:100FB00092FF06C0282F2871283069F4877F84604B
:100FC00093FF06C0282F2871283161F4877E846141
:100FD00094FD877E0895282F2471243089F78B7F14
:100FE0008860EECF282F2471243191F78B7E8861A1
:100FF000EFCF08950895CF93DF93AFE2B1E024E3FC
:1010000031E061E070E09D91E92FE295EF70F0E052
:1010100041A19F70EB0102C0CC0FDD1F9A95E2F752
:10102000CE018095842381A32A173B0761F7A0E2B4
:10103000B1E061E070E08D91E82FE295EF70F0E0B3
:1010400041A18F709B0101C0220F8A95EAF7922F70
:101050009095942391A382A1822B82A3D1E0AF32F9
:10106000BD0749F71092500110924F0110924601AE
:1010700010924501109252011092510110924801B4
:1010800010924701109254011092530110924A019C
:1010900010924901109256011092550110924C0184
:1010A00010924B01109258011092570110924E016C
:1010B00010924D01DF91CF910C94D7024F925F9225
:1010C0007F928F929F92AF92BF92CF92DF92EF92D8
:1010D000FF920F931F93CF93DF9395E4492E91E0F6
:1010E000592E2FE2E22E21E0F22E01E010E09924A9
:1010F0009394E201A990B9902E01DE011E921E92F6
:10110000F70181917F01E82FE295EF70F0E091A166
:101110008F70980101C0220F8A95EAF7892F822BE0
:1011200081A382A1822E8094882182A380EA8A955D
:10113000F1F780E2C82E81E0D82E90E080E0E60151
:1011400079916E01472F42954F7050E0EA0178A0E7
:101150004D915C9111977F70E80102C0CC0FDD1FAB
:101160007A95E2F7BE01672109F072C0B801082E36
:1011700002C0660F771F0A94E2F7462B572B119691
:101180005C934E9301968F309105C9F681A1882218
:1011900081A282A1282B22A38D919C91A816B90629
:1011A00041F0909259010E94891C90935B018093B9
:1011B0005A01DFE44D16D1E05D0609F09ACF809127
:1011C0005901882391F180915A0190915B010E940D
:1011D000951C069750F1809145019091460190939E
:1011E000500180934F018091470190914801909365
:1011F0005201809351018091490190914A0190934D
:1012000054018093530180914B0190914C01909334
:1012100056018093550180914D0190914E0190931C
:10122000580180935701109259010E94DF0281E01A
:10123000DF91CF911F910F91FF90EF90DF90CF90B2
:10124000BF90AF909F908F907F905F904F90089548
:1012500070E060E092CFE82FF0E0EE0FFF1FE15B5F
:10126000FE4F8081918108950895CF92DF92EF9291
:10127000FF920F931F93CF93DF93E901662309F445
:1012800066C0E42EF12CEFEFF0E0E61BF109EE9DD5
:101290008001EF9D100DFE9D100D1124212FE12FD7
:1012A000FF27EE1AFF0A5CE3C52ED12CB6010E947F
:1012B000D22CFB01BC01E69EC001E79E900DF69E7C
:1012C000900D1124B6010E94D22CE230F10589F173
:1012D00068F4812F262F210F309781F0242F461B91
:1012E000319761F080E020E040E008C0E430F10593
:1012F00051F128F1842F861B3597A1F7E42FF0E0F8
:10130000E65CFD4F4491E22FF0E0E65CFD4F9491E6
:10131000E82FF0E0E65CFD4FE49149839883EA838F
:10132000DF91CF911F910F91FF90EF90DF90CF90C1
:101330000895862F810FE42F412F2E2FDFCFE42F2A
:10134000E61B842FF9CF842F462F410FD7CF842F50
:10135000242FD4CF88E090E00C94152DAB01BC0174
:1013600088E090E00C94332DE4E5F2E083E08083A4
:1013700011828FEF828383831482608171818281E5
:1013800093810C94AE096091540260FF06C066958B
:101390006F7370E090E080E0089560E070E0CB0152
:1013A00008958091580290E001968430910514F0E0
:1013B00083E090E08093580260915402709155024E
:1013C00080915602909157020C94AE098091580278
:1013D0008150990B97FF02C090E080E08430910526
:1013E00014F083E090E08093580260915402709171
:1013F000550280915602909157020C94AE0980914B
:101400005402E9E5F2E080FF06C066E070E089E59D
:1014100092E00C947E0F118210821282339682E049
:10142000EB36F807C1F7F1CF9091540290FF0CC052
:10143000E9E5F2E0818360834283339692E0EB3604
:10144000F907C1F70C94FF090895CF93DF9300D0FB
:101450000F92CDB7DEB72091540220FF0AC09E0143
:101460002F5F3F4F0E9435094B8169818A810E941D
:10147000140A0F900F900F90DF91CF9108955F9213
:101480006F927F928F929F92AF92BF92CF92DF9294
:10149000EF92FF920F931F93CF93DF9300D00F92A1
:1014A000CDB7DEB78C01E62EF42E522E8091540279
:1014B00080FF2FC0982F9E779230F1F59E012F5F0D
:1014C0003F4FC8010E9435094B8169818A810E9482
:1014D000140A8091540200FB87F980935402902FE4
:1014E0009695809155028078892B10FB87F980931F
:1014F0005502E0925602F0925702552051F0609149
:1015000054027091550280915602909157020E94A8
:10151000AE090F900F900F90DF91CF911F910F9117
:10152000FF90EF90DF90CF90BF90AF909F908F9003
:101530007F906F905F900895E82FE695EF739EE39C
:101540009E0F9F73943018F4F0905702C2CF9AE325
:101550009E0F9F73993068F4881F8827881F909189
:101560005502292F220F022F082B97FB112710F964
:10157000B0CF87E28E0F8F738A3008F0AACFE9517F
:10158000FF0B21E0E0FD2FEFEE7FE05DFD4F859149
:10159000949166E070E00E94D22C26034001279FC0
:1015A000900C1124580188E9A81A8EEFB80A89E531
:1015B000C82E82E0D82E98E6692E77247394C50150
:1015C000B3010E94D22C96014F2D6E2D0E94350939
:1015D000A80CB91C83E0C80ED11C8BE6C81682E0AB
:1015E000D80669F70E94FF0974CF21E00C943F0AE6
:1015F000E4E5F2E02081221F2227221F30915502CC
:10160000432F440F842F822B37FB992790F90C9698
:1016100068E671E00E94E62C438162810C94F50A31
:1016200020915402221F2227221F30915502432F5E
:10163000440F842F822B37FB992790F98C3091052A
:1016400040F4845A9E4F40915702609156020C9488
:10165000F50A0C9768E671E00E94E62CF4CF6091E1
:101660005602673E90F4675E80915402881F882777
:10167000881F90915502292F220F97FB992790F9E7
:1016800040915702822B0C94F50A6FEFEDCF6091D9
:101690005602693190F0695180915402881F882761
:1016A000881F90915502292F220F97FB992790F9B7
:1016B00040915702822B0C94F50A60E0EDCF4091E7
:1016C0005702443F90F4445F80915402881F88275A
:1016D000881F90915502292F220F97FB992790F987
:1016E00060915602822B0C94F50A4FEFEDCF40919A
:1016F00057024C3090F04C5080915402881F88273C
:10170000881F90915502292F220F97FB992790F956
:1017100060915602822B0C94F50A40E0EDCF20E058
:101720000C943F0ACF939091540290FF40C091785F
:10173000811131C0926090935402662351F0609100
:1017400054027091550280915602909157020E9466
:10175000AE09C09154026C2F66956F7370E04BE038
:1017600050E082E091E00E94002D892BE1F0109280
:101770007901CC1FCC27CC1F90915502892F880F5F
:1017800097FB992790F940915702609156028C2B54
:10179000CF910C948F0B853210F09864CCCF8F735F
:1017A000880F982BC8CF81E080937901E2CFCF9149
:1017B000089561E00C94920B8091540286958F738A
:1017C0008F5F853208F081E00C94D90B8091540230
:1017D00086958F73815009F484E20C94D90BE4E56B
:1017E000F2E080818160808386958F730C94D90BA1
:1017F00060E00C94920B809123028160809323021D
:101800000E94FE1A811104C00E94761B0E94B40936
:101810000E94AA0960935402709355028093560265
:10182000909357026E7761F40E94B4090E94AA094E
:10183000609354027093550280935602909357021E
:1018400081E0809379018091540280FF04C08695E5
:101850008F730C94F80B0895E4E5F2E080818E7F9D
:10186000808360817181828193810E94AE09109290
:1018700079012FEF80E792E0215080409040E1F71E
:1018800000C000000C94FF098091540280FD0C946C
:101890002C0C0C94EF0BCF93C82F80917701909173
:1018A00078010E94951CEC2FF0E0E45DFD4FE4917F
:1018B000E817190611F008F042C00E94891C9093A5
:1018C0007801809377016091760170E090E080E08C
:1018D0000E94D32A20E030E04FE753E40E94F6292B
:1018E0002BED3FE049E450E40E94FC2B0E94692C60
:1018F0000E94702A2BE43AE34EE25FE30E948929BA
:1019000020EF3BEF48ED52E40E94FC2B0E94A22AFC
:10191000462F80915402881F8827881F9091550276
:10192000292F220F97FB992790F960915602822B5D
:101930000E94250A809176018F5F80937601CF9176
:101940000895CF93C82F80917401909175010E94E2
:10195000951CEC2FF0E0E75DFD4FE491E8171906C8
:1019600009F0E8F40E94891C90937501809374013A
:1019700040915702609156028091720190917301DB
:101980000E94250A8091720190917301019668E688
:1019900071E00E94D22C9093730180937201CF91D9
:1019A0000895CF92DF92FF920F931F93CF93DF930F
:1019B000F82E80917001909171010E94951CEF2D7D
:1019C000E695F0E0EA5DFD4FE491E817190609F0AD
:1019D000A8F50E94891C909371018093700109E51C
:1019E00012E0D0E0C0E088E6C82EDD24D3948091D8
:1019F0006E0190916F018C0F9D1FB6010E94D22C39
:101A0000980140915702609156020E943509EC9668
:101A10000D5F1F4FC83681E0D80749F70E94FF09C4
:101A200080916E0190916F01F0FE10C00196BE0191
:101A30000E94D22C90936F0180936E01DF91CF9121
:101A40001F910F91FF90DF90CF9008950197F2CFF3
:101A5000CF92DF92EF92FF920F931F93CF93DF937A
:101A6000C82FFF24FA9480FD02C0FF24F3948091D4
:101A70006C0190916D010E94951CC695EC2FF0E0D1
:101A8000ED5DFD4FE491E817190611F008F051C023
:101A90000E94891C90936D0180936C0109E512E00E
:101AA000D0E0C0E0F80111821082128294E0C92EC9
:101AB000D12CE12C80916B018E0D87FD8A5F082E61
:101AC000000C990B8C179D07E9F4809157028C9DAF
:101AD000A0018D9D500D112455954795559547951D
:101AE00080915402881F8827881F90915502592F92
:101AF000550F97FB992790F9980160915602852B15
:101B00000E943509EF0CF1E0CF1AD10899F6219621
:101B10000D5F1F4FC630D10529F60E94FF09809145
:101B20006B0191E0F91210C081110CC085E0809327
:101B30006B01DF91CF911F910F91FF90EF90DF909C
:101B4000CF9008958150F3CF90E00196BE010E949E
:101B5000E62CEDCF0F931F93CF93DF93C82F809187
:101B6000690190916A010E94951CEC2FF0E0E05E03
:101B7000FD4FE491E817190611F008F052C00E94D9
:101B8000891C90936A0180936901C9E5D2E0FE0146
:101B9000118210821282339682E0EB36F807C1F789
:101BA00010E000E080916801082E000C990B0817E6
:101BB0001907E4F180910101082E000C990B8017A0
:101BC0009107A4F180915402881F8827881F909163
:101BD0005502592F550F97FB992790F99E01409177
:101BE000570260915602852B0E9435090F5F1F4FE7
:101BF000239606301105B1F60E94FF09809100017D
:101C000090916801980F9093680120910101280F2D
:101C100020930101121614F495301CF081958093E5
:101C20000001DF91CF911F910F91089519821882C1
:101C30001A82DCCFEF92FF920F931F93CF93DF9323
:101C400080916601909167010E94951C883E9340A7
:101C5000C8F10E94891C9093670180936601C0912E
:101C60006401D09165012196C170DD27D093650193
:101C7000C093640189E5E82E82E0F82E10E008E7C1
:101C8000812F86958C0F9D2F911D8170992797012B
:101C90004091570260915602FC010E9FC0010F9FB8
:101CA000900D11240E9435091F5FF3E0EF0EF11C27
:101CB000163031F7DF91CF911F910F91FF90EF9088
:101CC0000C94FF09DF91CF911F910F91FF90EF903E
:101CD0000895CF93DF9300D00F92CDB7DEB78091F8
:101CE0006201909163010E94951CEEE1F2E0259162
:101CF000349182179307C0F18091610181110CC06A
:101D00009E012F5F3F4F4FEF6FEF90E080E00E940A
:101D100035098A81809361010E94891C9093630137
:101D20008093620180916001813071F0882339F0E5
:101D300040E0823011F44091610180E003C0809165
:101D4000610140E060E004C06091610140E080E03A
:101D50000E94140A8091600190E0019663E070E0B7
:101D60000E94E62C809360010F900F900F90DF91FE
:101D7000CF9108950F931F93CF93DF9380915E01CE
:101D800090915F010E94951C843F9140D8F10E9480
:101D9000891C90935F0180935E01C9E5D2E010E059
:101DA00000E040915C0150915D016091560280918C
:101DB0005402282F221F2227221F90915502892F7B
:101DC000880F822B97FB992790F903301105FCF4BB
:101DD000452BF9F09E01409157020E9435090F5F93
:101DE0001F4F239606301105E1F60E94FF098091EE
:101DF0005C0190915D0101968170992790935D013E
:101E000080935C01DF91CF911F910F910895452B35
:101E100009F39E0140E0E1CF809179018823D1F15F
:101E200090915402892F86958F732EE3280F2F737C
:101E3000243018F482500C944B0C2AE3280F2F7393
:101E4000233018F486500C94A10C27E3280F2F732D
:101E5000263018F489500C94D10C21E3280F2F73ED
:101E6000263018F48F500C94280D2BE2280F2F7376
:101E7000233018F485510C94AA0D9E77903311F4F9
:101E80000C941A0E963411F40C94690E983411F4D3
:101E90000C94BA0E089531B3242F2095232331B327
:101EA000432B3FB7F894680F791F8617970711F4F3
:101EB0003FBF0895FC015191CF01E8E041BB000014
:101EC00000C057FF21BB550F000000C000C000C07C
:101ED00021BB00C0EA9591F7E8CF20B3242B20BBAB
:101EE0009B01220F331F620F731F0E944B0F87EC61
:101EF00090E00197F1F700C00000089540E40C94D1
:101F00006D0F90937F0180937E010895E0917E0193
:101F1000F0917F01309721F00190F081E02D09943C
:101F200080E00895E0917E01F0917F01309799F073
:101F300020911F01222359F02091710227FF07C031
:101F4000DC012C9111962C93119725E02C930280A3
:101F5000F381E02D09940895E0917E01F0917F01D5
:101F6000309739F022E0DC012C930480F581E02DDC
:101F70000994089520917C0130917D01281739073B
:101F800071F090937D0180937C01E0917E01F0914E
:101F90007F01309721F00680F781E02D09940895A4
:101FA00020917A0130917B012817390771F09093C5
:101FB0007B0180937A01E0917E01F0917F0130975F
:101FC00021F00084F185E02D0994089585B780689B
:101FD00085BF85B7806885BF089508950E94E60F84
:101FE0000C94ED0F81E008950E94801C0E94FB0775
:101FF0000E94521D0C94FB0B5F926F927F928F9206
:102000009F92AF92BF92CF92DF92EF92FF920F9387
:102010001F93CF93DF93CDB7DEB72A970FB6F8940F
:10202000DEBF0FBECDBF0E945E080E94F20F882364
:1020300009F47AC091E8A92E91E0B92E10E000E0F1
:1020400088248394912C502E802F0E942B097C0190
:10205000F501C190D1905F01C816D90609F45EC0A0
:102060008091230281FD0E94340990E080E0CE241B
:10207000DF243401082E02C0660C771C0A94E2F7B4
:10208000960126213721232B09F443C08E835F82DA
:10209000E620F72081E0EF2809F480E088870E949D
:1020A000891C8160782F9A8789874E815F81688536
:1020B0008A850E94BB10000F111FF801EF57FE4FD9
:1020C0008081918168267926718260820E94D01F6A
:1020D0000E94860F909180018917B9F10E94860FA6
:1020E000809380012A960FB6F894DEBF0FBECDBF55
:1020F000DF91CF911F910F91FF90EF90DF90CF90E4
:10210000BF90AF909F908F907F906F905F900C9456
:10211000E20201968F30910509F0ABCF0F5F1F4FA0
:102120000530110509F08FCF8FEF89838A831B82D9
:102130000E94891C8160782F9D838C8349815A81FC
:102140006B818D810E94BB10C1CF2A960FB6F89487
:10215000DEBF0FBECDBFDF91CF911F910F91FF90DA
:10216000EF90DF90CF90BF90AF909F908F907F9037
:102170006F905F900895CF93DF93CDB7DEB72B9725
:102180000FB6F894DEBF0FBECDBF4F835887698767
:102190007A878B871E821D8285E0FE013796DE01DD
:1021A000119601900D928A95E1F749815A816B81D0
:1021B0007C818D819E812B960FB6F894DEBF0FBE79
:1021C000CDBFDF91CF910C946717FC018081918185
:1021D0000C941D1ACF93C82F882309F4DCC08238D1
:1021E000C1F40E94860F81FDD6C089E30E944B1A7C
:1021F0000E948F1A2FEF81EE94E021508040904092
:10220000E1F700C0000089E30E94521ACF910C94BC
:102210008F1A8338A1F40E94860F80FDBCC083E52D
:102220000E944B1A0E948F1A2FEF81EE94E02150EA
:1022300080409040E1F700C0000083E5E5CF84389E
:10224000A1F40E94860F82FDA6C087E40E944B1A6B
:102250000E948F1A2FEF81EE94E021508040904031
:10226000E1F700C0000087E4CFCF8CEF8C0F813AFC
:1022700048F48C2F0E94EF2181118DC08C2F0E9479
:102280004B1AC4CF80E28C0F883048F4C77081E0CD
:1022900001C0880FCA95EAF70E94C51AB7CF8BE52F
:1022A0008C0F833068F481E890E0C53A31F083E820
:1022B00090E0C63A11F482E890E0CF910C94BA0F06
:1022C00088E58C0F853108F05EC082EE90E0C83A58
:1022D00009F456C089EE90E0C93A09F451C08AEE7B
:1022E00090E0CA3A09F44CC085EB90E0CB3A09F48F
:1022F00047C086EB90E0CC3A09F442C083EB90E013
:10230000CB3BF1F184EB90E0CC3BD1F187EB90E05B
:10231000CD3AB1F18CEC90E0C03B91F18DEC90E0C6
:10232000CE3A71F183E891E0CF3A51F18AE891E039
:10233000C13B31F182E991E0C23B11F184E991E0C6
:10234000C33BF1F081E292E0C43BD1F083E292E042
:10235000C53BB1F084E292E0C63B91F085E292E0A9
:10236000C73B71F086E292E0C83B51F087E292E011
:10237000C93B31F090E080E0CA3B11F48AE292E080
:10238000CF910C94D00FC03F30F08C2F0E94DE1EF6
:10239000CF910C94C51FCF910895882309F452C0A2
:1023A000823871F40E94860F81FF4CC089E30E943D
:1023B0004B1A0E948F1A89E30E94521A0C948F1AAA
:1023C000833859F40E94860F80FF3CC083E50E9449
:1023D0004B1A0E948F1A83E5EFCF843859F40E947C
:1023E000860F82FF2FC087E40E944B1A0E948F1A2B
:1023F00087E4E2CF9CEF980F913AF0F290E2980FC9
:10240000983050F4877091E001C0990F8A95EAF7EF
:10241000892F0E94CB1AD2CF9BE5980F933020F4DE
:1024200090E080E00C94BA0F98E5980F953120F475
:1024300090E080E00C94D00F803F20F00E94461F77
:102440000C94C51F0895882321F00E94C51A0C948E
:102450008F1A0895882321F00E94CB1A0C948F1AAA
:1024600008958F929F92AF92BF92CF92DF92EF9298
:10247000FF920F931F93CF93DF937C01D62FC72F2B
:10248000FC01058102950F70128111110E94E21A60
:102490000E94881AC82E882371F01123B1F080E2BF
:1024A0008D0F883090F082E00E94721A0E94881A84
:1024B00091E0C82EC926DC2ED2949FE0D922ED2DC2
:1024C000F0E0E759F24D0C94FA2CC12CF4CF0C2F0C
:1024D0000F70C07F11F00295007F1123A9F0002337
:1024E00059F080E28D0F883010F0D11109C0802F93
:1024F0000E94C51A0E948F1A8D2F0E94EA1014C0E4
:10250000802F0E94D51AF6CF8D2F0E94CD11002367
:1025100059F080E28D0F883010F0D11133C0802F38
:102520000E94CB1A0E948F1A98E0D91639F0D9165A
:1025300048F086EF8D0D8F70823020F40E94860F58
:102540000E94E202CC2009F4D9C10E94651A80FDE4
:10255000D5C1F70112820E945F1A0E94EB18C701D1
:102560000E948B140E945F1ADF91CF911F910F91EF
:10257000FF90EF90DF90CF90BF90AF909F908F90A3
:102580000C940C19802F0E94DB1ACCCFFC2FFF700B
:10259000BF2EC07FC03219F0B29480EFB822DD2385
:1025A00069F0D13049F1112391F1002351F1F70184
:1025B000858180FFA1CF8F70858323C0112381F097
:1025C000011106C00E94FB1A8B290E942312ACCF76
:1025D0000130C1F70E94FB1A8B290E94F51AA4CF83
:1025E000011106C00E94F81A8B2D0E942A129CCF5E
:1025F000013009F499CFF6CF112329F0063008F005
:1026000093CF8B2DE2CF053008F08ECFEDCF002396
:1026100059F38D2F0E94CD1187CF8C2F86958695EB
:10262000837069F0813009F07FCF8D2F9C2F9370DC
:10263000111102C090E080E00E94D00F75CF8D2F65
:102640009C2F9370111102C090E080E00E94BA0F9D
:102650006BCF112309F1D53F99F0D63FB9F0D43FA4
:1026600049F480916B0290916C02816090936C02AE
:1026700080936B028D2F0E94DE1E0E94C51F54CFD7
:1026800080916B0290916C028260F0CF80916B021E
:1026900090916C028460EACFD53F89F0D63FA9F0D3
:1026A000D43F49F480916B0290916C028E7F90939D
:1026B0006C0280936B028D2F0E94461FDECF8091AB
:1026C0006B0290916C028D7FF2CF80916B029091A2
:1026D0006C028B7FECCF8C2F837009F047C01111F7
:1026E00023CF2D2F229526952770220F220F6D2F95
:1026F0006F70862E912CB12CA12C022E04C0880C58
:10270000991CAA1CBB1C0A94D2F760E070E0CB01B4
:10271000D4FF0FC06FE070E080E090E004C0660F6F
:10272000771F881F991F2A95D2F76095709580951D
:102730009095C695C695C370C23051F080F4682953
:1027400079298A299B29C13071F00E949D18ECCE0D
:10275000682979298A299B290E94AF18E5CE0E9411
:102760009D18C501B4010E948B18DECE86951123F9
:1027700011F08C2F8170882309F4D6CE2D2F22954D
:1027800026952770220F220F6D2F6F70862E912CA9
:10279000B12CA12C022E04C0880C991CAA1CBB1CB5
:1027A0000A94D2F760E070E0CB01D4FF0FC06FE075
:1027B00070E080E090E004C0660F771F881F991FCB
:1027C0002A95D2F76095709580959095C695C69597
:1027D000C370C23051F080F4682979298A299B2975
:1027E000C13071F00E9462199FCE682979298A2927
:1027F0009B290E94741998CE0E946219C501B401E8
:102800000E94501991CEE0E2ED0FE53108F04DC085
:10281000F0E0E758F24D0C94FA2CDF708C2F8F719A
:10282000112321F00E94EB188D2FCFCE0E940C199E
:102830008D2FDBCE112341F0053008F075CE8C2FA3
:102840008F710E942F1970CE063008F06DCEF7CF31
:102850008C2F8F71112339F00E94EB1865CE8C2FCD
:102860008F711123C9F30E940C195ECE112329F038
:102870008C2F8F710E94D61857CE0E94D11854CE3B
:10288000112349F0CF718C2F0E94EB1863E08C2F3D
:102890000E94691A49CE81E00E94721A023008F43F
:1028A00043CE82E00E94721A3FCE112329F001111B
:1028B00023CE8C2F8F71D0CF002369F0D93309F04C
:1028C000A8CEFFEF27EE83E0F15020408040E1F7F3
:1028D00000C000009ECE8C2F8F71C5CF4C2F4F7043
:1028E0006D2FC7010E94C3020E9401181DCE4C2FFC
:1028F0004F706D2FC7010E949E0516CEDF91CF91BC
:102900001F910F91FF90EF90DF90CF90BF90AF900D
:102910009F908F9008950F931F93CF93DF93EC01B7
:102920008B819C81892B29F08881998189238F3F14
:1029300029F4DF91CF911F910F910895CE010E944C
:10294000F4028823B1F3688179818A810E94271A71
:102950008C010E9486190E948818B801CE01DF916F
:10296000CF911F910F910C9431120E94E21A0E9494
:10297000F21A0E94591A0E948F1A0E9463200E9424
:10298000C51F90E080E00E94BA0F90E080E00C94B8
:10299000D00F0E94D21A0C94B5140E941D1AE92F70
:1029A000E295EF70E250EE3070F4F0E0E257F24D55
:1029B0000C94FA2C803F19F020F4803E20F481E042
:1029C0000895843FE1F380E00895803EC0F3813FA5
:1029D000D1F7F5CF93FB882780F90895CF93DF9344
:1029E00000D000D00F92CDB7DEB70F900F900F90B0
:1029F0000F900F90DF91CF910895CF93DF9300D088
:102A000000D000D0CDB7DEB726960FB6F894DEBF63
:102A10000FBECDBFDF91CF9108951F93CF93DF936A
:102A2000C0918C0116E080918D018C1304C0DF9160
:102A3000CF911F910895D0E01C9FF0011D9FF00DD4
:102A40001124E257FE4F408151816281738184815C
:102A500095810E94FD142196C770E5CF4091BE017B
:102A60005091BF016091C0017091C1018091C2017C
:102A70009091C3010C94FD141F93CF93DF93809129
:102A8000C301807FC1F48091C0018823A1F08091AF
:102A90008C01C0918D016091BE017091BF01409188
:102AA000C1015091C201D62FD723DA01A095B0956C
:102AB00016E0C81304C0DF91CF911F91089590E0F4
:102AC0004115510511F0DF3F31F401968770F1CFC8
:102AD0002A0F3B1F17C0189FF001199FF00D1124FA
:102AE000E257FE4F21812713F0CF20812613EDCF2F
:102AF00022812111EACF238134812417350740F345
:102B0000241B350B283C310500F72091C3012F70A1
:102B100020612093C30126E0289FF001299FF00D3A
:102B20001124ED56FE4F80818F70806180838EEB83
:102B300091E00E948B14DF91CF911F910C940D15A1
:102B4000BF92CF92DF92EF92FF920F931F93CF939A
:102B5000DF93CDB7DEB761970FB6F894DEBF0FBE37
:102B6000CDBF8C0185E0F801DE011D9601900D922C
:102B70008A95E1F7D8014C9111965C9111971296C4
:102B8000EC9012978091C1019091C201009709F4D5
:102B90007FC12091BE013091BF01622F63236F3F3F
:102BA00009F476C11396CD90DC90B090C001BB20A3
:102BB00009F411C1C816D906D0F1F601E81BF90BCA
:102BC000CF01FF24F394883C910508F0F12C80910B
:102BD000C301982F907FFF2009F4B8C091117FC0E6
:102BE000FE2C351329C0241327C0E11025C08F7097
:102BF00080618093C3010E942E158EEB91E00E94AC
:102C00008B148091C301D80115968C938F2D6196FA
:102C10000FB6F894DEBF0FBECDBFDF91CF911F91ED
:102C20000F91FF90EF90DF90CF90BF900895809527
:102C300090958C0D9D1DC5CFCD2829F0852F84231F
:102C40008F3F09F041C180E0B82FB170DB2E80FFCB
:102C50003CC080918C0120918D0136E0821315C01B
:102C60004D875E878D859E850E941D1A292F22958E
:102C70002F702230F0F0243018F59F70F1F0F80139
:102C80009581907FD1F4D12C1EC090E0389FF00147
:102C9000399FF00D1124E257FE4F6181651306C084
:102CA0006081641303C06281E6120FC001968770D1
:102CB000D5CF9F7011F0882331F3805E883018F3F0
:102CC000C8010E948B14FD2CA1CFEE2009F49ECFE9
:102CD0008091C30181608093C301F12C97CF35139C
:102CE00006C0241304C0D801EE2009F49AC04D8711
:102CF0005E878D859E850E94CD14882319F1EE2074
:102D000009F18091C301803270F02091BE013091B1
:102D1000BF0138872F831986DB86CA868C87CE0150
:102D200007960E948B1486E0F801AEEBB1E00190AB
:102D30000D928A95E1F70E943C150E942E15FF2402
:102D4000F39464CFC8010E948B14F9CF911113C082
:102D50007C2DD98AC88A6E2D89890E94EE148EEB4B
:102D600091E00E948B1486E0EEEBF1E0DF011D9212
:102D70008A95E9F763C0351312C0241310C0E1101F
:102D80000EC0F8018583C8010E948B14EEEBF1E0C0
:102D900086E0DF011D928A95E9F7FB2C37CF4D873E
:102DA0005E878D859E850E94CD14882359F2EE2082
:102DB00049F28091C301803208F4B5CF2091BE0161
:102DC0003091BF013A8329831B82DD82CC828E83BE
:102DD000CE010196A6CFC816D90698F1F601E81BD8
:102DE000F90BCF01F12C883C910508F049C0FE2C6D
:102DF000EE2009F4A7CF351332C0241330C08091E0
:102E0000C30180FD23C0982F907F01F1D801159652
:102E10008C931597903F39F0982F907F905F8F702B
:102E2000892B15968C93C8010E948B1486E0F801BB
:102E3000AEEBB1E001900D928A95E1F70E942E155C
:102E4000E5CE809590958C0D9D1DCCCF86E0F80148
:102E5000AEEBB1E001900D928A95E1F7D7CE4D87A8
:102E60005E878D859E850E94CD1481115CCF8091F7
:102E7000C30181608093C301C8010E948B14C6CE38
:102E80007C2DD98AC88A6E2D89890E94EE146BCF59
:102E9000EE2009F457CF4D875E878D859E850E9471
:102EA000CD14F82E882309F44DCF86E0F801AEEB5F
:102EB000B1E001900D928A95E1F78EEB91E00E94CE
:102EC000E5100E943C15BACF81E08E25BDCE1F9340
:102ED000CF93DF93CDB7DEB72C970FB6F894DEBF54
:102EE0000FBECDBF4F83588769877A878B879C87B2
:102EF000CE0107960E94A015882369F08A859B85DC
:102F0000892B39F04F815885842F85238F3F09F015
:102F100071C016E05FC086E0FE013796DE011196B3
:102F200001900D928A95E1F78A859B85892B89F31B
:102F300088859F8189238F3F61F320918D0130E047
:102F4000C90101968770992740918C01481719068D
:102F500071F40E94C91410928D0110928C0186E0C8
:102F6000EEEBF1E0DF011D928A95E9F7D2CF96E012
:102F7000929FD001939FB00D1124A257BE4FFE0126
:102F8000319601900D929A95E1F780938D010E9400
:102F90000D15BFCF819FC001112482579E4F0E9403
:102FA000A0158823E9F0E0918C011E9FF001112407
:102FB000E257FE4F40815181628173818481958106
:102FC0000E94FD1480918C0190E0019687709927F2
:102FD00080938C0180918C0190918D018913DACFBF
:102FE0002C960FB6F894DEBF0FBECDBFDF91CF9108
:102FF0001F91089569857A858B859C850E94FD14B3
:1030000088CFEF92FF920F931F93CF93DF938C01A2
:10301000892B81F0F12CEE24E394E8012196F8014C
:103020008491843770F4843008F05FC08130B1F04F
:103030008230A1F1DF91CF911F910F91FF90EF901E
:103040000895853709F44CC008F43DC09CE7980FFB
:10305000903780F78F770E94CD1149C00E5F1F4FC8
:10306000FE01849190E2980F983060F48770FE2DF5
:1030700001C0FF0F8A95EAF78F2F0E94E51A0E9480
:103080008F1A02C00E94EA108F2D815030F2EFE9B2
:10309000FFE03197F1F700C00000F7CF0E5F1F4F40
:1030A000FE01849190E2980F983050F48770FE2DC5
:1030B00001C0FF0F8A95EAF78F2F0E94EB1ADFCF2E
:1030C0000E94CD11E1CF0E5F1F4FFE01C491C15090
:1030D000D8F28FE99FE00197F1F700C00000F7CF29
:1030E0000E5F1F4FFE01F490CFCF0E94EA108E01B9
:1030F000CBCF08950C9479180E947A186093FA0146
:103100007093FB018093FC019093FD010C94B51426
:1031100008950C947C180F931F930091FA0110915D
:10312000FB012091FC013091FD01602B712B822B62
:10313000932B1F910F910C947C180F931F93009168
:10314000FA011091FB012091FC013091FD016023F7
:103150007123822393231F910F910C947C180F935A
:103160001F930091FA011091FB012091FC01309115
:10317000FD0160277127822793271F910F910C94DF
:103180007C180C9479180C94C1180E94C318609391
:10319000F6017093F7018093F8019093F9010C9474
:1031A000B51460E070E0CB010C94C5180F931F9329
:1031B00041E050E060E070E08A019B0104C0000F34
:1031C000111F221F331F8A95D2F7C901B8011F9121
:1031D0000F910C94C5180F931F9341E050E060E0ED
:1031E00070E004C0440F551F661F771F8A95D2F701
:1031F0008091F6019091F701A091F801B091F90149
:103200008A019B01082B192B2A2B3B2BC901B801E2
:103210001F910F910C94C5180F931F9341E050E03C
:1032200060E070E004C0440F551F661F771F8A9549
:10323000D2F7CB01BA016095709580959095009179
:10324000F6011091F7012091F8013091F901602306
:103250007123822393231F910F910C94C5180F9310
:103260001F9341E050E060E070E004C0440F551F40
:10327000661F771F8A95D2F78091F6019091F7012A
:10328000A091F801B091F9018A019B010827192743
:103290002A273B27C901B8011F910F910C94C5182B
:1032A0000F931F930091F6011091F7012091F801FF
:1032B0003091F901602B712B822B932B1F910F9171
:1032C0000C94C5180F931F930091F6011091F7010C
:1032D0002091F8013091F901602371238223932317
:1032E0001F910F910C94C5180F931F930091F60135
:1032F0001091F7012091F8013091F90160277127B1
:10330000822793271F910F910C94C51808952FE0E1
:10331000929F800D1124982F977041E001C0440FB7
:103320009A95EAF786958695869595E0899FF001AE
:103330001124EC53FE4F90E080E070E05191DF01EA
:1033400011979B01082E02C0369527950A94E2F743
:10335000217021952527242325272C93019685303C
:10336000910561F708952FE0929F800D1124982F09
:10337000977086958695869525E0829FF0011124A9
:10338000EC53FE4F50E040E080E0219130E0092E08
:1033900002C0369527950A94E2F721703327042E50
:1033A00001C0220F0A94EAF7822B4F5F5F4F45302E
:1033B000510559F70895BF92CF92DF92EF92FF9295
:1033C0000F931F93CF93DF938C01C090F601D090A1
:1033D000F701E090F801F090F9018091FA019091E5
:1033E000FB01A091FC01B091FD01C82AD92AEA2A6B
:1033F000FB2ACFE1D0E0BC2ED701C6010C2E04C0C1
:10340000B695A795979587950A94D2F780FD0EC03B
:10341000219788F7B12C8B2DDF91CF911F910F91C0
:10342000FF90EF90DF90CF90BF900895B8018C2F60
:103430000E94BB05019761F3EECFCF93DF93EC01C0
:103440000E94DB19BE01DF91CF910C94BB051F9345
:10345000CF93DF93EB0190918B01992331F0CB0156
:10346000DF91CF911F910C941D1A882379F0CB0125
:103470000E94DB19182F682FCE010E948719BE0108
:10348000812FDF91CF911F910C94BB05CB010E943E
:10349000B319182FF4CF682F80910D0190910E0170
:1034A0000C94DC1B682F80910D0190910E010C94FF
:1034B000E71B80910D0190910E010C94F21B8091FD
:1034C000FE0185958595859508958091FE0187700B
:1034D000089598E0899F90011124622B6093FE016A
:1034E0000C94EB189091FE01809589238093FE0146
:1034F000282F277061F4282F082E000C330B921709
:10350000130629F08595859585950C940C190895D9
:103510009091FE01977081E009F480E00895E091B8
:103520000D01F0910E01809122028083E0910D0146
:10353000F0910E01808190912102892B8083E0918E
:103540000D01F0910E01808190912002892B8083E2
:103550009091FF01992381F0E0910D01F0910E010E
:103560008081892B808380910D0190910E010E94B2
:10357000781B81111092FF0180910D0190910E0135
:103580000C94920F80912202089590912202892B2F
:10359000809322020895809590912202982390931F
:1035A0002202089510922202089590912102892BFF
:1035B0008093210208958095909121029823909301
:1035C0002102089510922102089590912002892BE2
:1035D00080932002089580959091200298239093E3
:1035E000200208951092200208958093FF0108950B
:1035F0001092FF0108958091FF01089590E080E00E
:103600000E941B2D21E08D3E9E4F09F020E0822F6D
:10361000089582E090E00C940D2D682F82E090E0F8
:103620000C94212D83E090E00C940D2D682F83E005
:1036300090E00C94212D84E090E00C940D2D682FE7
:1036400084E090E00C94212DAB01BC018FE090E070
:103650000C94332DAB01BC0183E190E00C94332D2D
:1036600060E070E0CB010C942A1B60E070E0CB01BD
:103670000E94241B0C94301B6DEE7EEF90E080E0E6
:103680000E943F2D60E082E090E00E94212D60E0EA
:1036900083E090E00E94212D1092FA011092FB012C
:1036A0001092FC011092FD0160E084E090E00E9425
:1036B000212D60E085E090E00E94212D60E086E011
:1036C00090E00E94212D6FEF87E090E00E94212D75
:1036D00040E050E0BA0188E090E00E94332D60E0C5
:1036E0008DE090E00E94212D0C94351B0C943C1B26
:1036F000FC01329680911F01882321F08091710294
:103700009EE187FF96E080E0915008F408952191B2
:103710002223D1F38F5FF8CF9C01FC0132969FEFFB
:1037200080E04191461751F09F3F19F4411101C0CB
:10373000982F8F5F8630A9F79F3F09F40895290FCE
:10374000311D97FD3A95F90162830895FC01329687
:1037500008962191261303C0DF0111971C92E817E8
:10376000F907B9F70895E62FE695E695E695EE3167
:1037700068F4E80FF92FF11D677021E030E001C017
:10378000220F6A95EAF78281822B82830895E62FC1
:10379000E695E695E695EE3170F4E80FF92FF11D08
:1037A000677021E030E001C0220F6A95EAF72095AA
:1037B000828128232283089520911F01222329F04A
:1037C0002091710227FD0C94B31B0C948C1B20914B
:1037D0001F01222329F02091710227FD0C94C71BA1
:1037E0000C94A61BFC01329680911F01882351F096
:1037F0008091710287FF06C08EE1DF011D928A95DC
:10380000E9F7089586E0F9CF089508950C94051C12
:103810000E94061C80917702843049F110922402A4
:1038200088E190E020E40FB6F894A89580936000BA
:103830000FBE2093600080E00E94E2020E94061CFE
:1038400083B7817F846083BF83B7816083BF7894AF
:10385000889583B78E7F83BF0FB6F894A895809123
:103860006000886180936000109260000FBE089530
:103870000895CF930E94041C0E945E080E94381C89
:10388000C0E08C2F0E942B09892B31F4CF5FC5300B
:10389000C1F780E0CF91089581E0FCCF08950C94AA
:1038A0004E1C0E94C9140E94860F0E94E2020C94D2
:1038B0004F1C1F921FB61F9211248F939F93AF939B
:1038C000BF9380912402811113C080916D02909169
:1038D0006E02A0916F02B09170024196A11DB11DC0
:1038E00080936D0290936E02A0936F02B09370026A
:1038F000BF91AF919F918F911F901FBE1F90189500
:1039000082E084BD93E095BD9AEF97BD80936E00F1
:1039100008952FB7F89480916D0290916E02A09156
:103920006F02B09170022FBF0895CF92DF92EF9295
:10393000FF920F931F932FB7F89440916D0250910F
:103940006E0260916F02709170022FBF6A017B015D
:10395000EE24FF248C0130E020E0C016D106E20600
:10396000F30650F0481B590BCA011F910F91FF90AD
:10397000EF90DF90CF90089541505109F3CF7894A4
:103980001F921FB61F9211248F939F93AF93BF93E3
:1039900080916D0290916E02A0916F02B0917002C1
:1039A0000196A11DB11D80936D0290936E02A093AC
:1039B0006F02B0937002BF91AF919F918F911F9052
:1039C0001FBE1F90189581E08093E00080E28093F5
:1039D000D8001092C9008FE19EE40197F1F700C072
:1039E000000087E090EBDC018093800290938102DD
:1039F000A0938202B093830288E19CE00FB6F89412
:103A0000A895809360000FBE90936000FFCFAF92A7
:103A1000BF92CF92DF92EF92FF920F931F93CF93BB
:103A2000C0E0CC24C394D12CE82EF12C8C2F0E9422
:103A30002B095C0110E000E0C601002E02C0880FD7
:103A4000991F0A94E2F78A219B21892B99F40F5F31
:103A50001F4F0F30110581F7CF5FC53039F780E078
:103A6000CF911F910F91FF90EF90DF90CF90BF907B
:103A7000AF900895602F7C2F80E00E949F05E8168C
:103A8000F90629F781E0ECCFCF93C82F8CE20E9492
:103A9000071D882321F08C2FCF910C94071D80E007
:103AA000CF910895CF930E94FE1A811102C00E9407
:103AB000761BC5E608C00E945E088FE39CE901976B
:103AC000F1F700C00000C150B1F789E20E94441D27
:103AD0008111EFC08AE20E94441D81110E94761B71
:103AE00085E00E94441D81110E94E31C0E94091B75
:103AF0008093230287E00E94441D882371F08BE1AC
:103B00000E94441D882309F4B1C090912302892F9B
:103B10008D7F91FF826080932302809123020E9417
:103B20000D1B0E941B1B90E0909372028093710208
:103B300080EE0E94441D882341F090917102892FEC
:103B40008E7F90FF81608093710289E30E94441D03
:103B5000882341F090917102892F8D7F91FF8260BF
:103B60008093710282EE0E94441D882341F090915F
:103B70007102892F8B7F92FF84608093710286EEA1
:103B80000E94441D882341F090917102892F877F04
:103B900093FF88608093710283EE0E94441D882306
:103BA00041F090917102892F8F7E94FF8061809304
:103BB000710285E30E94441D882341F090917102B7
:103BC000892F8F7D95FF80628093710281E30E942F
:103BD000441D882341F090917102892F8F7B96FFBD
:103BE00080648093710281E10E94441D882341F02A
:103BF00090917102892F97FB87F980588093710209
:103C0000809171020E941F1B87E20E94441DC82FF1
:103C10008EE10E94441D8111C2608FE10E94441D0B
:103C20008111C46080E20E94441D8111C86081E25C
:103C30000E94441D8111C06182E20E94441D8111D5
:103C4000C06283E20E94441D8111C06484E20E942C
:103C5000441D882341F1C0688C2F0E94161B6C2FD5
:103C600070E090E080E0CF910C9489188EE00E9483
:103C7000441D882339F090912302892F8B7F92FF76
:103C8000846049CF80E10E94441D909123028823E3
:103C900029F0892F877F93FF88603DCF892F8E7F02
:103CA00090FF816038CFC111D7CF0E94121B682FBF
:103CB000D7CFCF9108958091270280FF12C06091E5
:103CC000120185E0689FB00111247595679575957F
:103CD000679560387105A8F561157105A1F1862F0A
:103CE000089581FF09C06091120185E0689FB001CD
:103CF000112475956795EDCF6091120182FD0AC080
:103D0000809128028823D1F09091110160911201D5
:103D1000891728F085E0689FB0011124DACF869FCB
:103D2000B001112485E0869F9001879F300D1124FA
:103D3000692F70E0C9010E94E62CCBCF65E070E0EE
:103D4000CECF8FE7089581E008958091270280FF0C
:103D50000CC06091100170E0759567957595679539
:103D60006115710549F1862F089581FF06C06091A4
:103D7000100170E075956795F3CF6091100182FD99
:103D80000BC0909128029923A1F060910F018091BE
:103D90001001961738F0682F70E06038710500F355
:103DA0008FE70895899FC001112470E00E94E62CDE
:103DB000F4CF61E070E0D7CF81E00895803F31F427
:103DC0000E945B1E819580932C020895813F19F417
:103DD0000E945B1EF8CF823F31F40E945B1E8195EA
:103DE00080932B020895833F19F40E945B1EF8CF45
:103DF000893F29F40E94A51E80932D0208958A3FD1
:103E000021F40E94A51E8195F7CF8B3F31F40E94CB
:103E1000A51E819580932E0208958C3F19F40E946F
:103E2000A51EF8CF843F31F480912A0281608093EF
:103E30002A020895853F21F480912A028260F7CFFB
:103E4000863F21F480912A028460F1CF873F21F4DC
:103E500080912A028860EBCF883F21F480912A026A
:103E60008061E5CF8D3F31F480912702816080939E
:103E7000270208958E3F21F4809127028260F7CFB8
:103E80008F3FB9F7809127028460F1CF90912B0288
:103E9000803F41F480912C0287FD10922C029923DF
:103EA00071F00895813F29F480912C021816ACF32B
:103EB000F6CF823F81F497FFF2CF10922B028091D0
:103EC0002C0290912D02892B90912E02892B49F77B
:103ED000109228020895833F19F4191674F3DFCF66
:103EE000893F39F480912D021816CCF610922D02DC
:103EF000D6CF8A3F29F480912D0287FFD0CFF6CF0D
:103F00008B3F39F480912E0287FFC9CF10922E0289
:103F1000C6CF8C3F29F480912E021816BCF3BFCF78
:103F2000843F31F480912A028E7F80932A02B7CF9A
:103F3000853F21F480912A028D7FF7CF863F21F4BF
:103F400080912A028B7FF1CF873F21F480912A0252
:103F5000877FEBCF883F21F480912A028F7EE5CFC7
:103F60008D3F31F4809127028E7F8093270297CF77
:103F70008E3F21F4809127028D7FF7CF8F3F09F08C
:103F80008ECF809127028B7FF0CF89E292E00E9452
:103F9000AC0F0E94891C90932602809325020895FD
:103FA0001F93CF93DF9380912502909126020E9468
:103FB000951CAC01909128022091130130E09111E1
:103FC00006C0209114018AE0289F90011124421715
:103FD000530778F020912B02D0912C0210912D02E2
:103FE000C0912E02211109C08D2F812B8C2B09F03D
:103FF00066C0DF91CF911F9108959F3F19F09F5F99
:1040000090932802121624F40E945B1E80932B02C8
:1040100080912B0287FF05C00E945B1E81958093D3
:104020002B021D1624F40E945B1E80932C028091AB
:104030002C0287FF05C00E945B1E819580932C0295
:1040400030912B023323C1F020912C022223A1F0C6
:1040500045EB3403C0011124892F911101C081E087
:1040600080932B0245EB240390011124832F3111FF
:1040700001C081E080932C02111624F40E94A51E39
:1040800080932D0280912D0287FF05C00E94A51EFE
:10409000819580932D021C1624F40E94A51E809306
:1040A0002E0280912E0287FF05C00E94A51E8195D9
:1040B00080932E02DF91CF911F910C94C51F9F3FDB
:1040C00009F09DCFAECF86E0E9E2F2E0DF011D927C
:1040D0008A95E9F7109228021092270208958330FA
:1040E00081F128F4813059F08230D1F00895853083
:1040F00009F449C0B8F1863009F456C0089580919A
:104100001401482F460F5527551F4F3F510524F4E2
:10411000680F6093140108958FEF80931401089540
:1041200080911301482F460F5527551F4F3F5105CA
:1041300024F4680F6093130108958FEF80931301A7
:10414000089580911201482F460F5527551F4F3F64
:10415000510524F4680F6093120108958FEF809346
:104160001201089580911101482F460F5527551FC0
:104170004F3F510524F4680F6093110108958FEFAC
:1041800080931101089580911001482F460F552703
:10419000551F4F3F510524F4680F60931001089597
:1041A0008FEF80931001089580910F01482F460FE3
:1041B0005527551F4F3F510524F4680F60930F0199
:1041C00008958FEF80930F010895833011F128F443
:1041D000813049F0823091F00895853081F120F1ED
:1041E0008630C1F1089580911401681720F4861B70
:1041F0008093140108951092140108958091130181
:10420000681720F4861B8093130108951092130100
:10421000089580911201681720F4861B8093120183
:10422000089510921201089580911101681720F4E9
:10423000861B8093110108951092110108958091B9
:104240001001681720F4861B8093100108951092C6
:104250001001089580910F01681720F4861B809348
:104260000F01089510920F0108950F931F9341E0DD
:1042700050E060E070E08A019B0104C0000F111F54
:10428000221F331F8A95D2F7C901B8010E948918ED
:104290001F910F910C94C9148B3109F46BC048F530
:1042A0008E3009F475C078F4873009F455C028F4CD
:1042B000863009F448C080E00895883011F08B30D2
:1042C000D1F781E00895813109F46DC068F480313F
:1042D00091F790912302892F877F93FF88608093C5
:1042E000230283FD51C0EDCF863159F3893149F363
:1042F000E2CF853351F068F4873239F020F48E3103
:10430000D0F28D5103C08932B1F680E00E94352190
:10431000D8CF833430F48A3308F050C0883389F220
:10432000CACF833491F3883431F60E94C9142FEF39
:1043300083ED90E3215080409040E1F700C0000001
:104340000E94E31CBECF80912302807F80932302D2
:1043500081E080933002089590912302892F8E7F0F
:1043600090FF81608093230280FDABCF817F80939B
:104370002302A7CF90912302892F8D7F91FF826026
:104380008093230281FF9DCF809123028160EFCF34
:1043900090912302892F8B7F92FF84608093230268
:1043A00082FDF2CF8ECF0E94C91490917102892FA5
:1043B00097FB87F980588093710283CF8953A6CFEA
:1043C00080E008950C94E0218E518A3030F4E82F7B
:1043D000F0E0EC5CFE4F8081089580E00895CF937B
:1043E000C82F809130028130D1F0882331F08230A3
:1043F000D1F11092300280E010C0E0910D01F091F7
:104400000E0180818232B9F78C2F0E94E021811148
:104410001EC08C2F0E944C218170CF910895E09195
:104420000D01F0910E018081823271F38C2F0E9478
:10443000E22181110AC0C43199F060F4CB3029F037
:10444000C03151F782E08093300281E0E5CF81E016
:1044500090E0E2CFC93221F0C833B9F380E0DCCF7D
:1044600010923002FBCFC93219F188F4C43101F146
:1044700020F4C73081F181E0D0CF82EE8C0F8630FE
:10448000D0F78C2F0E94E42180932F02F4CFCE34FA
:1044900001F140F46AE0CB3471F780912F020E9461
:1044A0006F20E9CFC13579F061E0C235B1F3E3CFD8
:1044B00080912F02882319F010922F02DCCF81E027
:1044C00080933002AACF61E080912F020E94E52004
:1044D000D2CF6AE0F9CF8EE18093140182E380931A
:1044E00013018AE08093120184E18093110188E036
:1044F0008093100188E280930F01BDCF809151021B
:1045000008950F931F93CF93DF9300D00F92CDB7F1
:10451000DEB78C010E94E524823011F0843021F551
:1045200084E089831B830A8382E08093E9008FEF14
:104530009091E800815095FD06C095ED9A95F1F7B0
:1045400000008111F5CF8091E80085FF0DC050E09B
:1045500040E063E070E0CE0101960E940225809168
:10456000E8008E778093E8000F900F900F90DF9116
:10457000CF911F910F910895CF93DF9300D00F92A9
:10458000CDB7DEB720917702243031F523E02983BF
:10459000805891099B838A8382E08093E9008FEFA2
:1045A0009091E800815095FD06C095ED9A95F1F740
:1045B00000008111F5CF8091E80085FF0DC050E02B
:1045C00040E063E070E0CE0101960E9402258091F8
:1045D000E8008E778093E8000F900F900F90DF91A6
:1045E000CF910895CF93DF93EC010E94E5248230B0
:1045F00011F08430F9F482E08093E9008FEF90911C
:10460000E800815095FD06C095ED9A95F1F7000000
:104610008111F5CF8091E80085FF0CC050E040E0AB
:1046200066E070E0CE010E9402258091E8008E775E
:104630008093E800DF91CF910895CF93DF93EC0151
:104640000E94E524823011F08430B9F580911F0179
:104650008823B1F18091710287FF32C060E282E06D
:104660008093E9008FEF9091E800815095FD06C09E
:1046700095ED9A95F1F700008111F5CF8091E80052
:1046800085FF1BC080911F0170E050E040E0811168
:1046900004C050E040E068E070E0CE010E940225D6
:1046A0008091E8008E778093E80080E2FE01A1E32C
:1046B000B2E001900D928A95E1F7DF91CF910895D4
:1046C00068E081E0CDCF80917602811109C00E941F
:1046D00090260E94ED268091E20084608093E200A3
:1046E0000895109276020895089508950C94511C2F
:1046F00042E061EC81E00E940E2642E261EC82E041
:104700000C940E2680917902833009F45DC030F458
:104710008130B1F1823009F499C008958A3009F4EA
:1047200085C08B3009F46BC0893009F04CC0809192
:104730007802813209F047C080917C0290917D021D
:10474000029708F040C08091E800877F8093E800DE
:104750008091E80082FF33C080911F01882329F0F7
:104760008091F1008B7F813021F48091F100809362
:1047700051028091E8008B778093E8000C944226E8
:1047800080917802813AF9F48091E800877F8093E4
:10479000E80080917C0290917D02892B61F460E2B7
:1047A00081E392E070E00E9451258091E8008B77D0
:1047B0008093E800089560E090E080E0F3CF80917E
:1047C00077028111C5CF089580917802813AD9F797
:1047D00080917C0290917D02892BA9F78091E8005D
:1047E000877F8093E8008091E80080FFFCCF809174
:1047F0001F018093F1008091E8008E77BDCF8091FA
:104800007802813201F780917C0290917D02892BA0
:10481000D1F68091E800877F8093E8000E944226CD
:1048200080917A0280931F010C94C91480917802C0
:10483000813249F68091E800877F8093E8000E94EA
:10484000422680917B0280935202089580917802E3
:10485000813A09F0B8CF8091E800877F8093E80023
:104860008091E80080FFFCCF80915202C2CF84B7D4
:10487000877F84BF0FB6F894A89580916000886107
:1048800080936000109260000FBE80E8809361000A
:10489000109261000E94EE0F0E9490260E94ED2669
:1048A0008091E20084608093E20078940E946D29F8
:1048B0000E94F40F85E191E00E94810F80917702C0
:1048C000853029F00E94FC0F0E940C0FF7CF0E9448
:1048D000081C80917502882389F30E94391C882363
:1048E00069F30E94EC24EACF0C947624292F332715
:1048F0002330310519F168F42130310509F44AC03B
:104900002230310509F44BC090E080E030E020E037
:1049100028C02132310579F122323105A9F780E42E
:1049200090E02BE634E061157105D9F080EC90E061
:104930002BEA33E061307105A1F0E6CF9927813091
:10494000910599F0009741F08230910589F0039725
:10495000D9F6EAE3F3E002C0EAE5F3E0849190E0FF
:104960009F01FA01318320830895ECE4F3E0F6CF50
:10497000E0E4F3E0F3CF89E090E020E733E0611575
:10498000710579F389E090E029E833E06130710541
:1049900041F3BACF82E190E029E933E0E2CF8BE343
:1049A00090E02EE533E0DDCF0895CF93C82F0E942D
:1049B000D424C0935302CF9108958091770284301C
:1049C00011F482E0089581E00895809153028111ED
:1049D00002C00C94DD24089580E189BD82E189BD87
:1049E00009B400FEFDCF8091D8008F7D8093D80060
:1049F0008091E00082608093E0008091E00081FD82
:104A0000FCCF0895AF92BF92CF92DF92FF920F93A7
:104A10001F93CF93DF936C01EB018A010E94612603
:104A2000F82E811123C00115110539F0F80180819C
:104A30009181C81BD90BC80ED91EB12CA12C20976F
:104A4000A9F08091E80085FD22C08091E8008E7772
:104A50008093E80001151105A1F0F8018081918192
:104A6000A80EB91EB182A08285E0F82E8F2DDF91AD
:104A7000CF911F910F91FF90DF90CF90BF90AF909B
:104A800008950E9461268823D1F2F82EEFCFF60117
:104A900081916F018093F1002197FFEFAF1ABF0A58
:104AA000CECFFC0180917E0290917F0286179707FE
:104AB000A0F06115710529F49091E8009E7790931C
:104AC000E80090E06115710551F4911108C08091E2
:104AD000E80082FF34C080E00895BC01F2CF8091ED
:104AE00077028823C1F18530C1F18091E80083FD10
:104AF00030C08091E80082FDEACF8091E80080FF1D
:104B0000E1CF8091F3002091F200382F61157105FB
:104B100019F02830310558F091E02830310509F0BE
:104B200090E02091E8002E772093E800CBCF819190
:104B30008093F100615071092F5F3F4FE7CF809163
:104B40007702882341F0853041F08091E80083FFAF
:104B5000BECF81E0089582E0089583E00895FC01CE
:104B600080917E0290917F0286179707A0F06115D1
:104B7000710529F48091E8008E778093E80090E039
:104B80006115710551F4911108C08091E80082FF10
:104B900035C080E00895BC01F2CF80917702882370
:104BA000C9F18530C9F18091E80083FD31C0809161
:104BB000E80082FDEACF8091E80080FFE1CF80919C
:104BC000F3002091F200382F6115710519F028309B
:104BD000310558F091E02830310509F090E08091DE
:104BE000E8008E778093E800CBCF84918093F1002A
:104BF0003196615071092F5F3F4FE6CF8091770268
:104C0000882341F0853041F08091E80083FFBDCFDB
:104C100081E0089582E0089583E00895982F973009
:104C200028F08F708093E90081E008959093E90067
:104C3000242F762F50E0981731F07091EC002091DE
:104C4000ED005091F00021FD02C09F5FE8CF309150
:104C5000EB003E7F3093EB003091ED003D7F3093D1
:104C6000ED003091EB0031603093EB007093EC007D
:104C70002093ED005093F0002091EE0027FDE5CF4A
:104C800080E008958091780287FF13C08091E8004A
:104C900082FF06C08091E8008B778093E80004C013
:104CA000809177028111F2CF089580917702882355
:104CB000D9F38091E80080FFF8CF8091E8008E77EB
:104CC000ECCF2091E4003091E50085E6A9019091B8
:104CD000EC0090FF06C09091E80090FF06C080E0D5
:104CE00008959091E80092FDFACF90917702992370
:104CF00089F0953089F09091EB0095FD0FC02091DF
:104D0000E4003091E5004217530709F38150F1F6B2
:104D100084E0089582E0089583E0089581E0089595
:104D20000E94FE260E940627E0EEF0E0808181606E
:104D30008083E8EDF0E080818F77808319BCA7ED58
:104D4000B0E08C918E7F8C9380818F7E80831092D7
:104D5000760208950F931F93CF93DF930E94FE2650
:104D60000E940627C8EDD0E088818F7788838881EC
:104D70008068888388818F7D888319BC1092770230
:104D800010927302109275021092740200EE10E0FD
:104D9000F80180818B7F808388818160888342E0F5
:104DA00060E080E00E940E26E1EEF0E080818E7FE0
:104DB0008083E2EEF0E08081816080838081886082
:104DC0008083F80180818E7F8083888180618883E1
:104DD000DF91CF911F910F910895E8EDF0E0808170
:104DE0008F7E8083E7EDF0E080818160808384E0C6
:104DF00082BF81E0809376020C94AA26E8EDF0E071
:104E000080818E7F80831092E20008951092DA00F4
:104E10001092E10008951F920F920FB60F92112485
:104E20002F933F934F935F936F937F938F939F93B2
:104E3000AF93BF93EF93FF938091E10082FF0BC08C
:104E40008091E20082FF07C08091E1008B7F809318
:104E5000E1000E946C298091DA0080FF19C08091E6
:104E6000D80080FF15C08091DA008E7F8093DA0031
:104E70008091D90080FF94C080E189BD82E189BD25
:104E800009B400FEFDCF81E0809377020E94632386
:104E90008091E10080FF19C08091E20080FF15C081
:104EA0008091E2008E7F8093E2008091E200806139
:104EB0008093E2008091D80080628093D80019BC72
:104EC00085E0809377020E9475238091E10084FF42
:104ED00029C08091E20084FF25C080E189BD82E184
:104EE00089BD09B400FEFDCF8091D8008F7D8093ED
:104EF000D8008091E1008F7E8093E1008091E200F4
:104F00008F7E8093E2008091E20081608093E200D6
:104F100080917302882309F449C084E0809377026A
:104F20000E9476238091E10083FF29C08091E200F6
:104F300083FF25C08091E100877F8093E10082E0BC
:104F400080937702109273028091E1008E7F8093AC
:104F5000E1008091E2008E7F8093E2008091E20088
:104F600080618093E20042E060E080E00E940E26D3
:104F70008091F00088608093F0000E947423FF917C
:104F8000EF91BF91AF919F918F917F916F915F91C1
:104F90004F913F912F910F900FBE0F901F9018953A
:104FA00019BC109277020E94712372CF8091E300A6
:104FB00087FD02C081E0B2CF83E0B0CF1F920F9295
:104FC0000FB60F9211242F933F934F935F936F93DC
:104FD0007F938F939F93AF93BF93CF93EF93FF9361
:104FE000C091E900CF708091EC001092E9008091AF
:104FF000F000877F8093F00078940E941A28109226
:10500000E9008091F00088608093F000C093E9008F
:10501000FF91EF91CF91BF91AF919F918F917F9130
:105020006F915F914F913F912F910F900FBE0F9015
:105030001F9018951F93CF93DF93CDB7DEB7AA9734
:105040000FB6F894DEBF0FBECDBF88E792E0209187
:10505000F100FC012193CF01F2E080389F07B9F7FE
:105060000E9482238091E80083FF1EC18091780214
:10507000909179029A3008F017C1E92FF0E0E456D8
:10508000F24D0C94FA2C803899F0823809F00CC15A
:1050900080917C028F70873008F006C18093E90010
:1050A0008091EB0085FB882780F91092E90006C00B
:1050B0008091740290917502911182609091E80044
:1050C000977F9093E8008093F1001092F100809117
:1050D000E8008E77E5C0882309F4D3C0823009F058
:1050E000E3C080917A028111D6C080917C028F70DA
:1050F0002FEF280F263008F0D7C08093E9002091C9
:10510000EB0020FFC8C0933031F48091EB00806247
:105110008093EB00C0C09091EB0090619093EB0006
:1051200021E030E001C0220F8A95EAF72093EA00DF
:105130001092EA008091EB008860EACF8111B4C040
:1051400010917A021F778091E3008078812B809301
:10515000E3008091E800877F8093E8000E94422668
:105160008091E80080FFFCCF8091E300806880930D
:10517000E30082E0111183E08093770295C08058AC
:10518000823008F091C080917A0290917B028C3D30
:1051900023E09207A1F583E08A838AE289834FB7EF
:1051A000F894DE01139620E03EE051E2E32FF0E0B8
:1051B00050935700E49120FF03C0E295EF703F5FEA
:1051C000EF708E2F90E0EA30C0F0C7968D939D93DC
:1051D0002F5F243159F74FBF8091E800877F80937C
:1051E000E8006AE270E0CE0101960E9451258091AC
:1051F000E8008B778093E80057C0C096E7CF6091B6
:105200007C0270917D02AE014F5F5F4F0E9474245B
:10521000BC01892B09F448C09091E800977F9093D6
:10522000E80089819A810E94AF25E1CF8038E1F5BD
:105230008091E800877F8093E800809173028093DB
:10524000F10045CF811130C090917A02923060F523
:105250008091E800877F8093E800909373020E941A
:10526000422680917302882311F084E005C080916A
:10527000E30087FDFACF81E0809377020E947823D4
:1052800013C080917A02813079F481E0933009F083
:1052900080E0809375021092E9008091E800877F9A
:1052A0008093E8000E9442268091E80083FF0AC0B4
:1052B0008091E800877F8093E8008091EB00806216
:1052C0008093EB00AA960FB6F894DEBF0FBECDBF59
:1052D000DF91CF911F9108950895CF938091770228
:1052E000882399F0C091E900CF708091EC0080FD97
:1052F0000EC080E0C82B1092E9008091E80083FD89
:105300000E941A28CF70C093E900CF91089580E8D9
:10531000F1CF5058BB27AA270E94A1290C944C2BEF
:105320000E943E2B38F00E94452B20F039F49F3F1D
:1053300019F426F40C94142B0EF4E095E7FB0C946E
:105340000E2BE92F0E945D2B58F3BA1762077307E3
:105350008407950720F079F4A6F50C947F2B0EF4C2
:10536000E0950B2EBA2FA02D0B01B90190010C0175
:10537000CA01A0011124FF27591B99F0593F50F48D
:10538000503E68F11A16F040A22F232F342F4427E5
:10539000585FF3CF469537952795A795F0405395DD
:1053A000C9F77EF41F16BA0B620B730B840BBAF0AD
:1053B0009150A1F0FF0FBB1F661F771F881FC2F718
:1053C0000EC0BA0F621F731F841F48F4879577952C
:1053D0006795B795F7959E3F08F0B0CF9395880FE6
:1053E00008F09927EE0F9795879508950E940A2A4D
:1053F0000C944C2B0E94452B58F00E943E2B40F001
:1054000029F45F3F29F00C940E2B51110C94802B42
:105410000C94142B0E945D2B68F39923B1F3552350
:1054200091F3951B550BBB27AA27621773078407B7
:1054300038F09F5F5F4F220F331F441FAA1FA9F34D
:1054400035D00E2E3AF0E0E832D091505040E6953B
:10545000001CCAF72BD0FE2F29D0660F771F881F9C
:10546000BB1F261737074807AB07B0E809F0BB0B8F
:10547000802DBF01FF2793585F4F3AF09E3F5105A3
:1054800078F00C940E2B0C94802B5F3FE4F3983E45
:10549000D4F3869577956795B795F7959F5FC9F78C
:1054A000880F911D9695879597F90895E1E0660F0D
:1054B000771F881FBB1F621773078407BA0720F086
:1054C000621B730B840BBA0BEE1F88F7E0950895EF
:1054D00029F416F00C940E2B0C947F2B0C94142BA7
:1054E0000E94652BA8F39638A0F707F80F92E8946E
:1054F0002BE33AEA48EB5FE70E94122C0F920F92DF
:105500000F924DB75EB70F920E94C82BECEAF0E005
:105510000E94172B4F915F91EF91FF91E595EE1F40
:10552000FF1F49F0FE57E0684427EE0F441FFA952D
:10553000E1F74195550B0E94922B0F9007FE0C94BA
:10554000862B08950E94652B88F09F5798F0B92FFD
:105550009927B751B0F0E1F0660F771F881F991FA8
:105560001AF0BA95C9F714C0B13091F00E947F2BA0
:10557000B1E008950C947F2B672F782F8827B85FB0
:1055800039F0B93FCCF3869577956795B395D9F700
:105590003EF490958095709561957F4F8F4F9F4F0A
:1055A0000895E89409C097FB3EF490958095709516
:1055B00061957F4F8F4F9F4F9923A9F0F92F96E95F
:1055C000BB279395F695879577956795B795F111D4
:1055D000F8CFFAF4BB0F11F460FF1BC06F5F7F4F71
:1055E0008F4F9F4F16C0882311F096E911C0772383
:1055F00021F09EE8872F762F05C0662371F096E88C
:10560000862F70E060E02AF09A95660F771F881F5A
:10561000DAF7880F9695879597F9089597F99F6718
:1056200080E870E060E008959FEF80EC0895DF93DC
:10563000CF931F930F93FF92EF92DF927B018C0128
:10564000689406C0DA2EEF010E940F2CFE01E89448
:10565000A5912591359145915591A6F3EF010E94B1
:10566000A129FE019701A801DA9469F7DF90EF9074
:10567000FF900F911F91CF91DF91089500240A941C
:105680001616170618060906089500240A9412161D
:105690001306140605060895092E0394000C11F450
:1056A000882352F0BB0F40F4BF2B11F460FF04C0FD
:1056B0006F5F7F4F8F4F9F4F089557FD9058440F56
:1056C000551F59F05F3F71F04795880F97FB991F61
:1056D00061F09F3F79F0879508951216130614061E
:1056E000551FF2CF4695F1DF08C0161617061806AB
:1056F000991FF1CF86957105610508940895E89486
:10570000BB2766277727CB0197F908959B01AC014A
:1057100060E070E080E89FE30C94F6290C940E2B77
:105720000C94712C0E94652BD8F39923C9F3940F24
:10573000511DA3F39150504094F059F0882332F05A
:10574000660F771F881F91505040C1F79E3F51054B
:105750002CF7880F911D9695879597F908955F3FCF
:10576000ACF0983E9CF0BB27869577956795B795EA
:1057700008F4B1609395C1F7BB0F58F711F460FFBF
:10578000E8CF6F5F7F4F8F4F9F4FE3CF0C94802BFD
:10579000FA01DC01AA0FBB1F9B01AC01BF5728F423
:1057A000222733274427507820C0B75190F4AB2FDD
:1057B0000024469537952795011CA395D2F3002028
:1057C00071F0220F331F441FB395DAF30ED00C94FF
:1057D000892961307105A0E88A07B94630F49B0138
:1057E000AC016627772788279078309621F02083B0
:1057F00031834283538308950E940F2C0C944C2BC9
:105800000E943E2B38F00E94452B20F0952311F08A
:105810000C940E2B0C94142B11240C94802B0E94AE
:105820005D2B70F3959FC1F3950F50E0551F629F5C
:10583000F001729FBB27F00DB11D639FAA27F00DE9
:10584000B11DAA1F649F6627B00DA11D661F829F10
:105850002227B00DA11D621F739FB00DA11D621FF5
:10586000839FA00D611D221F749F3327A00D611D12
:10587000231F849F600D211D822F762F6A2F1124F4
:105880009F5750409AF0F1F088234AF0EE0FFF1F27
:10589000BB1F661F771F881F91505040A9F79E3F7E
:1058A000510580F00C940E2B0C94802B5F3FE4F399
:1058B000983ED4F3869577956795B795F795E795D4
:1058C0009F5FC1F7FE2B880F911D9695879597F9DD
:1058D00008959F930E94812C0F9007FCEE5F0C941B
:1058E000AA2C9F3F31F0915020F4879577956795CA
:1058F000B795880F911D9695879597F908950C9403
:10590000142B0E94652BD8F3E894E0E0BB279F5747
:10591000F0F02AED3FE049EC06C0EE0FBB0F661F2A
:10592000771F881F28F0B23A62077307840728F0B0
:10593000B25A620B730B840BE3959A9572F7803819
:1059400030F49A95BB0F661F771F881FD2F79048D7
:105950000C94732CEF93E0FF07C0A2EA2AED3FE01E
:1059600049EC5FEB0E94A1290E944C2B0F900394FD
:1059700001FC9058E4EDF0E00C94BE2C9F938F93C3
:105980007F936F93FF93EF939B01AC010E94FC2BDD
:10599000EF91FF910E94172B2F913F914F915F91B3
:1059A0000C94FC2BAA1BBB1B51E107C0AA1FBB1FF9
:1059B000A617B70710F0A61BB70B881F991F5A959B
:1059C000A9F780959095BC01CD01089597FB072E0E
:1059D00016F4009407D077FD09D00E94D22C07FC62
:1059E00005D03EF4909581959F4F089570956195EF
:1059F0007F4F0895EE0FFF1F0590F491E02D09945D
:105A0000FC014150504030F001900616D1F731971B
:105A1000CF010895882799270895F999FECF92BD5F
:105A200081BDF89A992780B50895A6E1B0E044E0D9
:105A300050E00C94472DA8E1B0E042E050E00C9417
:105A4000472D262FF999FECF92BD81BDF89A019777
:105A500000B4021639F01FBA20BD0FB6F894FA9AB6
:105A6000F99A0FBE08950396272F0E94222D0E94B7
:105A7000212D252F0E94222D242F0C94222D0196BA
:105A8000272F0E94222D0C94212DDC01CB01FC013B
:105A9000F999FECF06C0F2BDE1BDF89A319600B487
:105AA0000D9241505040B8F70895F894FFCFEA04A2
:105AB000F604FA04FE04020506050A050E051205A1
:105AC00016051A051E05220526052A052E0532058E
:105AD000360567126712C612C6120D1329139412E7
