:100000000C9474030C94BB030C94BB030C94BB03BF
:100010000C94BB030C94BB030C94BB030C94BB0368
:100020000C94BB030C94BB030C943A280C940C293D
:100030000C947D1D0C94BB030C94BB030C94BB036C
:100040000C94BB030C94BB030C94BB030C94BB0338
:100050000C94BB030C94E51D0C94BB030C94BB03E4
:100060000C94BB030C94BB030C94BB030C94BB0318
:100070000C94BB030C94BB030C94BB030C94BB0308
:100080000C94BB030C94BB030C94BB030C94BB03F8
:100090000C94BB030C94BB030C94BB030C94BB03E8
:1000A0000C94BB030C94BB030C94BB03A90DAC0DC7
:1000B000B40DB90DBE0DC30DC80DCD0DD20DD70DAC
:1000C000DC0DE10DE30DE60DE90DEC0DEF0DF20D8C
:1000D000F40DF90D14131413461346139313B313AD
:1000E00013151315F5139214A314A3140315131564
:1000F00013150C1595159515A715A7159E15A7157C
:10010000A715A71595159515A315A715A715A3153B
:10011000B722AD22C5221E23252325231E232523F6
:100120002523E6222523F022FA2225232523252331
:1001300025231E23252325231E232523D3222523E0
:1001400025230A230A230A230A230A230A230A232C
:100150000A230A2320232523B722AA222523252385
:10016000252325232523252325232523252325234F
:100170002023252325231E232523082308230823A2
:100180000823082308230823082308232023792988
:10019000A029922AA029922AEC290F2A922A652ABC
:1001A000742A35001E001F002000210022002D00AF
:1001B00073002E00230024002500260027002A00BB
:1001C0002B0014001A000800150017002F00720001
:1001D00030001C0018000C0012001300340039001D
:1001E00004001600070009000A000000710000006A
:1001F0000B000D000E000F0033002800E1001D0071
:100200001B0006001900050049004B004A001100C0
:1002100010003600370038003100E000E600E3004F
:100220000251000029414C004E004D002C000000FE
:100230005000510052004F0000000000000000007C
:1002400000000000000000000000000000002D027F
:100250002E00000000000000000000000000000070
:100260000000000000000000000000002D002E0231
:10027000000000000000000000000000000000007E
:100280000000000000005000510052004F0000002C
:10029000000000000000000000000000000000005E
:1002A00000000000000000002F02300200000000EB
:1002B000000000000000000000000100000000003D
:1002C0000000000000002F0030000000000045008A
:1002D0003A003B003C003D003E00000000000000F2
:1002E0003F00400041004200430044000000000085
:1002F00000004D00000000000000000000000000B1
:1003000000004900000000000000000000000000A4
:100310004C00000000000000000000004A00000047
:1003200000000000000000000000000000000000CD
:1003300000000000000000000000000000000000BD
:1003400000000000000000000000000001000000AC
:10035000005C000000000000000000000000000041
:100360000000000000047F3F1F64321464321478E0
:100370003C1E1E140A052223252628292A2C2D2F4F
:100380003032333536383A3B3D3E404243454749AB
:100390004A4C4E5051535557595A5C5E60626466E0
:1003A00068696B6D6F71737577797B7D7F818385EC
:1003B00087898A8C8E90929496989A9C9E9FA1A3EE
:1003C000A5A7A8AAACAEAFB1B3B4B6B8B9BBBCBE12
:1003D000BFC1C2C3C5C6C7C9CACBCCCDCED0D1D28E
:1003E000D2D3D4D5D6D7D7D8D9D9DADADBDBDBDC90
:1003F000DCDCDCDCDDDDDDDDDCDCDCDCDCDBDBDB3C
:10040000DADAD9D9D8D7D7D6D5D4D3D2D2D1D0CE9B
:10041000CDCCCBCAC9C7C6C5C3C2C1BFBEBCBBB9A0
:10042000B8B6B4B3B1AFAEACAAA8A7A5A3A19F9E1E
:100430009C9A98969492908E8C8A89878583817FE6
:100440007D7B79777573716F6D6B696866646260C7
:100450005E5C5A5957555351504E4C4A4947454393
:1004600042403E3D3B3A3836353332302F2D2C2A30
:10047000292826252322FFAA7F55400001010101DA
:10048000010101010102020202020202020203034F
:10049000030303030303040404040404040505051F
:1004A00005050606060606070707070708080808E1
:1004B000090909090A0A0A0B0B0B0C0C0C0D0D0D8E
:1004C0000E0E0E0F0F0F1010111111121213131424
:1004D00014151516161717181819191A1A1B1B1C9C
:1004E0001D1D1E1E1F2020212222232424252626F6
:1004F000272829292A2B2C2D2D2E2F30313232332B
:100500003435363738393A3B3C3D3E3F4041424333
:100510004445464748494A4C4D4E4F505153545517
:100520005658595A5B5D5E5F616264656668696BC7
:100530006C6D6F7072737577787A7B7D7E80828345
:100540008587888A8C8E8F91939596989A9C9EA089
:10055000A2A3A5A7A9ABADAFB1B3B5B7BABCBEC096
:10056000C2C4C6C9CBCDCFD1D4D6D8DBDDDFE2E45F
:10057000E7E9EBEEF0F3F5F8FAFDFF0403300000D5
:10058000000A03580044003700350000000C0378CF
:100590000069007500640069000000040309040993
:1005A000023B00020100A0FA09040000010301015E
:1005B0000009211101000122400007058103080004
:1005C0000A090401000103000000092111010001D2
:1005D00022BC000705820320000A1201100100005E
:1005E0000008CDCD75750100010203010501090266
:1005F000A10185020901A1000509190129051500BC
:10060000250195057501810295017503810105019B
:10061000093009311581257F950275088106093851
:100620001581257F950175088106050C0A3802158C
:1006300081257F950175088106C0C005010980A14B
:1006400001850319012AB700150126B70095017528
:10065000108100C0050C0901A101850419012AA01F
:1006600002150126A002950175108100C00501093F
:1006700006A1018505050719E029E7150025019563
:1006800008750181020507190029EF15002501955C
:10069000F07501810205081901290595057501917B
:1006A00002950175039101C005010906A101050725
:1006B00019E029E7150025019508750181029501CA
:1006C000750881010507190029FF150026FF00950F
:1006D0000675088100050819012905950575019120
:1006E00002950175039101C011241FBECFEFDAE01E
:1006F000DEBFCDBF04B603FE27C08091F702909104
:10070000F802A091F902B091FA028730904BA7400D
:10071000B04BD1F41092F7021092F8021092F90245
:100720001092FA0214BE84B7877F84BF0FB6F89484
:10073000A8958091600088618093600010926000AD
:100740000FBEE0E0F8E3099511E0A0E0B1E0EAECCB
:10075000F6E502C005900D92A83CB107D9F722E05A
:10076000A8ECB1E001C01D92A73FB207E1F70E94DB
:1007700063250C94632B0C9400000C9490060C944D
:10078000E3030C9427042A9A0895229A0C94C30335
:100790008F9A0895879A0C94C8038C980895849A28
:1007A0000C94CD038D9A0895859A0C94D2030E94DF
:1007B000C5030E94CA030E94CF030E94D4030C9475
:1007C0008F0681E0089581E008951F93CF93DF9312
:1007D00000D000D01F92CDB7DEB749835A83209155
:1007E000EE0189819A81211112C0662349F00E948D
:1007F000BA1A182F682F89819A810E945F1A03C044
:100800000E948E1A182F69817A81812F04C00E945C
:10081000BA1A69817A810F900F900F900F900F9004
:10082000DF91CF911F910C948B04FC014081518189
:100830006281738184810C94E5030E94EA1B81111B
:1008400002C00E94941C0C94D7030C94BD0308951D
:1008500081E008950C942804CF93C82F0E94C1030F
:100860008C2F0E942A04CF91089508950E94851527
:100870000E9435042FEF84E39CE02150804090409B
:10088000E1F700C000000C940B1E0F931F93CF9351
:10089000DF93EC010E9415048C01BE010E94BF038E
:1008A000882379F1BE01C8010E94A50E882349F171
:1008B000BE01C8010E94E60E882319F1BE01C801DD
:1008C0000E9411108823E9F0BE01C8010E94920D18
:1008D0008823B9F08A81882369F001158CE518070F
:1008E00031F00E3D1C4531F40E94941C0AC00E9458
:1008F000360407C0CE01DF91CF911F910F910C9468
:10090000E10380E0DF91CF911F910F91089580E086
:1009100090E0089508959FE0799FF00111249BE4F1
:10092000899FE00DF11D1124E60FF11DEE0FFF1F51
:10093000EE55FE4F859194910895880F991FFC0103
:10094000EC59FC4F859194910895CF93DF930E94C9
:100950008B040E94B805EC01811520E59207F0F5A3
:10096000811530E4930708F0CDC0883E910500F56D
:10097000803E910508F0F8C0883A910570F4853AF8
:10098000910508F09FC08130910509F4EDC008F48D
:10099000E9C0049708F0E8C0E5C08F3B910508F472
:1009A00099C0803C910508F4DDC0805C91099DC030
:1009B000811540E2940758F4C11581E0D80708F08A
:1009C000D3C0C03FD10508F4CDC0D065CDC08115DE
:1009D00020E3920708F08DC09F7087C0811535E530
:1009E000930708F044C0811544E5940708F0A1C0BE
:1009F000C11582E5D80708F5C11521E5D20708F031
:100A000084C08C2F837021E030E002C0220F331F9E
:100A10008A95E2F73C68CE0174E0969587957A95C1
:100A2000E1F78370382BCF70C695C69580E2C89FDA
:100A3000E0011124C22BD32B97C02C2F269526958D
:100A4000CE0183709927C115D34508F063C040E2F9
:100A5000249F90011124C1E0D0E002C0CC0FDD1F23
:100A60008A95E2F72C2B3D2BE901DC687DC08115CE
:100A700049E59407A0F4C11588E5D80708F05EC0E1
:100A8000C11526E5D20708F06DC08C2F0E944C06D8
:100A90008F71C82FD0E0DC2FCC27D06265C08115C4
:100AA0003AE5930708F44FC090568115904208F03C
:100AB00059C08D2F8F710E944C06DD27D0628F7137
:100AC000D82B52C0C55AD0E0CF5ADE4FC881D0E0F3
:100AD000D0644AC0C85AD0E0CC0FDD1FCD5DDE4FD8
:100AE0000990D881C02DD4643FC00E949D04EC01C0
:100AF0003BC09927D3FF03C0EC01D86C35C0EC0193
:100B0000D06C32C0DF70D06A2FC0DC2FCC27C16F11
:100B1000D06A2AC040E2249F90011124C1E0D0E0B5
:100B200002C0CC0FDD1F8A95E2F7C22BD32BDA6807
:100B30001BC0D82FCC27C46FD06A16C0DC2FCC279F
:100B4000C06FD06A11C08F700E944C0694E0D69599
:100B5000C7959A95E1F7CF70D0E0DC2FCC27D0690C
:100B6000C82B02C0C0E0D0E0CE01DF91CF91089544
:100B70008238910569F1B0F48133910509F46DC0B3
:100B800048F48932910509F463C08A32910509F469
:100B900069C008958533910509F455C089339105DD
:100BA000B9F00895833E910569F138F4803E9105CE
:100BB000B1F0823E910509F10895863E9105A9F1B3
:100BC000873E9105B9F1843E910509F064C023C0C8
:100BD0002091E80220FD4FC021FD4DC00895809175
:100BE000E80280FD44C08091E90280FF44C080910A
:100BF000E80284FD42C083EE4DC08091E80282FF8E
:100C000038C0F5CF8091E80282FD33C08091E902BF
:100C100080FD31C0ECCF8091E90281FF32C080912C
:100C2000E80284FD2AC087EE35C08091E80283FF88
:100C300026C0F5CF8091E80283FD21C08091E902B2
:100C400081FD1FC0ECCF8091E80285FD1CC01DC056
:100C50008091E80285FD19C016C08091E80286FDEA
:100C600016C017C08091E80286FD13C010C089E34A
:100C700011C082EE0FC080EE0DC080E00BC086EE8A
:100C800009C084EE07C089E205C085E303C08AE29B
:100C900001C081E390E008959091E80292FF0DC0B9
:100CA000282F2871283019F4877F846006C0282FE8
:100CB0002471243011F48B7F886093FF0DC0282F9E
:100CC0002871283119F4877E846106C0282F247189
:100CD000243111F48B7E88612091E90220FF0DC040
:100CE000382F3871383019F4877F816006C0382F6B
:100CF0003171313011F48E7F886021FF0DC0282FB3
:100D00002871283119F4877E816106C0282F21714E
:100D1000213111F48E7E886194FD877E08950895B7
:100D20000895E82FF0E0EE0FFF1FEF53FD4F808195
:100D300091810895089580EA8A95F1F70895A3E6D0
:100D4000B1E041E050E025E02A0F8D91E82FE295D7
:100D5000EF70F0E031A18F70BA0102C0660F771F0B
:100D60008A95E2F7CB01962F9095932391A392A1B8
:100D7000892B82A32A13E9CFA4E5B1E041E050E03A
:100D80002FE02A0F8D91E82FE295EF70F0E031A16E
:100D90008F70BA0102C0660F771F8A95E2F7CB0108
:100DA000962F9095932391A392A1892B82A32A1326
:100DB000E9CFE7EBF2E0A1ECB2E0119211921D92C3
:100DC0001D9272E0E13CF707C1F785E00E947F07C2
:100DD0000C941D044F925F926F927F928F929F921C
:100DE000AF92BF92CF92DF92EF92FF920F931F9339
:100DF000CF93DF9383E6A82E81E0B82E07EB12E0B5
:100E0000D12C88248394912C3801D8014D905C908A
:100E100011971D921C92F50181915F01C82FC29517
:100E2000CF70D0E099A18F70740101C0EE0C8A954B
:100E3000EAF7892F8E2989A38AA1CE2CC0948C2110
:100E40008AA30E949B06E4E5F1E080E090E06191D6
:100E5000A62FA295AF70B0E090964C91D8012D913D
:100E60003C9150E06F7002C0559547956A95E2F746
:100E700040FD08C0A401082E02C0440F551F0A946B
:100E8000E2F702C040E050E0242B352BD8012D932F
:100E90003C9301968F309105D1F689A1C822C9A251
:100EA0008AA1E82AEAA20E5F1F4F81E0F3012081A8
:100EB00031814216530609F480E0D82AF2E0013C61
:100EC0001F0709F0A1CF2D2D45E061EC72E087EB03
:100ED00092E00E9480070E9425048D2DDF91CF9122
:100EE0001F910F91FF90EF90DF90CF90BF90AF9048
:100EF0009F908F907F906F905F904F90089508958E
:100F0000FF920F931F93CF93DF93F82E092F162F85
:100F1000D72FC42F222349F081E08093CA010E9479
:100F2000AF1D9093C9018093C8018091CA018823A5
:100F3000D9F08091C8019091C9010E94BB1D06970C
:100F400098F0EF2DF02FA12FBD2F80E090E04C2FD7
:100F500050E08417950734F4219131912D933D93FE
:100F60000196F7CF1092CA01DF91CF911F910F9197
:100F7000FF900895AF92BF92CF92DF92FF920F93AE
:100F80001F93CF93DF93D62E372FE82FF0E0711108
:100F900006C0E558FB4F6491762F862F75C0C72F8A
:100FA000D0E0E558FB4F2491F22E022F10E046E0EE
:100FB000649FC0011124EFEFF0E0BF010E94D42A2A
:100FC000AB016BEA6403C001659F900D11248D0D88
:100FD000911D8D0D911D982F990F890FDF01AC1B6D
:100FE000BD0B0A9FB0010B9F700D1A9F700D11244D
:100FF000972F839FD0011124AB2FBB276F01CA1AF3
:10100000DB0A0C9DD0010D9DB00D1C9DB00D11246F
:101010005F01A81AB108AC9E6001AD9ED00CBC9EC9
:10102000D00C1124CD2DDD27EC1BFD0B0E9FE00114
:101030000F9FD00D1E9FD00D1124ED2F4230510572
:1010400091F04CF441155105E1F041305105B9F4EE
:10105000E22F2B2F16C04430510569F044F0463082
:10106000510579F00CC0E22F272F9D2F0AC0272FA2
:101070009F2DEB2F06C0E72F922F2D2F02C0E72FB9
:101080009B2F6E2F722F892FDF91CF911F910F9180
:10109000FF90DF90CF90BF90AF9008950895CF93C9
:1010A000DF93762FE901682F842F0E94BA07798396
:1010B00068838A83DF91CF9108958091CB02282F96
:1010C000269530E02115310519F48170826005C044
:1010D0002532310524F0817088648093CB02089515
:1010E00088E090E00C94232BCF93DF9300D000D0C6
:1010F000CDB7DEB7AB01BC0149835A836B837C83D8
:101100000E945D0849815A816B817C8188E090E072
:101110000F900F900F900F90DF91CF910C94412B77
:10112000EBECF2E083E0808311828FEF8283838394
:10113000148260817181828193810C947408809102
:10114000CB0280FF02C08695089580E008958091CB
:10115000CF02833018F48F5F8093CF026091CB026F
:101160007091CC028091CD029091CE020C947408C3
:101170008091CF02882319F081508093CF02609133
:10118000CB027091CC028091CD029091CE020C9452
:1011900074086091040170E08091CB0280FF0AC066
:1011A0008091CF0123E0829FC001112480539D4F85
:1011B0000C94350E8091CE0190910301891780F730
:1011C000E82FF0E09F01220F331FE20FF31FE053DF
:1011D000FD4F1182108212828F5FF0CF9091CB026F
:1011E00090FF16C09091CE0120910301921770F4E8
:1011F000E92FF0E0DF01AA0FBB1FEA0FFB1FE0534E
:10120000FD4F8183608342839F5FF0CF0C94C908B8
:101210000895CF93DF9300D01F92CDB7DEB79091A2
:10122000CB0290FF0AC09E012F5F3F4F0E944F08E4
:101230004B8169818A810E94EE080F900F900F9078
:10124000DF91CF910895CF93DF93EC01EC81F0E033
:10125000EA58FC4F4491EBECF2E0628181810E94FC
:1012600009098C818F5F8C83DF91CF910895CF9393
:10127000DF93EC01EBECF2E0438162818C810E9410
:1012800009098C818F5F8C83DF91CF9108950F9333
:101290001F93CF93DF9300D01F92CDB7DEB78C01A1
:1012A0008091CB0181110AC09E012F5F3F4F4FEF0C
:1012B0006FEF0E944F088A818093CB01F8018481EF
:1012C000813051F028F0823061F44091CB010AC0A6
:1012D0008091CB0140E007C06091CB0140E080E00D
:1012E00003C040E080E060E00E94EE08F801248145
:1012F00030E0C901019663E070E00E94E82A84832F
:101300000F900F900F90DF91CF911F910F91089543
:10131000AF92BF92CF92DF92EF92FF920F931F9303
:10132000CF93DF9300D01F92CDB7DEB7182FF62EE4
:10133000042FE22E9091CB0290FF6EC0E92FE6952C
:10134000AE2FB0E0A859BE4F8C918093D7019E7FFD
:10135000923061F49E012F5F3F4F812F0E944F0812
:101360004B8169818A810E94EE0844C0823019F461
:101370000091CE023FC0863019F41091CC023AC0E1
:101380008930D9F38931B1F5E9518E2F8170D82E8A
:10139000E695F0E0EA58FB4FA590B490C12CBB2431
:1013A00060910201C61620F5EC2DF0E0EA9DC00127
:1013B000EB9D900DFA9D900D112470E00E94D42AAF
:1013C000812FD11002C0860F01C0861B9091CE01E3
:1013D000E90FF11D9F01220F331FE20FF31F9F0141
:1013E00020533D4F402F6F2D0E944F08C394D8CFFC
:1013F0000E94C9081093CC02F092CD020093CE0255
:10140000EE2051F06091CB027091CC028091CD0220
:101410009091CE020E9474080F900F900F90DF9170
:10142000CF911F910F91FF90EF90DF90CF90BF90E1
:10143000AF900895EBECF2E09181282F4381628117
:101440008CE0890F0C94880981E00C941A0AEBEC6B
:10145000F2E09181282F4381628184EF890F0C94FF
:10146000880981E00C94270AEBECF2E0628129E123
:10147000620F08F46FEF282F438181810C94880953
:1014800081E00C94340AEBECF2E0628129E1621B0A
:1014900008F460E0282F438181810C94880981E061
:1014A0000C94430AEBECF2E043812CE0420F08F489
:1014B0004FEF282F628181810C94880981E00C9480
:1014C000520AEBECF2E043812CE0421B08F440E0CE
:1014D000282F628181810C94880981E00C94610A33
:1014E00020E00C948809FF920F931F93CF93DF9312
:1014F000EC01F12C0FEF10E060910201F616E8F418
:101500002091CE0130E02F0D311DC901880F991FA8
:10151000280F391F20533D4F70E0C8010E94E82A70
:10152000962F8C814091CE026091CD02F99E800D64
:1015300011240E944F08F394DFCF0E94C9089A81BA
:101540008C8190FF02C08F5F01C081508C83DF913E
:10155000CF911F910F91FF900895AF92BF92CF92BC
:10156000DF92EF92FF920F931F93CF93DF93FC01D3
:10157000828180FF02C00FEF01C001E010E046E071
:10158000A42E80910201181708F043C0C12ED12C5F
:101590008091CE01E601C80FD11DCE01880F991FA1
:1015A000C80FD91FC053DD4F198218821A8234E048
:1015B000E32EF12CB12C8091CD018B0D87302CF0D6
:1015C0006A2D0E94C62A892F05C087FF03C090910B
:1015D0000201890F082E000C990BC816D90691F448
:1015E0008091CE028E9DA0018F9D500D11245595A6
:1015F0004795559547959E016091CD028091CC020B
:101600000E944F08B00EF1E0EF1AF108A1F61F5F3B
:10161000B8CF0E94C9088091CD01013031F4811109
:1016200002C080910201815007C090E00196609154
:10163000020170E00E94E82A8093CD01DF91CF91F2
:101640001F910F91FF90EF90DF90CF90BF90AF90E0
:101650000895CF938091CE0190910301891770F482
:10166000E82FF0E09F01220F331FE20FF31FE0533A
:10167000FD4F1182108212828F5FF0CFC0E0609127
:101680000201C617B8F5EC2FF0E070E0CF010E9420
:10169000E82A4091CE01480F8091CC01082E000C21
:1016A000990B50E0E817F907C4F020910101022ED0
:1016B000000C330B2E173F0784F09A01220F331FC3
:1016C000240F351F20533D4F4091CE026091CD0233
:1016D0008091CC020E944F080BC0FA01EE0FFF1F51
:1016E0004E0F5F1FFA01E053FD4F118210821282EC
:1016F000CF5FC5CF0E94C908209100018091CC0125
:10170000820F8093CC0190910101920F909301017F
:1017100019165CF4082E000C990B4091020150E060
:1017200041505109841795071CF021952093000121
:10173000CF9108950F931F93CF93DF938C01FC01FA
:101740008481958101968170992795838483C0E077
:10175000D5E580910201C817F8F42091CE0130E060
:101760002C0F311DC901880F991F280F391F2053D5
:101770003D4F4C2F4695F80184819581840F911D32
:1017800081704091CE026091CD028D9F802D1124F9
:101790000E944F08CF5FDDCFDF91CF911F910F9156
:1017A0000C94C9080F931F93CF93DF93EC0100E0D3
:1017B00010E080910201282F30E00217130724F572
:1017C0009091CE019801290F311DA901440F551F99
:1017D000240F351F20533D4F869590E04C8108170C
:1017E00019071CF4442331F002C0411103C0409199
:1017F000CE0201C040E06091CD028091CC020E94F7
:101800004F080F5F1F4FD5CF0E94C9082C8130E0D1
:101810002F5F3F4F217033272C83DF91CF911F9192
:101820000F910895EBECF2E080818E7F80836081E0
:101830007181828193810E9474081092D8012FEFE8
:1018400080E792E0215080409040E1F700C0000026
:101850000C94C9086091CB02669570E04BE050E0B3
:1018600085E091E00E940E2B892B19F481E0809392
:10187000D8010E94AF1D9093D1018093D0010895AB
:101880009091CB0290FF35C09170811102C092609F
:1018900006C0853210F0986402C0880F982B909390
:1018A000CB02662351F06091CB027091CC02809103
:1018B000CD029091CE020E9474086091CB02669591
:1018C00070E04BE050E085E091E00E940E2B892B08
:1018D00019F01092D80102C00E942A0C81E0809376
:1018E000D3014091CE026091CD028091CC020C9444
:1018F000700A0895682F9091CB02969581E0890F28
:10190000853208F081E00C94400C81E00C947A0C54
:10191000682F9091CB0296958FEF890F09F484E29E
:101920000C94400C81E00C94880C61E00C94400C09
:10193000EBECF2E080818160808386950C94950CBD
:101940008091CB0280FD0C94120C0C94980C60E0FA
:101950000C94400C8091D60181112EC00E94EA1B8C
:10196000811104C00E94941C0E9490080E9470087B
:101970006093CB027093CC028093CD029093CE0201
:101980006E7F61F40E9490080E9470086093CB0201
:101990007093CC028093CD029093CE020E945D089A
:1019A0001092D8018091CB0280FF03C086950E94DF
:1019B000A70C81E08093D60108950F931F93CF93D6
:1019C000DF938091D801882309F48CC08091D701DE
:1019D000E091CB02E695E81BE093D201823049F416
:1019E000F0E0EE58FC4FE491CE2FD0E003E219E096
:1019F00049C0863049F4F0E0E159FC4FE491CE2F24
:101A0000D0E007E319E03EC0893051F4E695F0E0FC
:101A1000E459FC4FE491CE2FD0E003E71AE032C046
:101A20008F3051F4E695F0E0E759FC4FE491CE2F6A
:101A3000D0E00DEA1AE026C0853149F4F0E0EA5919
:101A4000FC4FE491CE2FD0E009E21BE01BC08831AF
:101A500081F0833239F4E4E6F3E0C591D49107E4F0
:101A600019E010C0843251F4C4EFD1E002ED1BE064
:101A700009C0C8EED3E00AE91BE004C0C0EDD7E01E
:101A80000EE418E08091D301882389F01092D301ED
:101A90000E94AF1D9E0120953095820F931F909359
:101AA000D1018093D0011092D5011092D401809180
:101AB000D0019091D1010E94BB1D8C179D0790F021
:101AC000E091D001F091D101CE0FDF1FD093D10171
:101AD000C093D00180ED91E0F801DF91CF911F918B
:101AE0000F910994DF91CF911F910F910895882351
:101AF00011F0FA0101C0FB010994CF93DF93C82FC5
:101B0000D62F0E949F088C1740F00E949F088D17C7
:101B100020F4DF91CF910C94850C8C2FDF91CF9125
:101B20000C94950C0F931F93CF93FB01C281CC2390
:101B300009F463C08C010E943A1B8272F801E25CD6
:101B4000FC45E431F10508F059C0EA5AFF4F0C9406
:101B5000FC2A0E94A00C06C042E95CE065E87CE03B
:101B60000E94770DC0E04AC045E85CE062E97CE095
:101B7000F7CF41E35AE064E27AE0F2CF44E25AE080
:101B800061E37AE0EDCF4FE45AE060E47AE0E8CF39
:101B900040E45AE06FE47AE0E3CF4DE65AE06EE5C8
:101BA0007AE0DECF4EE55AE06DE67AE0D9CF48EB39
:101BB00058E067EA78E0D4CF47EA58E068EB78E08D
:101BC000CFCF81E017C065E082E010C068E086E01A
:101BD0000DC06EE089E00AC064E18FE007C067E1F4
:101BE00085E104C088E106C062E289E10E947D0DC2
:101BF000B9CF83E20E94950CB5CFC1E08C2FCF9175
:101C00001F910F91089521B3342F3095232331B3C1
:101C1000432B3FB7F894FC01680F791FE617F707CD
:101C200089F0819198E041BB000000C087FF21BB93
:101C3000880F000000C000C000C021BB00C09A9502
:101C400091F7ECCF3FBF089520B3242B20BB9B011D
:101C5000220F331F620F731F0E94030E87EC90E068
:101C60000197F1F700C00000089540E40C94240EA1
:101C70000F931F93CF93DF93C62FD42F022FFC0116
:101C800082818823C9F06093DB010E94AF1D90938D
:101C9000DA018093D90180E28C0F883008F050C0BF
:101CA000C77081E001C0880FCA95EAF7DF91CF9134
:101CB0001F910F910C94D4121091DB01161330C0B8
:101CC0008091D9019091DA010E94BB1D883C910559
:101CD00038F5C0E2CD0F1D17B9F080E2810F8830D2
:101CE00040F4177081E001C0880F1A95EAF70E944E
:101CF000DB12C83048F481E09D2F977001C0880F37
:101D00009A95EAF70E94D412802F0E94C112C8301F
:101D1000B8F4D77081E001C0880FDA95EAF70AC0FD
:101D200080E28C0F883060F4C77081E001C0880FBA
:101D3000CA95EAF7DF91CF911F910F910C94DB12B6
:101D4000DF91CF911F910F9108959C01CB01233F0B
:101D50004CE53407F9F078F4283DFCE53F07B9F08D
:101D6000293D4CE5340711F1273D3C4531F526E28C
:101D700041EE61EE1EC0253FFCE53F0799F070F093
:101D8000263F3C45D1F427E245EE66EE12C027E23D
:101D900045EE0EC026E241EE60EE0BC027E245EEB6
:101DA00064EE07C026E241EE62EE03C028E241E0A5
:101DB00065EE0E94380E80E00895FC018281882340
:101DC00019F01092DB01089581E00895CF93DF931D
:101DD000EC01FB018281882309F41FC1C230FCE5BC
:101DE000DF0708F41BC1C6319CE5D90738F09E0116
:101DF0002A5F3C452930310508F010C10E94071CBC
:101E00009093E9028093E802C031ECE5DE0709F423
:101E1000C3C008F041C0C8308CE5D80709F49AC0A7
:101E2000F0F4C430ECE5DE0709F487C068F4C23092
:101E30008CE5D80709F477C0C330DC4509F0E3C06E
:101E40008091E802826076C0C630ECE5DE0709F4D6
:101E50006EC008F07BC08091E80288606BC0CC3017
:101E60008CE5D80709F485C068F4CA30ECE5DE07D4
:101E700009F474C008F079C00E9485158091E802C9
:101E8000806858C0CE308CE5D80709F476C008F0D9
:101E90007FC08091E8028BC0CB3FECE5DE0709F400
:101EA0004FC018F5C3318CE5D80709F47DC078F42C
:101EB000C131ECE5DE0709F473C0C231DC4509F03D
:101EC000A2C00E9485158091E8028F7733C0C5318A
:101ED0008CE5D80709F472C008F486C0CA3FDC4517
:101EE00009F091C08091E9023EC0CF3FFCE5DF07D9
:101EF00009F45FC058F4CD3F9CE5D90709F444C00C
:101F000008F43FC08091E90282602DC0C130FDE538
:101F1000DF0709F475C008F45DC0C230DD4509F083
:101F200072C080E06EC08091E802816003C0809141
:101F3000E80280618093E80266C08091E80211C0E7
:101F40008091E90282608093E9025DC08091E8029D
:101F50008062F0CF8091E8028064ECCF8091E8024B
:101F600088608460E7CF8160EECF8091E8028E7F49
:101F7000E1CF8091E8028D7FDDCF8091E802877FFD
:101F8000D9CF8091E90218C08091E9028D7FDBCF23
:101F90008091E8028F7ECECF8091E8028F7DCACFFC
:101FA0008091E8028F7BC6CF8091E802877F8B7F8C
:101FB000C1CF8091E9028D7F8E7FC5CF8091E802ED
:101FC00082FB222720F991E0922790FB82F990FB77
:101FD00083F9B0CF8091E902982F909591708E7F10
:101FE000892B90FB81F9AFCF0E9485158091E80283
:101FF00087FB222720F991E0922790FB87F99ACF5F
:1020000081E00E94961C8091E8029091E9020E9472
:10201000181C0E94851580E001C081E0DF91CF91FE
:102020000895CF93DF9386319C4541F5EB010E94E3
:102030003A1B282F8A814091100150911101882369
:1020400079F02A7A91E009F490E09093DC01911103
:1020500002C069E201C065E3CA010E94001D0AC016
:102060008091DC01811102C069E201C065E3CA010F
:102070000E940B1D0E94861B80E001C081E0DF9161
:10208000CF9108959093E2018093E1010895E0914A
:10209000E101F091E201309721F00190F081E02D13
:1020A000099480E00895E091E101F091E201309718
:1020B00099F020912201222359F02091E80227FF74
:1020C00007C0DC012C9111962C93119725E02C93DD
:1020D0000280F381E02D09940895E091E101F091EF
:1020E000E201309739F022E0DC012C930480F58185
:1020F000E02D099408952091DF013091E0018217CD
:10210000930771F09093E0018093DF01E091E1018A
:10211000F091E201309721F00680F781E02D0994DB
:1021200008952091DD013091DE018217930771F04F
:102130009093DE018093DD01E091E101F091E201F5
:10214000309721F00084F185E02D0994089585B73A
:10215000806885BF85B7806885BF08950895089514
:102160000C94AF1008950C94B2100E94A7100E9416
:10217000AE100C94B01081E008950E94A61D0E943C
:102180009F060E947B1E0E94AA0C0C94B3107F92A3
:102190008F929F92AF92BF92CF92DF92EF92FF9277
:1021A0000F931F93CF93DF93CDB7DEB72A970FB668
:1021B000F894DEBF0FBECDBF0E94EA060E94BB109E
:1021C000811111C08FEF89838A831B820E94AF1D0A
:1021D0008160782F9D838C8349815A816B818D81A9
:1021E0000E9479114FC034EE832E31E0932E00E02F
:1021F00010E0702E802F0E9491066C01F401A190D6
:10220000B1904F01A826B926A114B10431F40F5F93
:102210001F4F0530110569F7D5CF8091860281FDEA
:102220000E949A0690E0EE24E394F12C97012A2173
:102230003B21232B09F19E837F82CE20DF2091E07A
:10224000CD2809F490E098870E94AF1D8160782F17
:102250009A8789874E815F8168858A850E94791176
:10226000000F111FF801EC51FE4F80819181E8268B
:10227000F926F182E08206C09F5FEE0CFF1C9F30C2
:10228000A9F6C5CF0E94DD0C0E942F211091E30119
:102290000E9447101817C9F00E9447108093E3016D
:1022A0002A960FB6F894DEBF0FBECDBFDF91CF9157
:1022B0001F910F91FF90EF90DF90CF90BF90AF9064
:1022C0009F908F907F900C942C042A960FB6F894D0
:1022D000DEBF0FBECDBFDF91CF911F910F91FF9059
:1022E000EF90DF90CF90BF90AF909F908F907F90B6
:1022F0000895CF93DF93CDB7DEB72B970FB6F89441
:10230000DEBF0FBECDBF4F83588769877A878B8723
:10231000DE01119686E0FD0111928A95E9F785E0CC
:10232000FE01379601900D928A95E1F749815A8115
:102330006B817C818D819E810E942F182B960FB618
:10234000F894DEBF0FBECDBFDF91CF910895FC01A1
:10235000808191810E94FB1A0895CF93DF931F9291
:10236000CDB7DEB7882309F4A0C0682F8238C1F446
:102370000E94471081FD99C069E3809110019091FE
:1023800011010E94001D0E94861B2FEF81EE94E038
:10239000215080409040E1F700C0000069E319C07F
:1023A000833811F50E94471080FD7FC063E580915E
:1023B0001001909111010E94001D0E94861B2FEFB9
:1023C00081EE94E0215080409040E1F700C0000091
:1023D00063E580911001909111010E940B1D0F90F7
:1023E000DF91CF910C94861B8438C1F40E94471072
:1023F00082FD5BC067E480911001909111010E9401
:10240000001D0E94861B2FEF81EE94E0215080403A
:102410009040E1F700C0000067E4DBCF8CEF860F4F
:10242000813A70F4862F69830E9438236981811173
:102430003CC080911001909111010E94001DCFCFEE
:1024400080E2860F883048F4677081E001C0880F11
:102450006A95EAF70E943D1BC2CFEBE5E60FE33039
:1024600050F4F0E0E554FE4F808190E00F90DF9152
:10247000CF910C947B10E8E5E60FE73160F4F0E0D3
:10248000EE0FFF1FE357FE4F808191810F90DF9188
:10249000CF910C949110603F40F0862F0E9437201E
:1024A0000F90DF91CF910C9424210F90DF91CF9169
:1024B0000895882309F464C0823879F40E94471093
:1024C00081FF5EC069E380911001909111010E942B
:1024D000001D0E94861B69E310C08338B1F40E947E
:1024E000471080FF4DC063E580911001909111016C
:1024F0000E94001D0E94861B63E58091100190914F
:1025000011010E940B1D0C94861B843879F40E94E3
:10251000471082FF35C067E480911001909111014E
:102520000E94001D0E94861B67E4E7CF9CEF980F76
:10253000913A10F4682FE1CF90E2980F983050F460
:10254000877091E001C0990F8A95EAF7892F0E9460
:10255000431BD9CF9BE5980F933020F480E090E0A7
:102560000C947B1098E5980F973120F480E090E070
:102570000C949110803F20F00E949F200C94242105
:102580000895CF93C82F0E94AD11C93349F42FEF9E
:1025900087EE93E0215080409040E1F700C00000BA
:1025A0008C2FCF910C945912882321F00E943D1B4F
:1025B0000C94861B0895882321F00E94431B0C94E1
:1025C000861B0895BF92CF92DF92EF92FF920F93F6
:1025D0001F93CF93DF937C01062FC72FFC0115813A
:1025E00012951F70D281D1110E945A1B0E94331B79
:1025F000882379F0DD2369F080E2800F883048F08D
:1026000082E00E94D11B0E94331B91E0B82EB926B4
:1026100001C0B12CCC2EC2948FE0C822D12CF6017F
:10262000E659FF4F0C94FC2A8C2F807FCF708823B3
:1026300011F0C295C07FDD2399F0CC2309F4CEC1FF
:1026400080E2800F883010F0011104C08C2F0E94AE
:102650003D1B03C08C2F0E944D1B0E94861BBEC1D8
:10266000802F0E945912CC2309F4DDC180E2800F33
:10267000883010F0011104C08C2F0E94431B03C04E
:102680008C2F0E94531B0E94861BCDC18C2F807FF4
:10269000CF70803211F0C295C07F002319F0013055
:1026A000C9F022C0DD2371F0112341F0113031F463
:1026B0000E946D1B8C2B0E94731BB5C10E946D1B69
:1026C0008C2B1DC0112319F0113009F4ACC10E94EC
:1026D0007C1B25C0DD2321F0163008F0A4C10EC0FC
:1026E000153008F0A0C11BC0DD2361F0112331F0CB
:1026F000F701858180FF72C18F7085838C2F0E94C6
:10270000D41291C1112359F0093309F078C1FFEFB8
:1027100027EE83E0F15020408040E1F76EC18C2F1E
:102720000E94DB1280C18C2F86958695837090E085
:10273000009719F0019761F076C1DD2321F0802F19
:102740009C2F937002C080E090E00E947B1076C1C5
:10275000DD2321F0802F9C2F937002C080E090E059
:102760000E9491106BC1DD23F9F0053F51F0063F47
:1027700071F0043FA9F48091E2029091E30281603C
:102780000BC08091E2029091E302826005C08091CB
:10279000E2029091E30284609093E3028093E2026C
:1027A000802F0E9437201EC0053F51F0063F71F078
:1027B000043FA9F48091E2029091E3028E7F0BC066
:1027C0008091E2029091E3028D7F05C08091E20248
:1027D0009091E3028B7F9093E3028093E202802F3B
:1027E0000E949F200E94242129C18C2F837009F010
:1027F00049C0D1111FC1402F429546954770440FE3
:10280000440F602F6F70862F90E0A0E0B0E0042EA0
:1028100004C0880F991FAA1FBB1F0A94D2F704FF98
:1028200010C00FE010E020E030E004C0000F111FE6
:10283000221F331F4A95D2F70095109520953095A9
:1028400003C000E010E09801C695C695C370D0E0C3
:10285000BC01CD01602B712B822B932BC230D10593
:1028600059F0C330D10559F0219719F00E9474191D
:10287000E1C00E946219DEC00E948619DBC00E947E
:102880006019D8C0DD2319F08C2F817001C08695A6
:10289000882309F4CFC0402F429546954770440FD6
:1028A000440F602F6F70862F90E0A0E0B0E0042E00
:1028B00004C0880F991FAA1FBB1F0A94D2F704FFF8
:1028C00010C00FE010E020E030E004C0000F111F46
:1028D000221F331F4A95D2F7009510952095309509
:1028E00003C000E010E09801C695C695C370D0E023
:1028F000BC01CD01602B712B822B932BC230D105F3
:1029000059F0C330D10559F0219719F00E943A1AB5
:1029100091C00E94281A8EC00E944C1A8BC00E943F
:102920009B1988C0CF70DD2339F08C2F0E94C1190C
:10293000802F0E94D4127EC0802F0E94DB128C2F29
:102940000E94E21977C0023F01F128F4003F41F0F4
:10295000013FA1F03FC0033FF9F0043F39F13AC015
:10296000DD2341F0153008F05EC08C2F8F710E947E
:10297000071A59C0163008F056C0F7CFDD2339F0DA
:102980008C2F8F710E94C1194EC0DD23C9F38C2F8B
:102990008F710E94E21947C0DD2329F08C2F8F71BF
:1029A0000E94AC1940C00E94A7193DC0DD2349F028
:1029B000CF718C2F0E94C11963E08C2F0E94BC1B29
:1029C00032C081E00E94D11B123068F182E00E9487
:1029D000D11B29C0DD2331F0112391F2802F0E94F9
:1029E000AD1121C0112399F2093349F49FEFE7EEAD
:1029F000F3E09150E040F040E1F700C00000802F8C
:102A00000E94591210C04C2F4F70602FC7010E94B6
:102A100087040E94D31812C04C2F4F70602FC7013B
:102A20000E948A040BC028E0C21AD10884E0C816AC
:102A3000D10420F40E9447100E942C04BB20D1F046
:102A40000E942F1B80FD16C0F70112820E94291BD5
:102A50000E94C119C7010E9444150E94291BDF91E1
:102A6000CF911F910F91FF90EF90DF90CF90BF908B
:102A70000C94E219DF91CF911F910F91FF90EF908D
:102A8000DF90CF90BF9008950F931F93CF93DF9364
:102A9000EC01888199812B813C81232BB9F09F3FE8
:102AA00011F48F3F99F0CE010E944504882371F004
:102AB000688179818A810E94061B8C010E945E1ABE
:102AC0000E945F19B801CE010E94E212DF91CF91FE
:102AD0001F910F9108950E945A1B0E946A1B0E9429
:102AE000861B0E94CA210E94242180E090E00E945F
:102AF0007B1080E090E00C949110809110019091F7
:102B000011010E94161D0C946B150E944A1B0C9417
:102B10007D15E92FE295EF70F0E03297EE30F10588
:102B2000B0F4E658FF4F0C94FC2A803F91F018F463
:102B3000883E68F40EC0843F51F40BC0883E48F0D4
:102B4000813F29F406C093FB882780F9089580E02F
:102B5000089581E008950E94FB1A0E948915089546
:102B6000CF93DF9300D000D01F92CDB7DEB70F9088
:102B70000F900F900F900F90DF91CF910895CF930A
:102B8000DF9300D000D000D0CDB7DEB726960FB6C9
:102B9000F894DEBF0FBECDBFDF91CF9108951F9394
:102BA000CF93DF93C091EF0116E08091F001C81739
:102BB00099F0D0E01C9FF0011D9FF00D1124EF5003
:102BC000FE4F4081518162817381848195810E9491
:102BD000BF152196C770E9CFDF91CF911F9108955E
:102BE00040912102509122026091230270912402AF
:102BF00080912502909126020C94BF1580912602A7
:102C000082958F7009F054C080912302882309F4C3
:102C10004FC08091EF01A091F0016091210270916D
:102C200022024091240250912502B6E08A1709F44D
:102C30003FC090E041155105C1F17F3F11F46F3F56
:102C4000A1F1B89FF001B99FF00D1124EF50FE4F94
:102C5000218172132AC02081621327C02281211191
:102C600024C0238134812417350710F42150310901
:102C7000241B350B283C3105C0F4209126022F700F
:102C800020612093260226E0289FF001299FF00D65
:102C90001124EA50FE4F80818F708061808381E231
:102CA00092E00E9444150C94CF1501968770BECF18
:102CB0000895CF92DF92EF92FF920F931F93CF93DD
:102CC000DF93CDB7DEB762970FB6F894DEBF0FBEC5
:102CD000CDBF8C0185E0F801DE011D9601900D92BB
:102CE0008A95E1F7D8014C9111965C911197129653
:102CF0006C9112971396CD90DC901497309121022D
:102D0000709122028091240290912502009709F48B
:102D10006BC17F3F19F43F3F09F466C1E090230285
:102D2000EE2009F4C0C020912602C816D90628F06A
:102D3000F601E81BF90BCF0104C0809590958C0D2E
:102D40009D1DFF24F394883C910578F0F12C207FA1
:102D500009F0C6C07C2DD98AC88A89890E94B0151D
:102D600081E292E00E944415B1C0822F807F09F079
:102D700046C0751314C0341312C0611110C02F70F7
:102D80002061209326020E94F01581E292E00E94C9
:102D9000441580912602D80115968C932EC0CD281B
:102DA00019F15F3F11F44F3FF9F0F62E61111CC08D
:102DB0008091EF012091F00136E0821709F45AC0AA
:102DC00090E0389FF001399FF00D1124EF50FE4F35
:102DD0007181571306C07081471303C0728171114E
:102DE00003C001968770E9CFF62E662309F427C148
:102DF00080912602816080932602F12C20C17513F8
:102E000008C0341306C0611104C080912602D801A5
:102E1000C3C04D875E878D859E856A8B0E94AB15EA
:102E20006A898823E1F16623D1F120912602822F5D
:102E300082958F7090E0029774F0809121029091BA
:102E4000220298878F831986DB86CA862C87CE015B
:102E500007960E94441586E0F801A1E2B2E00190D5
:102E60000D928A95E1F70E94FE150E94F015FF244D
:102E7000F394E5C04D875E878D859E850E94FB1A81
:102E8000292F22952F7030E0223031050CF0CBC075
:102E90009F7009F0C5C0805E883008F4D0C0C801BA
:102EA0000E944415E4CFC816D90608F453C0F601B1
:102EB000E81BF90BCF01883C910508F450C0F12CB8
:102EC0007C2DD98AC88A89890E94B015E1E2F2E096
:102ED00086E0DF011D928A95E9F70E94F015AFC0E8
:102EE000751314C0341312C0611110C080912602F2
:102EF000F8018583C8010E94441586E0E1E2F2E012
:102F0000DF011D928A95E9F7FE2C99C04D875E87F7
:102F10008D859E856A8B0E94AB156A89882309F48A
:102F2000BECF662309F4BBCF20912602822F829563
:102F30008F7090E002970CF48ECF809121029091D7
:102F400022029A8389831B82DD82CC822E83CE016A
:102F500001967FCF809590958C0D9D1DACCFF62E60
:102F6000662309F49CCF75132EC034132CC0209116
:102F7000260220FD1FC0822F82958F70D9F0D801C4
:102F800015962C9315978F3049F08F5F982F929557
:102F9000907F822F8F70892B15968C93C8010E9489
:102FA000441586E0F801A1E2B2E001900D928A9505
:102FB000E1F793CF86E0F801A1E2B2E001900D9233
:102FC0008A95E1F73CC04D875E878D859E850E947E
:102FD000AB15811140CF809126028160809326023B
:102FE000C8010E9444152BC0662309F458CF4D87B1
:102FF0005E878D859E850E94AB15F82E882309F487
:103000004ECF86E0F801A1E2B2E001900D928A95E0
:10301000E1F781E292E00E94A7110E94FE155DCFC8
:10302000811139CF0CC0243031050CF038CF9F709E
:1030300009F431CFF8019581907F09F02CCF8F2DC5
:1030400062960FB6F894DEBF0FBECDBFDF91CF9171
:103050001F910F91FF90EF90DF90CF9008951F93F5
:10306000CF93DF93CDB7DEB72C970FB6F894DEBFC2
:103070000FBECDBF4F83588769877A878B879C8720
:10308000CE0107960E945916882369F08F81988592
:103090002A853B85232BF1F19F3F09F063C08F3FC9
:1030A00009F060C037C086E0FE013796DE01119658
:1030B00001900D928A95E1F76F817885EA85FB850D
:1030C000309741F17F3F11F46F3F21F12091F001E2
:1030D00030E0C9010196877099274091EF0150E0D7
:1030E0008417950709F447C069837A83FD83EC83CD
:1030F00096E0929FD001939FB00D1124AF50BE4F28
:10310000FE01319601900D929A95E1F78093F001BE
:103110000E94CF1516E08091EF019091F001891780
:10312000C1F1189FC00111248F509E4F0E94591663
:10313000882379F1E091EF011E9FF0011124EF50F7
:10314000FE4F4081518162817381848195810E940B
:10315000BF158091EF0190E00196877099278093C9
:10316000EF01D9CF4F81588569857A858B859C85FC
:103170000E94BF15CFCF0E9485151092F0011092CA
:10318000EF01E1E2F2E086E0DF011D928A95E9F7C6
:10319000C1CF2C960FB6F894DEBF0FBECDBFDF9126
:1031A000CF911F910895EF92FF920F931F93CF93AA
:1031B000DF938C01892B09F46CC0F12CEE24E3948D
:1031C000E8012196F8018491843740F4843008F0B6
:1031D00051C0813081F0823019F15BC0853709F42C
:1031E00044C0A8F19CE7980F903708F052C08F7741
:1031F0000E94591241C00E5F1F4FFE01C49180E230
:103200008C0F883048F4C7708E2D01C0880FCA9586
:10321000EAF70E945D1B14C08C2F0E94AD112DC0D7
:103220000E5F1F4FFE01C49180E28C0F883058F46E
:10323000C7708E2D01C0880FCA95EAF70E94631BE4
:103240000E94861B1AC08C2F0E94591216C00E5F56
:103250001F4FFE01C491CC2381F08FE99FE00197BD
:10326000F1F700C00000C150F6CF0E5F1F4FFE0106
:10327000F49003C00E94AD118E018F2D882309F4B4
:103280009FCFEFE9FFE03197F1F700C000008150D8
:10329000F5CFDF91CF911F910F91FF90EF9008959F
:1032A00008950C9450190E94511960935D02709317
:1032B0005E0280935F02909360020C946B150895F8
:1032C0000C9453190F931F9300915D0210915E02AD
:1032D00020915F0230916002602B712B822B932B27
:1032E0001F910F910C9453190F931F9300915D023E
:1032F00010915E0220915F02309160026023712381
:10330000822393231F910F910C9453190F931F93B2
:1033100000915D0210915E0220915F023091600287
:1033200060277127822793271F910F910C945319BF
:1033300008950C9498190E949919609359027093FA
:103340005A0280935B0290935C020C946B1560E0D0
:1033500070E0CB010C949B190F931F9341E050E058
:1033600060E070E08A019B0104C0000F111F221F62
:10337000331F8A95D2F7C901B8011F910F910C94A0
:103380009B190F931F9341E050E060E070E004C090
:10339000440F551F661F771F8A95D2F780915902F7
:1033A00090915A02A0915B02B0915C028A019B014C
:1033B000082B192B2A2B3B2BC901B8011F910F9108
:1033C0000C949B190F931F9341E050E060E070E074
:1033D00004C0440F551F661F771F8A95D2F740958A
:1033E0005095609570958091590290915A02A091E4
:1033F0005B02B0915C028A019B01082319232A23F6
:103400003B23C901B8011F910F910C949B190F9395
:103410001F9341E050E060E070E004C0440F551F8E
:10342000661F771F8A95D2F78091590290915A02B0
:10343000A0915B02B0915C028A019B0108271927C9
:103440002A273B27C901B8011F910F910C949B19A2
:103450000F931F930091590210915A0220915B0221
:1034600030915C02602B712B822B932B1F910F915B
:103470000C949B190F931F930091590210915A02BB
:1034800020915B0230915C0260237123822393239D
:103490001F910F910C949B190F931F930091590248
:1034A00010915A0220915B0230915C0260277127D3
:1034B000822793271F910F910C949B1908952FE059
:1034C000929F800D1124A82FA695A695A69587708A
:1034D00051E001C0550F8A95EAF785E0A89FD00119
:1034E000112420E030E070E0F901EA0FFB1FE95DF4
:1034F000FD4F4081CB01022E02C0969587950A941C
:10350000E2F781709927819584278523842780831A
:103510002F5F3F4F2530310539F708952FE0929FF7
:10352000800D1124682F669566956695982F977083
:1035300085E0689FB001112440E050E080E0FA018E
:10354000E60FF71FE95DFD4F208130E0092E02C034
:10355000369527950A94E2F721703327042E01C08F
:10356000220F0A94EAF7822B4F5F5F4F45305105D7
:1035700031F70895BF92CF92DF92EF92FF920F93AF
:103580001F93CF93DF938C01C0905D02D0905E02B9
:10359000E0905F02F09060028091590290915A028F
:1035A000A0915B02B0915C02C82AD92AEA2AFB2AC0
:1035B000CFE1D0E0D701C6010C2E04C0B695A79587
:1035C000979587950A94D2F780FF07C0BC2EB80163
:1035D0008C2F0E94A504019719F4219758F7B12C5C
:1035E0008B2DDF91CF911F910F91FF90EF90DF9086
:1035F000CF90BF900895CF93DF93EC010E94BA1A49
:10360000BE010E94A504DF91CF9108951F93CF932F
:10361000DF93EB019091EE01992321F0CB010E9401
:10362000FB1A13C0882349F0CB010E94BA1A182F45
:10363000682FCE010E945F1A04C0CB010E948E1A2F
:10364000182FBE01812F0E94A504DF91CF911F91F9
:10365000089580916102859585958595089580915D
:1036600061028770089590916102977081E009F47A
:1036700080E0089580918502089590918502892BBC
:103680008093850208958095909185028923809387
:103690008502089510928502089590918402892BE5
:1036A0008093840208958095909184028923809369
:1036B0008402089510928402089590918302892BC8
:1036C000809383020895809590918302892380934B
:1036D00083020895109283020895809162020895F2
:1036E00008950C94701B90916202981721F08093BA
:1036F00062020C94711B089580916202882329F064
:103700001092620280E00C94711B0895E091100108
:10371000F0911101809185028083E0911001F09178
:103720001101908180918402892B8083E0911001A6
:10373000F0911101908180918302892B8083809187
:103740006202882381F0E0911001F09111019081D3
:10375000892B808380911001909111010E949B1C04
:1037600081110E947C1B80911001909111010C9499
:10377000531008950C94B91B98E0899F900111246F
:10378000262B209361020E94C119809161028595C8
:10379000859585950C94BA1B1092610280E00C947B
:1037A000BA1B209161028095822380936102982F39
:1037B000977079F430E0482F082E000C550B241731
:1037C000350739F08595859585950E94E2190C9409
:1037D000CC1B089580E090E00E94292B21E08C3ED4
:1037E0009E4F09F020E0822F089582E090E00C9433
:1037F0001B2B682F82E090E00C942F2B83E090E04D
:103800000C941B2B682F83E090E00C942F2BCF930C
:1038100084E090E00E941B2BC82F81E290E00E9480
:103820001B2B2C2F30E0A901582BCA01CF910895F2
:10383000CF93C92F682F84E090E00E942F2B6C2F2C
:1038400081E290E0CF910C942F2BAB01BC018FE073
:1038500090E00C94412BAB01BC0183E190E00C940F
:10386000412B60E070E0CB010C942B1C60E070E019
:10387000CB010E94251C0C94311C6CEE7EEF80E085
:1038800090E00E944D2B60E082E090E00E942F2BA0
:1038900060E083E090E00E942F2B10925D02109276
:1038A0005E0210925F021092600260E084E090E09D
:1038B0000E942F2B60E081E290E00E942F2B60E0BD
:1038C00085E090E00E942F2B60E086E090E00E946F
:1038D0002F2B6FEF87E090E00E942F2B40E050E00D
:1038E000BA0188E090E00E94412B60E08DE090E01A
:1038F0000E942F2B40E050E0BA0188E190E00E9446
:10390000412B60E087E190E00E942F2B40E050E0E7
:10391000BA018CE190E00E94412B60E080E290E0EF
:103920000E942F2B0C94361C0C943D1C682F8EE0AB
:1039300090E00C942F2BFC01329680912201882379
:1039400031F08091E80287FF02C09EE101C096E05D
:1039500080E0915028F021912223D9F38F5FF9CF95
:1039600008959C01FC0132969FEF80E0419146173B
:1039700089F09F3F19F4411101C0982F8F5F863065
:10398000A9F79F3F39F0F901E90FF11D97FDFA956D
:10399000628308950895FC013296089620812613CB
:1039A00001C010823196E817F907C1F70895262F54
:1039B0002695269526952E3168F4FC01E20FF11D1F
:1039C000677021E030E001C0220F6A95EAF782813A
:1039D000282B22830895262F2695269526952E316D
:1039E00070F4FC01E20FF11D677021E030E001C0CE
:1039F000220F6A95EAF72095828128232283089571
:103A000020912201222329F02091E80227FD0C9425
:103A1000D71C0C94B11C20912201222329F0209163
:103A2000E80227FD0C94EB1C0C94CB1C2091220186
:103A3000FC013296222331F08091E80287FF02C018
:103A40008EE101C086E0DF011D928A95E9F70895B5
:103A500008950C94281D0E94291D8091EE02843047
:103A600049F11092870220E488E190E00FB6F894C3
:103A7000A895809360000FBE2093600080E00E94B4
:103A80002C040E94291D83B7817F846083BF83B784
:103A9000816083BF7894889583B78E7F83BF0FB68C
:103AA000F894A895809160008861809360001092DE
:103AB00060000FBE089508950895CF930E945B1D86
:103AC0000E94EA060E945C1DC0E08C2F0E949106B5
:103AD000892B29F4CF5FC530C1F780E001C081E0B8
:103AE000CF91089508950C94721D0E9485150E942F
:103AF00047100E942C040C94731D1F920F920FB656
:103B00000F9211248F939F93AF93BF93809187025D
:103B1000811113C08091E4029091E502A091E60228
:103B2000B091E7024196A11DB11D8093E4029093EC
:103B3000E502A093E602B093E702BF91AF919F9197
:103B40008F910F900FBE0F901F90189582E084BD4B
:103B500093E095BD9AEF97BD80936E0008952FB7BF
:103B6000F8948091E4029091E502A091E602B09170
:103B7000E7022FBF0895CF92DF92EF92FF920F934B
:103B80001F932FB7F8944091E4025091E5026091A1
:103B9000E6027091E7022FBF6A017B01EE24FF2449
:103BA0008C0120E030E0C016D106E206F30610F4E6
:103BB000415051099A01281B390BC9011F910F91DE
:103BC000FF90EF90DF90CF90089578941F920F921E
:103BD0000FB60F9211248F939F93AF93BF93809151
:103BE000E4029091E502A091E602B091E70201960D
:103BF000A11DB11D8093E4029093E502A093E6021B
:103C0000B093E702BF91AF919F918F910F900FBE3C
:103C10000F901F90189581E08093E00080E28093E0
:103C2000D8001092C9008FE19EE40197F1F700C01F
:103C3000000087E090EBDC018093F7029093F8029C
:103C4000A093F902B093FA029CE088E10FB6F894D1
:103C5000A895809360000FBE90936000FFCFAF9255
:103C6000BF92CF92DF92EF92FF920F931F93CF9369
:103C7000C0E0CC24C394D12CE82EF12C8C2F0E94D0
:103C800091065C0100E010E09601002E02C0220FB8
:103C9000331F0A94E2F72A213B21232B31F40F5FD3
:103CA0001F4F0F30110581F70AC0602F7C2F80E075
:103CB0000E948B04E816F90691F781E004C0CF5FFB
:103CC000C530E1F680E0CF911F910F91FF90EF900A
:103CD000DF90CF90BF90AF900895CF93C82F8CE224
:103CE0000E942F1E882321F08C2FCF910C942F1E21
:103CF00080E0CF910895CF930E94EA1B811102C00A
:103D00000E94941CC5E6C15049F00E94EA068FE368
:103D10009CE90197F1F700C00000F5CF89E20E940D
:103D20006D1E811120C18AE20E946D1E81110E94C8
:103D3000941C85E00E946D1E81110E940B1E0E9442
:103D4000F51B8093860287E00E946D1E8823A9F1EF
:103D50008BE10E946D1E882351F08091860281FBC9
:103D6000222720F991E0922790FB81F90EC08EE086
:103D70000E946D1E882361F08091860282FB2227BB
:103D800020F991E0922790FB82F98093860215C07A
:103D900080E10E946D1E90918602882341F093FB82
:103DA000222720F981E0822780FB93F904C0892F24
:103DB000809580FB90F990938602809186020E9404
:103DC000F91B0E94071C9093E9028093E80280EEA1
:103DD0000E946D1E882341F08091E802982F9095F3
:103DE00090FB80F98093E80289E30E946D1E88238E
:103DF00059F08091E80281FB222720F991E0922777
:103E000090FB81F98093E80282EE0E946D1E882368
:103E100059F08091E80282FB222720F991E0922755
:103E200090FB82F98093E80286EE0E946D1E882343
:103E300059F08091E80283FB222720F991E0922734
:103E400090FB83F98093E80283EE0E946D1E882325
:103E500059F08091E80284FB222720F991E0922713
:103E600090FB84F98093E80285E30E946D1E88230D
:103E700059F08091E80285FB222720F991E09227F2
:103E800090FB85F98093E80281E30E946D1E8823F0
:103E900059F08091E80286FB222720F991E09227D1
:103EA00090FB86F98093E80281E10E946D1E8823D1
:103EB00059F08091E80287FB222720F991E09227B0
:103EC00090FB87F98093E8028091E8029091E902E3
:103ED0000E94181C87E20E946D1EC82F8EE10E946E
:103EE0006D1E8111C2608FE10E946D1E8111C46040
:103EF00080E20E946D1E8111C86081E20E946D1EE9
:103F00008111C06182E20E946D1E8111C06283E254
:103F10000E946D1E8111C06484E20E946D1E882380
:103F200011F0C06802C0CC2329F08C2F0E94021C23
:103F30006C2F03C00E94FE1B682F70E080E090E0B1
:103F40000E9460198FE00E946D1E882319F081E0A5
:103F50000E94961C85E10E946D1E882321F080E05E
:103F6000CF910C94961CCF91089580918B0280FF85
:103F70000BC06091150185E0689FB0011124759513
:103F80006795759567952BC081FF09C060911501F4
:103F900085E0689FB00111247595679520C082FF68
:103FA00007C06091150185E0689FB001112417C01A
:103FB00090918A029923D1F060911401961788F7A5
:103FC0002091150185E0289F90011124929FA00166
:103FD000939F500D112470E0CA010E94E82A6038B6
:103FE000710540F46115710539F002C065E070E0BB
:103FF000862F08958FE7089581E0089580918B02C0
:1040000080FF08C06091130170E075956795759504
:10401000679521C081FF06C06091130170E075951E
:10402000679519C082FF04C06091130170E010C051
:1040300090918A029923C1F0609112019617A0F71E
:1040400080911301899FC001112470E00E94E82A29
:104050006038710528F46115710521F0862F0895E7
:104060008FE7089581E0089561E070E0F4CF803F2C
:1040700021F40E94B51F819504C0813F29F40E945C
:10408000B51F80938F020895823F21F40E94B51FCF
:10409000819504C0833F29F40E94B51F80938E024E
:1040A0000895893F19F40E94FE1F05C08A3F31F42C
:1040B0000E94FE1F81958093900208958B3F21F40A
:1040C0000E94FE1F819504C08C3F29F40E94FE1FB0
:1040D000809391020895843F21F480918D02816044
:1040E00017C0853F21F480918D02826011C0863F08
:1040F00021F480918D0284600BC0873F21F4809170
:104100008D02886005C0883F31F480918D02806106
:1041100080938D0208958D3F21F480918B02816000
:104120000BC08E3F21F480918B02826005C08F3FCF
:1041300029F480918B02846080938B020895803FE4
:1041400039F480918F0287FF6CC010928F0269C092
:10415000813F29F480918F021816BCF362C09091C0
:104160008E02823F29F497FF5CC010928E0259C0E4
:10417000833F19F41916CCF354C0893F41F4809160
:10418000900218160CF04DC0109290024AC08A3F5F
:1041900029F48091900287FF44C0F6CF8B3F39F419
:1041A0008091910287FF3DC0109291023AC08C3FEE
:1041B00029F4809191021816BCF333C0843F21F496
:1041C00080918D028E7F17C0853F21F480918D02F2
:1041D0008D7F11C0863F21F480918D028B7F0BC0B3
:1041E000873F21F480918D02877F05C0883F31F49D
:1041F00080918D028F7E80938D0213C08D3F21F4BC
:1042000080918B028E7F0BC08E3F21F480918B02B8
:104210008D7F05C08F3F29F480918B028B7F809327
:104220008B0280918E0281110EC080918F028111CC
:104230000AC080919002811106C080919102811183
:1042400002C010928A0208958CE892E00E946D10DC
:104250000E94AF1D909389028093880208951F9356
:10426000CF93DF9380918802909189020E94BB1DB9
:10427000AC0190918A02992321F02091160130E03F
:1042800006C0209117018AE0289F9001112442174F
:10429000530708F47BC080918E02C0918F02D091A9
:1042A000900210919102811107C0C1116BC0D11110
:1042B00069C0111167C06AC09F3F19F09F5F90935A
:1042C0008A02181624F40E94B51F80938E028091F2
:1042D0008E0287FF05C00E94B51F819580938E02D4
:1042E0001C1624F40E94B51F80938F0280918F02C8
:1042F00087FF05C00E94B51F819580938F02309182
:104300008E023323E1F020918F022223C1F045EB8E
:104310003403C0011124892F990F990B009709F4D8
:1043200081E080938E0235EB2303C0011124892F95
:10433000990F990B009709F481E080938F021D1665
:1043400024F40E94FE1F809390028091900287FFC8
:1043500005C00E94FE1F819580939002111624F4DF
:104360000E94FE1F809391028091910287FF05C0F9
:104370000E94FE1F819580939102DF91CF911F9142
:104380000C9424219F3F09F099CFA1CFDF91CF91C9
:104390001F910895ECE8F2E086E0DF011D928A9516
:1043A000E9F710928A0210928B020895833081F10E
:1043B00028F4813059F08230D1F00895853009F425
:1043C00049C0B8F1863009F456C0089580911701AC
:1043D000262F30E0280F311D2F3F310524F4680FC0
:1043E0006093170108958FEF8093170108958091CE
:1043F0001601262F30E0280F311D2F3F310524F400
:10440000680F6093160108958FEF80931601089549
:1044100080911501262F30E0280F311D2F3F3105E7
:1044200024F4680F6093150108958FEF80931501B0
:10443000089580911401262F30E0280F311D2F3F61
:10444000310524F4680F6093140108958FEF809371
:104450001401089580911301262F30E0280F311D9B
:104460002F3F310524F4680F6093130108958FEFF7
:1044700080931301089580911201262F30E0280FB8
:10448000311D2F3F310524F4680F60931201089508
:104490008FEF809312010895833011F128F4813059
:1044A00049F0823091F00895853081F120F1863015
:1044B000C1F1089580911701681720F4861B80933D
:1044C0001701089510921701089580911601681739
:1044D00020F4861B8093160108951092160108950A
:1044E00080911501681720F4861B809315010895AB
:1044F00010921501089580911401681720F4861B0D
:10450000809314010895109214010895809113016D
:10451000681720F4861B80931301089510921301ED
:10452000089580911201681720F4861B8093120170
:1045300008951092120108950F931F93482F50E091
:10454000FA013597EF33F10508F07FC0E857FF4FC8
:104550000C94FC2A0E94941C71C080918602817F79
:104560008E7F8093860281E0809393026FC00E94C9
:1045700085150FEF13ED20E3015010402040E1F7C7
:1045800000C000000E940B1E59C080918602982F27
:104590009095917090FB80F98093860291114EC0A6
:1045A000897F877F10C08091860281FB222720F9B6
:1045B00091E0922790FB81F9809386029923F1F193
:1045C0008091860281608093860238C08091860245
:1045D00082FB222720F991E0922790FB82F9ECCF11
:1045E0008091860283FB222720F991E0922790FB9D
:1045F00083F9E2CF0E9485158091E80287FB22278C
:1046000020F991E0922790FB87F98093E80216C089
:10461000895301C08D5141E050E060E070E08A01B3
:104620009B0104C0000F111F221F331F8A95D2F770
:10463000C901B8010E9460190E94851581E006C079
:1046400061E070E080E090E0F5CF80E01F910F9195
:10465000089580E0089580E008958E518A3030F406
:10466000E82FF0E0E254FE4F8081089580E0089545
:10467000CF93C82F80919302813051F018F082308F
:1046800099F17DC00E943A1B823209F07AC004C0C1
:104690000E943A1B823261F48C2F0E9429238111DF
:1046A00004C08C2F0E949C221DC081E090E01AC0A3
:1046B0008C2F0E942B23811114C0C43179F048F44F
:1046C000CB3079F0C03109F060C082E08093930272
:1046D00008C0C93219F0C83321F057C010929302B4
:1046E00054C081E0817053C0C93289F118F5C431DA
:1046F00071F1B0F4C73009F046C08EE18093170124
:1047000082E3809316018AE08093150184E180930F
:10471000140188E08093130188E28093120133C072
:1047200082EE8C0F863078F58C2F0E942D2380939B
:10473000920229C0CE34E9F020F4CB3421F56AE0AE
:1047400013C0C13579F0C235F1F461E00DC080913C
:104750009202882319F01092920215C081E0809392
:10476000930215C061E006C0809192020E94D6219A
:104770000AC06AE0809192020E944C2204C010920A
:10478000930280E004C081E002C080E0ABCFCF9113
:1047900008958091B4020895CF93DF9300D01F92C3
:1047A000CDB7DEB79091EE02943019F589837B8303
:1047B0006A8382E08093E9008FEF9091E800815056
:1047C00095FD06C095ED9A95F1F700008111F5CFA2
:1047D0008091E80085FF0DC040E050E063E070E0AC
:1047E000CE0101960E942A268091E8008E77809360
:1047F000E8000F900F900F90DF91CF910895CF9325
:10480000DF93EC010E940D26823011F0843031F4E8
:10481000BE0184E0DF91CF910C94CC23DF91CF9146
:104820000895BC0183E00C94CC23CF93DF93EC017B
:104830000E940D26823011F08430F9F482E08093DA
:10484000E9009FEF8091E800915085FD06C085ED5D
:104850008A95F1F700009111F5CF8091E80085FF6E
:104860000CC040E050E066E070E0CE010E942A26D5
:104870008091E8008E778093E800DF91CF910895D2
:10488000CF93DF93EC010E940D26823011F084302B
:10489000D9F580912201882339F08091E80287FFC1
:1048A00003C060E282E002C068E081E08093E9003A
:1048B0008FEF9091E800815095FD06C095ED9A9597
:1048C000F1F700008111F5CF8091E80085FF1CC051
:1048D00080912201811105C040E050E068E070E065
:1048E00003C070E040E050E0CE010E942A26809193
:1048F000E8008E778093E80080E2FE01A4E9B2E050
:1049000001900D928A95E1F7DF91CF910895809102
:10491000ED02811109C00E94BF270E941C288091CE
:10492000E20084608093E20008951092ED02089501
:10493000089508950C94751D42E061EC81E00E9499
:10494000392742E261EC82E00C9439278091F00231
:10495000833009F460C030F4813071F0823009F4A2
:1049600099C008958A3009F485C08B3009F46BC072
:10497000893009F0A7C020C08091EF02813A09F088
:10498000A1C08091E800877F8093E8008091F302C6
:104990009091F402892B21F460E284E992E003C053
:1049A00060E080E090E070E00E9475268091E80071
:1049B0008B778093E80008958091EF02813209F0AF
:1049C00081C08091F3029091F402029708F07AC0BE
:1049D0008091E800877F8093E8008091E80082FD65
:1049E00005C08091EE028111F8CF6CC02091F300D8
:1049F0008091F20090E0922B029729F48091F100CF
:104A00008B7F813021F48091F1008093B4028091FA
:104A1000E8008B7753C08091EF02813A09F052C0D1
:104A20008091F3029091F402892B09F04BC08091A0
:104A3000E800877F8093E8008091E80080FFFCCF4A
:104A40008091220136C08091EF028132D9F58091A8
:104A5000F3029091F402892BA9F58091E800877FF9
:104A60008093E8000E946E278091F10280932201DA
:104A70000C9485158091EF02813221F58091E80038
:104A8000877F8093E8000E946E278091F2028093D6
:104A9000B50208958091EF02813AA1F48091E80077
:104AA000877F8093E8008091E80080FFFCCF8091B1
:104AB000B5028093F1008091E8008E778093E80042
:104AC0000C946E27089584B7877F84BF0FB6F8943F
:104AD000A8958091600088618093600010926000CA
:104AE0000FBE90E080E80FB6F89480936100909339
:104AF00061000FBE0E94B5100E94BF270E941C28B3
:104B00008091E20084608093E20078940E94AB2A56
:104B10000E94BD1088E191E00E9442108091EE0257
:104B2000853069F40E942B1D8091EC028823B1F33B
:104B30000E945D1D882391F30E941426EFCF0E94EE
:104B4000C710ECCF0C94A425292F3327233031052F
:104B5000C9F064F42130310581F02230310509F0CB
:104B60004CC08BE390E02FE935E04BC0213231059A
:104B700021F12232310589F140C082E190E02AED35
:104B800035E03FC099278130910571F02CF4892BD5
:104B9000A1F5EBE9F5E00DC08230910541F00397F6
:104BA00061F5EBE7F5E005C0EDE8F5E002C0E1E80E
:104BB000F5E0849190E09F0124C06115710541F0FA
:104BC00061307105D1F489E090E02AEC35E019C03C
:104BD00089E090E021EB35E014C06115710541F0EA
:104BE0006130710551F48CEB90E02CEE35E009C09A
:104BF00080E490E028EA36E004C080E090E020E025
:104C000030E0FA013183208308958091EE028430F0
:104C100011F081E0089582E008958091B60281113B
:104C200002C00C940526089580E189BD82E189BD0A
:104C300009B400FEFDCF8091D8008F7D8093D8000D
:104C40008091E00082608093E0008091E00081FD2F
:104C5000FCCF0895CF92DF92EF92FF920F931F93B4
:104C6000CF93DF93EC018B016A010E948D278111A4
:104C700033C0C114D10439F0F60180819181081B41
:104C8000190BC80FD91FE12CF12C0115110519F1D1
:104C90008091E80085FD16C08091E8008E778093B2
:104CA000E800C114D10449F0F60180819181E80E39
:104CB000F91EF182E08285E00FC00E948D278823D3
:104CC00021F30AC089918093F10001501109FFEF8F
:104CD000EF1AFF0ADACF80E0DF91CF911F910F9199
:104CE000FF90EF90DF90CF9008952091F5023091E2
:104CF000F6022617370748F06115710539F420913F
:104D0000E8002E772093E80001C0B90140E061156A
:104D10007105A9F12091EE02222309F443C0253048
:104D200009F442C02091E80023FD40C02091E80032
:104D300022FD32C02091E80020FFE9CF4091F3002E
:104D40002091F20030E0342BFC01CF016115710598
:104D500059F02830310540F481918093F100615081
:104D600071092F5F3F4FF1CF41E02830310509F045
:104D700040E02091E8002E772093E800C8CF411151
:104D8000C9CF0AC08091EE02882361F0853061F0BE
:104D90008091E80083FD0AC08091E80082FFF2CF95
:104DA00080E0089582E0089583E0089581E0089509
:104DB0002091F5023091F6022617370748F0611569
:104DC000710539F42091E8002E772093E80001C0A6
:104DD000B901FC0120E06115710591F18091EE02AD
:104DE000882309F440C0853009F43FC08091E80071
:104DF00083FD3DC08091E80082FD2FC08091E800D6
:104E000080FFE9CF2091F3008091F20090E0922B97
:104E10006115710559F08830910540F42491209373
:104E2000F1003196615071090196F2CF21E00897A7
:104E300009F020E08091E8008E778093E800CBCFE6
:104E40002111CCCF0AC08091EE02882361F0853019
:104E500061F08091E80083FD0AC08091E80082FF44
:104E6000F2CF80E0089582E0089583E0089581E024
:104E70000895982F973058F59093E900981739F0D6
:104E80007091EC002091ED005091F00003C0242FB0
:104E9000762F50E021FF19C03091EB003E7F309318
:104EA000EB003091ED003D7F3093ED003091EB0051
:104EB00031603093EB007093EC002093ED00509341
:104EC000F0002091EE0027FF07C09F5FD3CF8F70C7
:104ED0008093E90081E0089580E008958091EF02D9
:104EE00087FF11C08091E80082FD05C08091EE022D
:104EF0008111F8CF11C08091E8008B770BC08091B1
:104F0000EE02882349F08091E80080FFF8CF80917D
:104F1000E8008E778093E80008952091E4003091B6
:104F2000E50095E64091EC00842F817040FF22C09F
:104F30008091E80080FD1CC08091EE02882391F0F2
:104F4000853091F08091EB0085FD10C04091E40028
:104F50005091E5004217530729F39A01915011F738
:104F600084E0089582E0089583E0089581E0089543
:104F700080E008954091E80042FFDECF08950E944E
:104F80002D280E943528E0EEF0E08081816080834A
:104F9000E8EDF0E080818F77808319BCA7EDB0E069
:104FA0008C918E7F8C9380818F7E80831092ED0216
:104FB00008950F931F93CF93DF930E942D280E9493
:104FC0003528C8EDD0E088818F7788838881806814
:104FD000888388818F7D888319BC1092EE0210929D
:104FE000EA021092EC021092EB0200EE10E0F801DF
:104FF00080818B7F808388818160888342E060E04C
:1050000080E00E943927E1EEF0E080818E7F80838E
:10501000E2EEF0E08081816080838081886080831F
:10502000F80180818E7F8083888180618883DF9111
:10503000CF911F910F910895E8EDF0E080818F7E70
:105040008083E7EDF0E080818160808384E082BF2F
:1050500081E08093ED020C94D927E8EDF0E08081A7
:105060008E7F80831092E20008951092DA001092F1
:10507000E10008951F920F920FB60F9211242F9303
:105080003F934F935F936F937F938F939F93AF93D0
:10509000BF93EF93FF938091E10082FF0BC080915B
:1050A000E20082FF07C08091E1008B7F8093E100E6
:1050B0000E94AA2A8091DA0080FF1FC08091D80048
:1050C00080FF1BC08091DA008E7F8093DA00809190
:1050D000D90080FF0DC080E189BD82E189BD09B49E
:1050E00000FEFDCF81E08093EE020E94872405C080
:1050F00019BC1092EE020E9495248091E10080FF7D
:1051000019C08091E20080FF15C08091E2008E7F7F
:105110008093E2008091E20080618093E2008091C0
:10512000D80080628093D80019BC85E08093EE029D
:105130000E9499248091E10084FF30C08091E200B8
:1051400084FF2CC080E189BD82E189BD09B400FEE5
:10515000FDCF8091D8008F7D8093D8008091E100B1
:105160008F7E8093E1008091E2008F7E8093E20049
:105170008091E20081608093E2008091EA028823BE
:1051800011F084E007C08091E30087FD02C081E058
:1051900001C083E08093EE020E949A248091E10096
:1051A00083FF29C08091E20083FF25C08091E10048
:1051B000877F8093E10082E08093EE021092EA0202
:1051C0008091E1008E7F8093E1008091E2008E7FEC
:1051D0008093E2008091E20080618093E20042E0EF
:1051E00060E080E00E9439278091F0008860809321
:1051F000F0000E949824FF91EF91BF91AF919F9191
:105200008F917F916F915F914F913F912F910F906F
:105210000FBE0F901F9018951F920F920FB60F920E
:1052200011242F933F934F935F936F937F938F93AB
:105230009F93AF93BF93CF93DF93EF93FF93C0916F
:10524000E900CF708091EC00D82FD17080FDD0E8BC
:105250001092E9008091F000877F8093F0007894AD
:105260000E9450291092E9008091F000886080939C
:10527000F000CD2BCF70C093E900FF91EF91DF914B
:10528000CF91BF91AF919F918F917F916F915F91DE
:105290004F913F912F910F900FBE0F901F90189537
:1052A0001F93CF93DF93CDB7DEB7AA970FB6F894CD
:1052B000DEBF0FBECDBFEFEEF2E088E08E0F909123
:1052C000F10091938E13FBCF0E94A6248091E800F9
:1052D00083FF28C18091EF029091F002492F50E0A6
:1052E0004A30510508F01EC1FA01E953FF4F0C94F2
:1052F000FC2A803821F0823809F014C108C080915E
:10530000EB029091EC02992389F082600FC08091AA
:10531000F3028F70873008F005C18093E900809117
:10532000EB0085FB882780F91092E9009091E80056
:10533000977F9093E8008093F1001092F100D0C025
:10534000282F2D7F09F0EEC0882319F0823061F0FC
:10535000E9C08091F102813009F0E4C0933009F096
:1053600080E08093EC022EC08091F10281112AC06E
:105370008091F3028F702FEF280F263008F0D2C0F3
:105380008093E9002091EB0020FF1CC0933021F4B2
:105390008091EB00806214C09091EB00906190933B
:1053A000EB0021E030E0A90102C0440F551F8A95AF
:1053B000E2F74093EA001092EA008091EB008860E7
:1053C0008093EB001092E9008091E800877F809342
:1053D000E8000E946E27A6C08111A4C01091F102BE
:1053E0001F778091E3008078812B8093E300809188
:1053F000E800877F8093E8000E946E278091E80094
:1054000080FFFCCF8091E30080688093E30011115E
:1054100002C082E001C083E08093EE0283C0805826
:10542000823008F07FC08091F1029091F2028C3DB1
:1054300053E0950779F583E08A838AE289834FB741
:10544000F894DE01139620E03EE051E2E32FF0E015
:1054500050935700E49120FF03C0E295EF703F5F47
:10546000EF708E2F90E0EA3010F0C79601C0C09622
:105470008D939D932F5F243149F74FBF8091E800B2
:10548000877F8093E8006AE270E0CE0101960E9477
:10549000752615C06091F3027091F402AE014F5F62
:1054A0005F4F0E94A225BC01892BE1F19091E80099
:1054B000977F9093E80089819A810E94D8268091F5
:1054C000E8008B778093E8002DC0803859F58091F3
:1054D000E800877F8093E8008091EA028093F100E2
:1054E0008091E8008E7773CF81111CC09091F102FA
:1054F0009230C0F48091E800877F8093E800909319
:10550000EA020E946E278091EA02811106C0809112
:10551000E30087FD02C081E001C084E08093EE02D9
:105520000E949C248091E80083FF0AC08091E800DB
:10553000877F8093E8008091EB0080628093EB008E
:10554000AA960FB6F894DEBF0FBECDBFDF91CF9104
:105550001F9108950895CF938091EE028823A1F0C2
:10556000C091E900CF709091EC00892F817090FD7F
:1055700080E8C82B1092E9008091E80083FD0E942A
:105580005029CF70C093E900CF91089587FB082E72
:10559000062687FD819567FD61950E94022B0EF41A
:1055A000919507FC81950895AA1BBB1B51E107C08B
:1055B000AA1FBB1FA617B70710F0A61BB70B881FA3
:1055C000991F5A95A9F780959095BC01CD01089532
:1055D00097FB072E16F4009407D077FD09D00E94A0
:1055E000D42A07FC05D03EF4909581959F4F0895ED
:1055F000709561957F4F0895EE0FFF1F0590F49110
:10560000E02D0994991B79E004C0991F961708F0C2
:10561000961B881F7A95C9F780950895FC01415023
:10562000504030F001900616D1F73197CF01089520
:10563000882799270895F999FECF92BD81BDF89AE0
:10564000992780B50895A6E1B0E044E050E00C94BD
:10565000552BA8E1B0E042E050E00C94552B262FEA
:10566000F999FECF92BD81BDF89A019700B4021658
:1056700039F01FBA20BD0FB6F894FA9AF99A0FBE06
:1056800008950396272F0E94302B0E942F2B252F41
:105690000E94302B242F0C94302B0196272F0E9430
:1056A000302B0C942F2BDC01CB01FC01F999FECFA0
:1056B00006C0F2BDE1BDF89A319600B40D9241509A
:0A56C0005040B8F70895F894FFCFAA
:1056CA00010206060601191A1B1C1D1E1F20212293
:1056DA0063022808140A321EC923402415241124FF
:1056EA00FF2301E200E900EA00B500B600B700CDE9
:1056FA00008301CC008A0192019401210223022431
:10570A00022502260227022A02B300B4006F0070A3
:10571A0000818283F0F1C667663694313735349753
:10572A009633309091929395000102020202060686
:10573A00060909090909090F0F0F0F0F0F1515158A
:10574A0018191919191919191919192324E200E92B
:10575A0000EA00B500B600B700CD008301CC008A8C
:10576A000192019401210223022402250226022722
:10577A00022A02B300B4006F007000818283010222
:08578A000304050607080900ED
:00000001FF
