:100000000C946D030C94A5030C94A5030C94A50308
:100010000C94A5030C94A5030C94A5030C94A503C0
:100020000C94A5030C94A5030C9473260C944727F9
:100030000C9490210C94A5030C94A5030C94A50397
:100040000C94A5030C94A5030C94A5030C94A50390
:100050000C94A5030C9417220C94A5030C94A503EF
:100060000C94A5030C94A5030C94A5030C94A50370
:100070000C94A5030C94A5030C94A5030C94A50360
:100080000C94A5030C94A5030C94A5030C94A50350
:100090000C94A5030C94A5030C94A5030C94A50340
:1000A0000C94A5030C94A5030C94A5030100010076
:1000B0000100010001000100010001000100010038
:1000C00001000100010001000100012601002B00D8
:1000D00014001A0008001500170001001C00180089
:1000E0000C00120013002A00012601000126040062
:1000F0001600070009000A0001000B000D000E00A9
:100100000F003300280001260100E1001D001B0044
:10011000060019000500010011001000360037002C
:100120003800340001260100E0002452E30023528D
:100130002252290001002C002152E400E7000100B6
:10014000E6000100010001000100010001000100C2
:100150000100010001000100010001000100010097
:100160000100010001000100010001000100010087
:100170000100010001000100010001000100010077
:100180000100010001000100010001000100010067
:100190005000510052004F00010001000100010019
:1001A0000100010001000100010001000100010047
:1001B0000100010001000100010001000100010037
:1001C0000100010001000100010001000100010027
:1001D0000100010001000100010001000100010017
:1001E0000100010001000100010001000100010007
:1001F0000100010001000100010001001E021F02B8
:1002000020022102220201002302240225022E02E2
:100210002E004C00010001000100350235002F02C4
:1002200026022F0001003000270230022D002D028F
:1002300001000100010001000100010001000100B6
:1002400001000100010001003602370231003102D5
:100250000100010001000100010001000100010096
:100260000100010001000100010001000100010086
:100270000100010001000100010001000100010076
:100280000100010001000100010001000100010066
:100290000100010001000100010001000100240033
:1002A00025002600010001000100010001000100FD
:1002B00001000100010001000100010021002200F5
:1002C0002300010001000100010001000100010004
:1002D000010001000100010001001E001F002000BC
:1002E0000100010001000100010001000100010006
:1002F000010001000100010001002700370001009A
:1003000001000100010001000100010001000100E5
:1003100001000100010001000100010001000100D5
:1003200001000100010001000100010001000100C5
:1003300001000100400041004200010001000100F5
:1003400001000100010001000100010001000100A5
:1003500001003D003E003F000100010001000100DE
:100360000100010001000100010001000100010085
:100370003A003B003C0001000100010001000100C7
:100380000100010001000100010001000100440022
:10039000430045000100010001001E0F0500047F1D
:1003A0003F1F643214643214783C1E1E140A052266
:1003B00023252628292A2C2D2F3032333536383A5A
:1003C0003B3D3E4042434547494A4C4E50515355B0
:1003D00057595A5C5E6062646668696B6D6F7173D1
:1003E0007577797B7D7F81838587898A8C8E9092D2
:1003F0009496989A9C9E9FA1A3A5A7A8AAACAEAFDD
:10040000B1B3B4B6B8B9BBBCBEBFC1C2C3C5C6C721
:10041000C9CACBCCCDCED0D1D2D2D3D4D5D6D7D7D2
:10042000D8D9D9DADADBDBDBDCDCDCDCDCDDDDDD1A
:10043000DDDCDCDCDCDCDBDBDBDADAD9D9D8D7D716
:10044000D6D5D4D3D2D2D1D0CECDCCCBCAC9C7C6C3
:10045000C5C3C2C1BFBEBCBBB9B8B6B4B3B1AFAE01
:10046000ACAAA8A7A5A3A19F9E9C9A9896949290A7
:100470008E8C8A89878583817F7D7B79777573717F
:100480006F6D6B6968666462605E5C5A595755535C
:1004900051504E4C4A4947454342403E3D3B3A3815
:1004A00036353332302F2D2C2A292826252322FFBA
:1004B000AA7F554000010101010101010101020271
:1004C0000202020202020203030303030303030402
:1004D00004040404040405050505050606060606CD
:1004E000070707070708080808090909090A0A0A87
:1004F0000B0B0B0C0C0C0D0D0D0E0E0E0F0F0F1029
:1005000010111111121213131414151516161717B2
:10051000181819191A1A1B1B1C1D1D1E1E1F20201E
:10052000212222232424252626272829292A2B2C68
:100530002D2D2E2F30313232333435363738393A8B
:100540003B3C3D3E3F404142434445464748494A83
:100550004C4D4E4F50515354555658595A5B5D5E51
:100560005F616264656668696B6C6D6F70727375EC
:1005700077787A7B7D7E8082838587888A8C8E8F50
:1005800091939596989A9C9EA0A2A3A5A7A9ABAD7E
:10059000AFB1B3B5B7BABCBEC0C2C4C6C9CBCDCF6C
:1005A000D1D4D6D8DBDDDFE2E4E7E9EBEEF0F3F51A
:1005B000F8FAFDFF0A035800440037003500000038
:1005C0000C037800690075006400690000000403F2
:1005D000090409023B00020100A0FA09040000011D
:1005E00003010100092111010001224000070581DA
:1005F00003080001090401000103000000092111A2
:10060000010001227B000705820320000112010086
:100610000200000008447875750100010200010520
:10062000010902A10185020901A100050919012999
:100630000815002501950875018102050109300999
:10064000311581257F9502750881060938158125A8
:100650007F950175088106050C0A38021581257FF2
:10066000950175088106C0C005010980A1018503B7
:1006700019012AB700150126B700950175108100F0
:10068000C0050C0901A101850419012AA002150168
:1006900026A002950175108100C005010906A1017F
:1006A000050719E029E71500250195087501810264
:1006B0009501750881010507190029FF150026FF1E
:1006C000009506750881000508190129059505752D
:1006D000019102950175039101C011241FBECFEF56
:1006E000DAE0DEBFCDBF04B603FE18C0809103037D
:1006F00090910403A0910503B09106038730904BBD
:10070000A740B04B59F410920303109204031092C7
:10071000050310920603E0E0F8E3099511E0A0E07C
:10072000B1E0E8EFF5E502C005900D92AC3DB107F0
:10073000D9F723E0ACEDB1E001C01D92A330B207C0
:10074000E1F70E946D130C94A62A0C9400002A9ADB
:100750000895229A0E94A70308958F9A0895879A70
:100760000E94AD0308958C980895849A0E94B30363
:1007700008950E94A9030E94AF030E94B5030E943E
:10078000101208958530B8F46530A8F44F3098F40D
:1007900050E09FE0699F400D511D1124FA019BE438
:1007A000899FE00DF11D1124EE0FFF1FE455FF4F4F
:1007B00085919491089581E090E008950E94C2038C
:1007C000089581E0089581E008950E94E30308956B
:1007D00008950E94E8030895A5E0B0E0E2EFF3E099
:1007E0000C94982949835A833091E30189819A8135
:1007F000311119C0662399F0222389F00E94040A5E
:10080000182F682F89819A810E94E00969817A8175
:10081000812F0E94DD102596E3E00C94B4290E94FC
:10082000F209182FF3CF0E94040A69817A81F1CF6F
:10083000FC01262F408151816281738184810E9455
:10084000EC03089581E00895CF93DF93EC0160E01D
:100850000E941804BE010E94E903DF91CF91089520
:1008600008950E94AF080E9430042FEF84E39CE0BB
:10087000215080409040E1F700C0000008950E94A0
:1008800031040E943B2208950E9431040E945F229D
:1008900008950F931F93CF93DF938C0161E00E9423
:1008A0001804EC01B8010E94E503811106C080E044
:1008B000DF91CF911F910F910895B801CE010E9451
:1008C0002D208823A1F3B801CE010E94771D882333
:1008D00071F3B801CE010E949F1F882341F3B80134
:1008E000CE010E94D91C882311F3F801828188234C
:1008F00061F0C330FCE7DF07E9F058F4C115ECE71D
:10090000DE07A9F0C130DC47B9F0C8010E94E1035D
:10091000CFCFCB358CE7D807A9F0CC35ECE7DE0795
:1009200071F0CA35DC4789F70E94350EEECF0E9480
:100930003F04BDCF0E943D0E0E944404B8CF0E94E8
:100940002B0EE3CF0E94390EE0CF0E946C210E9453
:10095000CC0408950E94D0040E9471210895089546
:1009600081E008950895CF93DF93D82F0E94B004BB
:10097000C82F882319F08D2F0E94B2048C2FDF918D
:10098000CF9108950895CF93C82F0E94AF048C2F64
:100990000E94B304CF91089580E00E94C30408959B
:1009A0000E947B200E94C3040895CF930E947B2065
:1009B000C82F8091DE018C1779F0C093DE010E9470
:1009C000FC216093DF017093E0018093E10190933B
:1009D000E2018C2F0E94C304CF910895ABE0B0E0F8
:1009E000E4EFF4E00C9499294F83588769877A875C
:1009F0008B8761110E94760D1E821D8285E0FE01AB
:100A00003796DE01119601900D928A95E1F78C815F
:100A10009D81892B61F449815A816B817C818D8113
:100A20009E810E949E0C2B96E2E00C94B529898150
:100A30009A8189238F3F79F3CE0101960E94220487
:100A40008111E9CFF0CFFC01808191810E94360AAB
:100A50000895662329F00E94F1130E94C41408959A
:100A60000E944B14FACFCF93C82F8823C9F0823845
:100A7000C9F40E947B2081FD13C089E30E942E0DE2
:100A80000E94970D2FEF87EE93E021508040904019
:100A9000E1F700C0000089E30E94360D0E94970D27
:100AA000CF9108958338A1F40E947B2080FDF8CF78
:100AB00083E50E942E0D0E94970D2FEF81EE94E0AA
:100AC000215080409040E1F700C0000083E5E4CF72
:100AD0008438A1F40E947B2082FDE2CF87E40E944B
:100AE0002E0D0E94970D2FEF81EE94E02150804053
:100AF0009040E1F700C0000087E4CECF8CEF8C0F70
:100B0000813AB8F48C2F0E94E41E8111C9CF6C2F5A
:100B100080910401909105010E94FD20882329F015
:100B20008C2F0E94360D0E94970D8C2F0E942E0D47
:100B3000B5CF80E28C0F883048F4C77081E001C0E7
:100B4000880FCA95EAF70E94590DA8CFEBE5EC0F84
:100B5000E33040F4F0E0E05AFE4F808190E00E94E4
:100B6000A1209ECFE8E5EC0FEB3150F4F0E0EE0F62
:100B7000FF1FE65DFE4F808191810E94C62090CFCD
:100B800083E38C0F833108F08BCF61E08C2F0E94C0
:100B9000290586CF882309F456C0823879F40E944B
:100BA0007B2081FF50C089E30E942E0D0E94970D8B
:100BB00089E30E94360D0E94970D0895833859F4F9
:100BC0000E947B2080FF3FC083E50E942E0D0E9483
:100BD000970D83E5EECF843859F40E947B2082FF85
:100BE00032C087E40E942E0D0E94970D87E4E1CF6A
:100BF0009CEF980F913AE8F290E2980F983050F4F9
:100C0000877091E001C0990F8A95EAF7892F0E94B9
:100C10005F0DD1CF9BE5980F933028F490E080E0F2
:100C20000E94A120089598E5980F9B3128F490E048
:100C300080E00E94C620089593E3980F933118F442
:100C400060E00E94290508951F93CF93DF93182F2A
:100C5000EB010E943305209739F4812F0E94CA05C9
:100C6000DF91CF911F9108958FE99FE00197F1F7F0
:100C700000C000002197EFCF70E060E0893311F4ED
:100C800060E570E00E9424060895882321F00E9408
:100C9000590D0E94970D0895882321F00E945F0D41
:100CA0000E94970D0895B0E0A0E0E9E5F6E00C940D
:100CB00092296C01D62FC72FFC0112810581029564
:100CC0000F700E944F0DE82E8823E9F0E12E1123CA
:100CD000D1F08C2F807F803451F080E28D0F8830EE
:100CE000F8F0011104C08C2F807E8032C9F0809111
:100CF000C60282FF15C082E00E94FA0D0E944F0DCD
:100D000091E0E82EE926BC2EB2949FE0B922FBE0E8
:100D1000FB15B8F1EB2DF0E0E855F54D0C94522998
:100D2000E12CF1CF0C2F0F70C07F11F00295007FE6
:100D3000112399F0002359F080E28D0F883010F0D4
:100D4000D11107C0802F0E94590D0E94970D8D2F41
:100D500063C0802F0E94690DF8CF8D2F0E94CA05B5
:100D6000002379F080E28D0F883010F0D11104C09B
:100D7000802F0E945F0D03C0802F0E946F0D0E9484
:100D8000970D2B2D2850330B2430310520F40E9471
:100D90007B200E94C304EE2089F00E944B0D80FD51
:100DA0000DC0F60112820E94450D0E943E09C60147
:100DB0000E946F080E94450D0E944E09CDB7DEB714
:100DC000E9E00C94AE292C2F2F70F22EC07FC03298
:100DD00019F0F29480EFF822DD2381F0D13009F48C
:100DE00049C0112309F451C0002309F448C0F60199
:100DF000858180FFACCF8F70858341C08091C60212
:100E000082FD15C0112359F0FF2029F08F2D0E947B
:100E1000590D0E94970D80E00E943305B2CF80E00B
:100E20000E94CA05FF2009F4ACCF8F2DA2CF112359
:100E300081F0011106C00E94790D8F290E9445069C
:100E4000A0CF0130C1F70E94790D8F290E94800D3B
:100E500098CF011106C00E948D0D8F2D0E944C0667
:100E600090CF013009F48DCF8F2D0E944C060E9447
:100E70008D0D87CF112329F0063008F082CF8F2DFA
:100E8000DDCF053008F07DCFE8CF002331F3D93333
:100E900049F4FFEF27EE33E0F15020403040E1F716
:100EA00000C000008D2F0E94CA056BCF8C2F869545
:100EB0008695837069F0813009F063CF8D2F9C2F68
:100EC0009370111102C080E090E00E94C62059CFBB
:100ED0008D2F9C2F9370111102C080E090E00E9432
:100EE000A1204FCF612F8D2F0E9429054ACF8C2F33
:100EF0008370A1F5111145CF4D2F4295469547704E
:100F0000440F440F2D2F2F7030E0042E02C0220F0B
:100F1000331F0A94E2F790E080E0D4FF09C08FE02D
:100F200090E002C0880F991F4A95E2F7809590954E
:100F3000C695C695C370822B932BC23049F058F4E6
:100F4000C13019F00E940E091CCF0E94050919CF6B
:100F50000E94170916CF0E94020913CF869511230C
:100F600011F08C2F8170882309F40BCF4D2F4295FF
:100F700046954770440F440F2D2F2F7030E0042EFC
:100F800002C0220F331F0A94E2F790E080E0D4FF02
:100F900009C08FE090E002C0880F991F4A95E2F7E0
:100FA00080959095C695C695C370822B932BC230C1
:100FB00049F058F4C13019F00E947909E2CE0E943C
:100FC0007009DFCE0E948209DCCE0E942609D9CEAC
:100FD000CF70112329F08C2F0E943E098D2F2ECF28
:100FE0008D2F0E944C068C2F0E944E09CACED23FF4
:100FF00041F160F4D03FB9F0D13F81F0112309F401
:1010000046C00111A4CE8C2F8F711FC0D33F01F1B8
:10101000D43FA1F78091C60282FD24C08C2F8F712E
:10102000112311F312C0112341F0053008F0A9CEAD
:101030008C2F8F710E946009A4CE063008F0A1CEDB
:10104000F7CF8C2F8F711111CFCF0E943E0999CE0F
:10105000112329F08C2F8F710E94320992CE0E94A9
:101060002D098FCE112349F0CF718C2F0E943E099C
:1010700063E08C2F0E94DC0D84CE81E00E94FA0D8B
:10108000023008F47ECE82E00E94FA0D7ACE002370
:1010900059F0D93309F006CF8FEF97EEE3E0815096
:1010A0009040E040E1F7FCCE8C2F8F719DCF0F93E5
:1010B0001F93CF93DF93EC01688179818A810E942D
:1010C000410A8C010E948B090E940109B801CE01DE
:1010D0000E945306DF91CF911F910F910895CF93F6
:1010E000DF93EC018B819C81892B29F08881998188
:1010F00089238F3F51F4DF91CF910895CE010E9453
:101100005708CE010E942404F6CFCE010E94490464
:101110008111F4CF0E944F0D882369F38A818823BF
:1011200051F38091C60282FFE6CF82E00E94FA0D61
:10113000E2CF90E080E00E94A12090E080E00E9459
:10114000C6200E94760D0E94970D0E94E0140E9416
:10115000C41408950E943E0D0E94990808950E94AB
:10116000660D0E94AA08089592959F70963091F09E
:1011700058F4925F9F70923058F4803F19F030F429
:10118000883E30F481E008959A5FF4CF843FD1F334
:1011900080E00895883EB0F3813FD1F7F3CFFC01A2
:1011A00083819481892B29F08081918189238F3FCC
:1011B00011F480E00895808191810E94360A0E9496
:1011C000B4080895A5E0B0E0E8EEF8E00C949929A1
:1011D0002596E2E00C94B529A6E0B0E0E2EFF8E055
:1011E0000C9499292696E2E00C94B52908950E9462
:1011F000F60808950E94F70890930F0280930E025C
:10120000089508950E94FA08089520910E023091E1
:101210000F02822B932B0E94FA08089520910E0250
:1012200030910F02822393230E94FA08089520919F
:101230000E0230910F02822793270E94FA08089528
:101240000E94F60808950E94200908950E9423092B
:1012500090930D0280930C02089590E080E00E942C
:101260002609089521E030E0A90102C0440F551F6E
:101270008A95E2F7CA010E942609089521E030E02C
:1012800002C0220F331F8A95E2F780910C029091E1
:101290000D02822B932B0E942609089521E030E055
:1012A00002C0220F331F8A95E2F720953095809176
:1012B0000C0290910D02822393230E942609089527
:1012C00021E030E002C0220F331F8A95E2F78091BF
:1012D0000C0290910D02822793270E9426090895FF
:1012E00020910C0230910D02822B932B0E94260933
:1012F000089520910C0230910D02822393230E94C5
:101300002609089520910C0230910D02822793271F
:101310000E94260908950895262F277091E001C0A4
:10132000990F2A95EAF723E0769567952A95E1F7D4
:10133000660F771F660F771FFA01E60FF71F50E061
:1013400040E0682F70E08191DF0111979B01042E2E
:1013500002C0369527950A94E2F721702195282737
:10136000292328272C934F5F5F4F4430510559F7AD
:101370000895A82FA77023E0969587952A95E1F701
:10138000880F991F880F991FFB01E80FF91F50E084
:1013900040E080E0219130E00A2E02C0369527958A
:1013A0000A94E2F721703327042E01C0220F0A9419
:1013B000EAF7822B4F5F5F4F4430510559F708958C
:1013C000262F953070F48F3060F4682F70E08FE036
:1013D000989F600D711D112444EE51E0822F0E94F0
:1013E0008C090895292F953068F48F3058F490E0D7
:1013F00064EE71E03FE0239F800D911D11240E9457
:10140000B909089580E00895B0E0A0E0EAE0FAE0CC
:101410000C9492297C0100910C0210910D02809194
:101420000E0290910F02082B192BCFE0D0E0CC24B4
:10143000C394D12CBC2EC6010C2E02C0880F991F5C
:101440000A94E2F780239123892B49F4219790F79E
:10145000B12C8B2DCDB7DEB7E9E00C94AE29B701E6
:101460008C2F0E94E910019789F3F3CFCF93DF937C
:10147000EC010E94040ABE010E94E910DF91CF91A5
:1014800008951F93CF93DF93EB019091E30199238C
:1014900039F0CB010E94360ADF91CF911F91089558
:1014A000882369F0CB010E94040A182F682FCE010F
:1014B0000E94E009BE01812F0E94E910EDCFCB010F
:1014C0000E94F209182FF6CF1F93CF93DF93C0919C
:1014D000100216E0809111028C1304C0DF91CF91AD
:1014E0001F910895D0E01C9FF0011D9FF00D112465
:1014F000EE5EFD4F408151816281738184819581CF
:101500000E94EC082196C770E5CF409142025091AD
:10151000430260914402709145028091460290918D
:1015200047020E94EC080895209110029091110248
:1015300056E0291302C080E0089530E0529FF00188
:10154000539FF00D1124EE5EFD4F7181761306C09E
:101550007081781303C07281741304C02F5F3F4FF2
:101560002770E7CF81E008951F93CF93DF93809199
:101570004702807F09F04BC080914402882309F420
:1015800046C080911002C0911102409142025091D8
:1015900043026091450270914602D42FD52316E094
:1015A000C817A9F190E061157105A9F1DF3F99F124
:1015B000189FF001199FF00D1124DF01AE5EBD4FA1
:1015C00011962C911197251326C02C91241323C01A
:1015D00012962C91129721111EC013962D913C91B9
:1015E000261B370B283C3105B0F4809147028F70E1
:1015F000806180934702E95EFD4F80818F7080613A
:10160000808382E492E00E946F080E94640ADF9166
:10161000CF911F91089501968770C2CFA1E1B0E0EC
:10162000E4E1FBE00C948F298C0185E0F801DE01F8
:101630001D9601900D928A95E1F7F801F28082E4FF
:10164000A82E82E0B82E40914502509146024115E5
:10165000510509F45AC19091420220914302892F09
:1016600082238F3F09F451C1C080D1808380948050
:10167000E0904402B401641B750BEE2009F4F6C03F
:1016800080914702382F307F683C710508F0AFC069
:1016900031117AC0EF2C2D1116C09C1114C0F1101D
:1016A00012C08F708061809347020E94850AC50135
:1016B0000E946F0880914702F80185838E2D619604
:1016C000ECE00C94AB2981149104C9F18C2D8D218F
:1016D0008F3FA9F181E08F2580FF05C04F2D6D2D33
:1016E0008C2D0E94940A8114910459F18C2D8D2126
:1016F0008F3F39F181E08F25F82FF170BF2E80FFE9
:1017000039C04F2D6D2D8C2D0E94940AA82E811169
:1017100031C0CD86DE868D859E850E94360A292FB2
:1017200022952F70243078F49F702230A8F09923EE
:10173000B9F0F8019581907F99F4EA2CBFCF80E051
:10174000CBCF80E0D9CF2A5F2F70223068F0C8015C
:101750000E946F08AB2CF1CF992311F0882369F315
:10176000805E883050F3F3CF803F38F3815F833061
:1017700070F7E3CFFF2009F4A1CF80914702816089
:1017800080934702E12C9ACF2D1105C09C1103C014
:10179000FF2009F486C0C8010E94CF08882319F1F0
:1017A000FF2009F180914702803270F020914202BF
:1017B0003091430238872F8319869B868A868C87CF
:1017C000CE0107960E946F0886E0F801A2E4B2E01D
:1017D00001900D928A95E1F70E94B40A0E94850A51
:1017E000EE24E3946BCFC8010E946F08F9CF31114A
:1017F00014C0782D998A888AA6016F2D89890E9444
:10180000E20882E492E00E946F0886E0F5011192FE
:101810008A95E9F70E94850AB5CF2D110EC09C115B
:101820000CC0F1100AC08583C8010E946F0886E0D1
:10183000F50111928A95E9F741CFC8010E94CF08BE
:10184000882389F2FF2079F280914702803208F4E0
:10185000BBCF20914202309143023A8329831B82FD
:101860009D828C828E83CE010196ACCF683C71053F
:1018700008F03DC0EF2CFF2009F4B5CF2D1129C091
:101880009C1127C08091470280FD1AC0982F907F3D
:10189000B9F08583903F31F0982F907F905F8F70E3
:1018A000892B8583C8010E946F0886E0F801A2E4B5
:1018B000B2E001900D928A95E1F70E94850AFECE72
:1018C00086E0F801A2E4B2E001900D928A95E1F77A
:1018D000F5CEC8010E94CF08811176CF80914702D2
:1018E000816080934702C8010E946F08E7CE782D7F
:1018F000998A888AA6016F2D89890E94E20886E06C
:10190000F50111928A95E9F7D8CFFF2009F46BCF42
:10191000C8010E94CF08E82E882309F464CF86E02E
:10192000F801A2E4B2E001900D928A95E1F782E419
:1019300092E00E9423050E94B40ABFCFACE0B0E061
:10194000E4EAFCE00C9498294F83588769877A87EA
:101950008B879C87CE0107960E940E0B8823B1F0DF
:101960008A859B85892B39F04F815885842F852363
:101970008F3F09F06CC016E0809110029091110227
:10198000891343C02C96E3E00C94B42986E0FE0151
:101990003796DE01119601900D928A95E1F78A85BE
:1019A0009B85892B41F38F81988589238F3F19F37C
:1019B0002091110230E0C90101968770992740916A
:1019C00010024817190671F40E94AF081092110214
:1019D0001092100286E0E2E4F2E0DF011D928A95A7
:1019E000E9F7C9CF96E0929FD001939FB00D1124E3
:1019F000AE5EBD4FFE01319601900D929A95E1F7D2
:101A0000809311020E94640AB6CF819FC001112405
:101A10008E5E9D4F0E940E0B882309F4B3CFE09198
:101A200010021E9FF0011124EE5EFD4F4081518196
:101A300062817381848195810E94EC0880911002FB
:101A400090E00196877099278093100295CF698561
:101A50007A858B859C850E94EC088DCF682F8091BC
:101A60000401909105010E9433210895682F80910F
:101A70000401909105010E9436210895809104018E
:101A8000909105010E943921089580915002859519
:101A9000859585950895809150028770089590915D
:101AA0005002977081E009F480E0089580915B0214
:101AB000089590915B02892B80935B020895809535
:101AC00090915B02982390935B02089510925B02C1
:101AD000089590915A02892B80935A020895809517
:101AE00090915A02982390935A02089510925A02A4
:101AF000089580915102089508950E947C0D0895E3
:101B00009091C60292FF08C090915102981721F05F
:101B1000809351020E947D0D089580915102882387
:101B200029F01092510280E00E947D0D0895CF931C
:101B3000DF93E0910401F091050180915B028083C5
:101B4000E0910401F0910501808190915A02892B66
:101B5000808390915102992381F0E0910401F091EA
:101B600005018081892B808380910401909105017A
:101B70000E94EB2081110E948D0DC0910401D09133
:101B8000050148E050E068E472E0CE010E94292A95
:101B9000892B59F088E0FE01A8E4B2E001900D9293
:101BA0008A95E1F7CE010E948820DF91CF910895B8
:101BB00008950E94D80D08959091C60292FF11C019
:101BC00098E0899F90011124622B609350020E943B
:101BD0003E09809150028595859585950E94D90D85
:101BE00008950E943E0908951092500280E00E94DC
:101BF000D90D0895909150028095892380935002C9
:101C0000282F277091F4282F082E000C330B9217E1
:101C1000130659F09091C60292FF07C085958595ED
:101C200085950E944E090E94F40D08959091C60278
:101C300092FB222720F9281769F080FB92F99093F4
:101C4000C6028091C5029091C6020E945E0E82E09B
:101C50000E94FA0D08958091C60282FB882780F9C0
:101C600091E089270E94160E089581E00E94160EC9
:101C7000089580E00E94160E08956FEF7FEF90E0C8
:101C800080E00E94712A089590E080E00E944D2A31
:101C900021E0873E9E4F09F020E0822F089582E0E8
:101CA00090E00E943F2A089583E090E00E943F2A3E
:101CB000089584E090E00E944D2A0895BC0184E0DC
:101CC00090E00E94712A0895AB01BC018FE090E082
:101CD0000E94652A0895AB01BC0183E190E00E9457
:101CE000652A089560E070E0CB010E946B0E0895B4
:101CF00060E070E0CB010E94640E0E94720E0895B5
:101D000067EE7EEF90E080E00E94712A60E082E062
:101D100090E00E94532A60E083E090E00E94532A02
:101D200010920F0210920E0260E074E184E090E0E5
:101D30000E94712A60E086E090E00E94532A6FEFD3
:101D400087E090E00E94532A40E050E0BA0188E02A
:101D500090E00E94652A60E08DE090E00E94532AA6
:101D600040E050E0BA0188E190E00E94652A60E01E
:101D700087E190E00E94532A40E050E0BA018CE1F4
:101D800090E00E94652A70E060E080E290E00E94AE
:101D9000712A40E050E0BA0188E190E00E94652A93
:101DA0000E94780E08950E94800E0895682F8EE09C
:101DB00090E00E94532A0895A5E0B0E0E2EEFEE034
:101DC0000C9497290E94F0218C0180915C029091E3
:101DD0005D0280179107A1F08FEF89838A831B82B0
:101DE0000E94F0218160782F9D838C8349815A81E4
:101DF0006B818D810E94EE0410935D0200935C0262
:101E00002596E4E00C94B3290E94FC2160936C02B7
:101E100070936D0280936E0290936F0260936802DC
:101E20007093690280936A0290936B0208950895FB
:101E300008950E94180F089508950E941C0F089598
:101E400081E0089583ED91E10E9471200E94170FB7
:101E50000E94190F08950E94200F08950E942B0FD1
:101E60000895089508950E94310F0E94320F089539
:101E70000E94F2110E94C20408950E94E7210E946C
:101E8000CE120E94380F0E94ED1B0E941D0F089574
:101E9000A5E0B0E0EEE4FFE00C948E290E94200F54
:101EA00081110CC00E94DC0E0E94201C0E940215B1
:101EB0000E94D5042596EDE00C94AA290E94E41214
:101EC0002EE5822E22E0922E640110E0F601E190D0
:101ED000F1906F01812F0E9415121F5F153009F4D8
:101EE00049C0E816F90691F38091700281FD0E94C5
:101EF0001E120E942E0F782E10E0812F0E941512C4
:101F00007C01F401A190B1904F018A159B0561F10C
:101F100000E0CC24C394D12CAE24BF24C5018C2175
:101F20009D21892BC1F07720B1F009831A8321E02C
:101F3000C7018C219D21892B09F420E02B830E946D
:101F4000F0218160782F9D838C8349815A816B8138
:101F50008D810E94EE040F5FCC0CDD1C0F30F1F67A
:101F6000F4013297F182E0821F5F153031F60E9452
:101F7000040F9ACFE816F90609F0B6CF93CF1F9356
:101F8000CF93DF930E94EE10EC01C11580E5D807D6
:101F9000F0F5C11580E4D80708F09CC0C03ED1051B
:101FA00020F5CD3CD10508F082C0C83AD10578F4BF
:101FB000C53AD10508F073C0C130D10519F1209799
:101FC00009F1C430D105F0F4D0E0C0E01BC0C33C3F
:101FD000D105D0F7C85AD0E0CC0FDD1FCD59DE4F68
:101FE0000990D881C02DD4640DC0C11580E2D807F6
:101FF00008F0D1C0C11581E0D80708F05AC0C83E2A
:10200000D10510F7CE01DF91CF911F910895C03611
:1020100082E5D80718F5C03482E5D80708F06BC010
:10202000C03282E5D80708F05FC0C11582E5D80745
:1020300008F497C02C2F2695269580E2289F9001C2
:1020400011248C2F8370C1E0D0E002C0CC0FDD1FC3
:102050008A95E2F7C22BD32BDD68D4CFC03A82E554
:10206000D80760F4C03882E5D80708F459C0CF71AA
:10207000D0E0DC2FCC27C46FD06AC4CFC03C82E54F
:10208000D80708F462C0C03E82E5D80708F09CCFAC
:10209000DC2FCC27CC27DF71C06FD06AB3CFC55AF5
:1020A000D0E0C756DE4FC881D0E0D064ABCFD0655A
:1020B000A9CF8D2F0E949011182FCE0199270E9431
:1020C000EE10C12FD0E0DC2FCC27CC27DF71C82B3E
:1020D000D92B98CFCE0199270E94EE10CC27DF7024
:1020E000C82BD92BD06A8ECFCF71D0E0DC2FCC2774
:1020F000C16FD06A87CF2C2F26952695277080E256
:10210000289F900111248C2F8370C1E0D0E002C081
:10211000CC0FDD1F8A95E2F7C22BD32BDC6872CF80
:102120002C2F26952695277080E2289F9001112458
:102130008C2F8370C1E0D0E002C0CC0FDD1F8A95E8
:10214000E2F7C22BD32BDA685DCF8C2F8F710E9400
:102150009011C82FD0E0DC2FCC27CC27DF71D062C4
:1021600051CF8C2F8F710E94901155E0D695C79555
:102170005A95E1F7CF70D0E0DC2FCC27282F30E044
:1021800084FF05C044E0220F331F4A95E1F7C22BBC
:10219000D32BD06937CF8D2F8F710E949011182FBC
:1021A000CE0199270E94EE10C12FD0E0DC2FCC2762
:1021B000CC27DF71C82BD92BD2CF462F753030F406
:1021C0006F3020F4672F0E94DE03089590E080E0D6
:1021D00008950E94DD100E94BF0F08958238910576
:1021E000B9F1B0F48133910509F47DC048F4893226
:1021F000910509F46DC08A32910509F47BC00895F8
:102200008533910509F45FC08933910509F108957B
:10221000833E9105D9F138F4803E910529F1823E43
:10222000910579F10895863E9105D9F1873E910592
:1022300009F43EC0843E910541F52091C60221FF7C
:1022400024C08091C50284FD19C087EE90E00895F6
:102250002091C502237009F05AC02091C60223FFC5
:1022600014C089E290E008952091C50220FD38C095
:102270003091C60230FF09C024FF43C090E080E0E7
:1022800008952091C50222FDF7CF08952091C5023F
:1022900022FD3AC03091C60230FD39C024FFF5CF8F
:1022A000EDCF2091C50223FFF0CF24FDE7CFCDCFA6
:1022B0002091C50223FD2EC03091C60231FFEECF22
:1022C00084EE90E008952091C50225FFDECFC9CFAE
:1022D0002091C50225FD21C02091C60223FFD5CF44
:1022E00089E390E0D2CF2091C50226FFCECF8AE2CB
:1022F00090E008952091C50226FFC7CF81E390E0CA
:10230000089583EE90E0089582EE90E0089580EEC7
:1023100090E0089586EE90E0089585E390E00895BA
:102320009091C50292FF06C0282F28712830F9F439
:10233000877F846093FF06C0282F28712831F1F42D
:10234000877E84612091C60220FF06C0382F387135
:102350003830D9F4877F816021FF06C0282F28718B
:102360002831D1F4877E816194FD877E0895282FDE
:1023700024712430F9F68B7F8860DCCF282F2471FC
:10238000243101F78B7E8861DDCF382F31713130F8
:1023900019F78E7F8860E0CF282F2171213121F736
:1023A0008E7E8861E1CF80E008950E943D0E089501
:1023B0000E94E4122FEF86E791E021508040904088
:1023C000E1F700C000000E94E41280E00E941512B4
:1023D00080FF04C00E94D5110E943B2208950E94F4
:1023E000D81108950E94440E811102C00E94D30E9C
:1023F0000E944F0E809370020E94590E9093C60265
:102400008093C5020E94EF110E94540E90E00E943A
:10241000020980910C0290910D020E9423090895F7
:10242000089508950E9411120895E82FF0E0EE0F2C
:10243000FF1FEF52FD4F808191810895089580EA3A
:102440008A95F1F7089500C008950E941F1208951B
:10245000F894E82FE295EF70F0E031A1282F2F706B
:1024600081E090E001C0880F2A95EAF7982F9095B7
:10247000932391A392A1892B82A3789408950F931B
:102480001F93CF93DF93CBEAD1E089918F3F11F077
:102490000E94281281E0C03BD807B9F7CCE9D1E00F
:1024A0000BEA11E089918F3F11F00E9428120C175E
:1024B0001D07C1F7DF91CF911F910F910895AF9242
:1024C000BF92DF92EF92FF920F931F93CF93DF9310
:1024D0008C01D62EC62FD0E0CE0185559E4F7C01B3
:1024E000FC0120812F3F09F44CC0F894E22FE295C3
:1024F000EF70F0E031A12F7081E090E001C0880F13
:102500002A95EAF7932F982B91A392A1809589237E
:1025100082A378940E942312ECE9F1E041E050E0BC
:10252000B12CA12C21912F3FB1F1A22FA295AF7018
:10253000B0E090968C9190E02F7002C095958795B1
:102540002A95E2F780FD27C0CA01A82AB92A440FBC
:10255000551F81E0EB3AF80729F7F70180818F3F9B
:1025600011F00E94281261E0A114B10409F460E0A6
:102570008D2D0E942512CC0FDD1FC00FD11FB982F7
:10258000A882DF91CF911F910F91FF90EF90DF9084
:10259000BF90AF90089590E080E0D7CF0E943F12A7
:1025A0008AE0E1EDF2E0DF01982F1D929A95E9F7BC
:1025B000E7ECF2E0DF011D928A95E9F785E00E94E1
:1025C0001F130E94B9030895AAE0B0E0EAEEF2E119
:1025D0000C9496298E010F5F1F4F8AE0F80111922B
:1025E0008A95E9F7F12C6F2DC8010E945F12F394D0
:1025F000F5E0FF12F8CF4AE050E0B80187EC92E036
:102600000E94292A21E0009709F420E0892B41F05B
:102610008AE0F801A7ECB2E001900D928A95E1F70B
:1026200045E061ED72E087EC92E00E942013182FE4
:102630000E941212812F2A96E5E00C94B229089587
:10264000CF92DF92EF92FF921F93CF93DF936C01B3
:102650007B01C42F222349F081E0809373020E9402
:10266000F021909372028093710210917302111104
:102670000AC010E0812FDF91CF911F91FF90EF9062
:10268000DF90CF90089580917102909172020E9424
:102690000822059770F3D0E0CC0FDD1FAE01B60124
:1026A000C7010E94292A892B41F0AE01B601C7015A
:1026B0000E94362A10927302DDCF10E0FBCF0E94F9
:1026C000C4230E943D0F0E94D12308950E94D62367
:1026D0000E94480F0E94F02308950E9489210E94C1
:1026E000AA230E94220F0E945F130E9466130E9479
:1026F000330FFBCF80917A0280FF0DC060910B01F8
:1027000070E0660F771F6038710570F5611571050F
:1027100069F1862F089581FF07C060910B0184E065
:10272000689FB0011124EFCF60910B0182FD0AC0B8
:10273000809179028823A9F020910A0160910B0110
:10274000821710F088E0ECCF869FC001112433E09F
:10275000880F991F3A95E1F7622F70E00E941C29BB
:10276000D2CF68E070E0D5CF8FE7089581E008957B
:1027700080917A0280FF0CC06091070170E075952E
:102780006795759567956115710549F1862F0895CF
:1027900081FF06C06091070170E075956795F3CFE2
:1027A0006091070182FD0BC0909178029923A1F0FE
:1027B0006091060180910701961738F0682F70E04C
:1027C0006038710500F38FE70895899FC0011124D7
:1027D00070E00E941C29F4CF61E070E0D7CF81E067
:1027E00008958D3C31F40E947A13819580937E0286
:1027F00008958E3C19F40E947A13F8CF8F3C31F47F
:102800000E947A13819580937D020895803D19F48A
:102810000E947A13F8CF893D29F40E94B81380935F
:102820007F0208958A3D21F40E94B8138195F7CF65
:102830008B3D31F40E94B8138195809380020895F6
:102840008C3D19F40E94B813F8CF9FE2980F98308E
:1028500070F4815D990B21E030E001C0220F8A9570
:10286000EAF780917C02822B80937C0208958D3D53
:1028700031F480917A02816080937A0208958E3DCE
:1028800021F480917A028260F7CF8F3DB9F7809171
:102890007A028460F1CF40917D028D3C59F48091A1
:1028A0007E0287FF0DC010927E0241110BC0109274
:1028B000790208C08E3C81F480917E0218169CF348
:1028C000442381F080917F0290918002892B09F04E
:1028D0005AC01092780208958F3C49F447FFF0CF18
:1028E00010927D0280917E028111ECCFE0CF803D7D
:1028F00019F41416ACF3E4CF90917F02893D29F4CA
:102900001916F4F610927F02DBCF8A3D19F497FF77
:10291000D7CFF8CF909180028B3D29F497FFD0CF8D
:1029200010928002CDCF8C3D19F41916CCF3C8CF8C
:102930009FE2980F983090F4815D990B21E030E090
:10294000B90102C0660F771F8A95E2F7CB01809527
:1029500090917C02892380937C02B2CF8D3D31F42B
:1029600080917A028E7F80937A02AACF8E3D21F4E5
:1029700080917A028D7FF7CF8F3D09F0A1CF8091B2
:102980007A028B7FF0CF08950E94F0219C019091F4
:102990007D0280917E02982B21F030937702209364
:1029A000760290917F0280918002982B21F03093E3
:1029B0007502209374028BE792E00E9493200895A1
:1029C00086E0EBE7F2E0DF011D928A95E9F71092CD
:1029D00079021092780210927A020895FC018281A5
:1029E00081110EC0838181110BC08481811108C0C7
:1029F00091E08581811101C090E0892F8170089557
:102A000081E0FCCFA6E0B0E0E8E0F5E10C94982985
:102A100086E0EBE7F2E0DE01119601900D928A95D7
:102A2000E1F710927D0210927E0210927F021092C6
:102A300080028B819C81892B89F080917602909114
:102A400077020E940822AC01909179029923C9F182
:102A500080910C018417150608F440C08D819E8179
:102A6000892B91F080917402909175020E94082246
:102A7000AC0190917802992309F471C0809108010A
:102A80008417150608F479C0BE016F5F7F4F8BE78E
:102A900092E00E944021811105C08BE792E00E94E4
:102AA000EE1481110E94C41486E0FE013196ABE75A
:102AB000B2E001900D928A95E1F72696E3E00C943E
:102AC000B42920910D018AE0289F90011124241738
:102AD000350720F69F5F9093790202C09F3FD1F7A0
:102AE0001B81112359F00E947A139FEF11160CF4E9
:102AF00091E0899F802D112480937D021C811123F8
:102B000059F00E947A139FEF11160CF491E0899FFF
:102B1000802D112480937E0230917D02332309F4AD
:102B20009DCF20917E02222309F498CF45EB3403F8
:102B3000C0011124992359F090937D0245EB2403A1
:102B400090011124332339F030937E0287CF81E046
:102B500080937D02F3CF81E080937E027FCF20912E
:102B600009018AE0289F900111242417350708F0F5
:102B70008BCF9F5F9093780202C09F3FD1F71D815A
:102B8000112359F00E94B8139FEF11160CF491E035
:102B9000899F802D112480937F021E81112359F07B
:102BA0000E94B8139FEF11160CF491E0899F802DBD
:102BB00011248093800230917F02332309F464CF83
:102BC00020918002222309F45FCF45EB3403C0013A
:102BD0001124992359F090937F0245EB240390012F
:102BE0001124332339F0309380024ECF81E080935B
:102BF0007F02F3CF81E08093800246CFEF92FF9275
:102C00000F931F93CF93DF93EB01E82FD1110EC0E9
:102C1000442321F0F0E0EC54FB4FE4916E2F7E2F23
:102C20008E2FCDB7DEB7E6E00C94B1290D2F10E062
:102C3000282F30E0442329F02C543B4FF9012491F4
:102C400030E0F6E0CF9FC0011124EFEFF0E0BF01CC
:102C50000E940829AB018C2F90E0880F991FA5E5F1
:102C6000A49FB001A59F700D1124861B970B982F70
:102C7000990F980FBF01601B710B629FD001639F7A
:102C8000B00D729FB00D11248B2F9D9FB0011124A8
:102C9000672F7727EF01C61BD70BBE01629FE001AC
:102CA000639FD00D729FD00D11247F01E91AF108A6
:102CB000E09EB001E19E700DF09E700D1124672F13
:102CC0007727E61BF70BE29F8001E39F100DF29F31
:102CD000100D1124E12F722F4230510599F048F464
:102CE0004115510569F04130510581F0EB2F8D2FD1
:102CF00007C04430510569F080F046305105B1F706
:102D00006E2F8FCFE22F7B2F812FFACFE22F7D2FD7
:102D1000F7CFEB2F822F712FF3CF7B2F822FED2F49
:102D2000EFCF41E00E94FE15089508950E9491168C
:102D30000895CF93DF93762FE901682F842F0E94A7
:102D40009616798368838A83DF91CF910895809165
:102D5000DB02982F9E7F29F4817082608093DB02D2
:102D600008958635E8F381708465F8CF88E090E0B7
:102D70000E94472A0895CF92DF92EF92FF926B0153
:102D80007C010E94A716B701A60188E090E00E948E
:102D9000652AFF90EF90DF90CF900895EBEDF2E081
:102DA00083E0808311828FEF82838383148260812A
:102DB0007181828193810E94BB1608958091DB020C
:102DC00080FF02C08695089580E008959091DF020B
:102DD000933018F49F5F9093DF02882351F0609145
:102DE000DB027091DC028091DD029091DE020E9494
:102DF000BB16089581E00E94E61608959091DF02C7
:102E0000992319F091509093DF02882351F060913B
:102E1000DB027091DC028091DD029091DE020E9463
:102E2000BB16089581E00E94FE16089570E00E948E
:102E30004B1D0895609112018091DB0280FF0BC051
:102E40008091110123E0829FC001112480529D4F87
:102E50000E9416170895809113019091140123E0A8
:102E6000829FF0011124E052FD4F891748F711822B
:102E7000108212828F5F3396F8CF9091DB0290FF21
:102E80000EC0909113012091140133E0939FF00143
:102E90001124E052FD4F921718F00E941A1708955E
:102EA0008183608342839F5F3396F5CFA3E0B0E0D8
:102EB000ECE5F7E10C9499299091DB0290FF0AC0B0
:102EC0009E012F5F3F4F0E9499164B8169818A8135
:102ED0000E943D172396E2E00C94B529CF93DF932F
:102EE000EC01EC81F0E0E155FC4F4491EBEDF2E0B8
:102EF000628181810E9456178C818F5F8C83DF9164
:102F0000CF910895CF93DF93EC01EBEDF2E0438195
:102F100062818C810E9456178C818F5F8C83DF9138
:102F2000CF910895A3E0B0E0E8E9F7E10C94972988
:102F30008C018091810281110AC09E012F5F3F4F59
:102F40004FEF6FEF0E9499168A8180938102F801FA
:102F50006481613069F08091810240E0662361F014
:102F600040E0623011F44091810280E060E004C0F2
:102F70006091810240E080E00E943D17F801848169
:102F800090E0019663E070E00E941C298483239600
:102F9000E4E00C94B329A3E0B0E0E1EDF7E10C9498
:102FA0009229082FD62EE42EC22E9091DB0290FF9C
:102FB00029C0E92FE695AE2FB0E0A055BE4F8C9109
:102FC0008093A9029E7F923009F59E012F5F3F4FAB
:102FD000802F0E9499164B8169818A810E943D173A
:102FE0000093DC02D092DD02E092DE02CC2051F0B0
:102FF0006091DB027091DC028091DD029091DE0233
:103000000E94BB162396E9E00C94AE29823019F495
:10301000E090DE02E5CF863019F40091DC02E0CFCB
:103020008930D9F38931E1F6E9516E2F6170B62EFE
:10303000E695F0E0E155FB4F1491F12C60911501FC
:10304000F61618F00E941A17CBCFF19EC00111247A
:1030500070E00E940829802FB11014C0860F2091C3
:103060001301622F6F0D7727771F9B01220F331FEC
:10307000260F371F20523D4F4E2D6D2D0E94991661
:10308000F394DCCF861BEBCFEBEDF2E09181282FA0
:10309000438162818CE0890F0E94CB17089581E003
:1030A0000E9444180895EBEDF2E09181282F4381AE
:1030B000628184EF890F0E94CB17089581E00E94FE
:1030C00053180895EBEDF2E0628129E1620F08F4F4
:1030D0006FEF282F438181810E94CB17089581E0F3
:1030E0000E9462180895EBEDF2E0628129E1621B13
:1030F00008F460E0282F438181810E94CB17089556
:1031000081E00E9473180895EBEDF2E043812CE01A
:10311000420F08F44FEF282F628181810E94CB1764
:10312000089581E00E9484180895EBEDF2E0438158
:103130002CE0421B08F440E0282F628181810E942C
:10314000CB17089581E00E949518089520E00E9411
:10315000CB170895EF92FF921F93CF93DF93EC016B
:1031600010E0EE24EA94F12C60911501161770F02E
:103170000E941A179A818C8190FF27C08F5F8C83E1
:10318000DF91CF911F91FF90EF900895209113014F
:10319000422F410F5527551FCA019A01220F331F95
:1031A000280F391F20523D4F70E0C7010E941C2993
:1031B000962F8C814091DE026091DD02199F800D77
:1031C00011240E9499161F5FCFCF8150D8CFB0E055
:1031D000A0E0EDEEF8E10C949129FC0182810FEF63
:1031E00080FF01E010E046E0A42E80911501181741
:1031F00098F00E941A1780918302013009F04FC0A5
:10320000811102C080911501815080938302CDB756
:10321000DEB7EAE00C94AD29C0911301C12ED12C88
:10322000CC0DDD2DD11DCE01880F991FC80FD91FE0
:10323000C052DD4F198218821A8234E0E32EF12C3D
:10324000B12C809183028B0D87301CF16A2D0E9476
:10325000FA28892F082E000C990BC816D90691F46C
:103260008091DE028E9DA0018F9D500D11245595F9
:103270004795559547959E016091DD028091DC024E
:103280000E949916B00EF1E0EF1AF108D1F61F5F17
:10329000ACCF87FFDFCF90911501890FDBCF90E096
:1032A00001966091150170E00E941C29AECF0F932A
:1032B0001F93CF93DF93809113019091140123E02A
:1032C000829FF0011124E052FD4F891740F1C0E0C8
:1032D000D3E060911501C61740F10E941A172091A2
:1032E0000F0180918202820F8093820290911001DF
:1032F000920F90931001191654F4082E000C990B9C
:10330000409115014150550B841795071CF02195EC
:1033100020930F01DF91CF911F910F91089511829A
:10332000108212828F5F3396D0CF0C2F10E070E0A6
:10333000C8010E941C2920911301820F482F50E0E0
:1033400020918202022E000C330B02171307BCF0EF
:1033500020911001022E000C330B201731077CF056
:103360008D9F9001112420523D4F4091DE026091CB
:10337000DD028091DC020E949916CF5FAACFFA018C
:10338000EE0FFF1FE40FF51FE052FD4F1182108278
:103390001282F3CFB0E0A0E0E0EDF9E10C948F29C8
:1033A000EC014C81042F10E09801D8010E946029A3
:1033B0009B01AC010E9476294B015C01E0E2F0E048
:1033C000E01BF10BA5E5B0E0AC019B010E94762962
:1033D0006B017C019F01DF010E9458299B01AC0118
:1033E0000E9481299B01AC01280D391D4A1D5B1DDE
:1033F000C701B6010E943029F22E822F90E039E2F7
:103400003F1520F143E0249F900111243595279525
:10341000122F109500E085E5E82EEF188091150138
:10342000081718F10E941A179C8181E0992319F05E
:10343000903219F48FEF80930E0180910E01890F65
:103440008C83CDB7DEB7ECE00C94AB2925E530E0FA
:10345000B901681B790B9B01220F331F260F371F01
:1034600037FFD4CF2F5F3F4FD1CF8E2D01FD8F2D52
:1034700020911301622F600F7727771F9B01220F86
:10348000331F260F371F20523D4F412F6091DD0221
:103490000E9499160F5FC2CF0F931F93CF93DF93B4
:1034A000EC0110E000E0909115019017110609F071
:1034B0006CF40E941A178C8190E001968170992714
:1034C0008C83DF91CF911F910F910895209113016B
:1034D000A801420F511D9A01220F331F240F351FDF
:1034E00020523D4F4C816091DD028091DC02969527
:1034F0009017110651F04CF0442349F04091DE0240
:103500000E9499160F5F1F4FCECF4423B9F340E0BE
:10351000F7CFB0E0A0E0EFE8FAE10C948B29FC01D2
:103520006280448081E08483EFEAF3E07490EEE20D
:10353000F4E0E491C091DE02C695C158D0E0CC0F12
:10354000DD1FCD2FDD27812C75E0972EAA24AA94AC
:10355000B12C55245A94E719EE2EF12C80911501C7
:10356000881638F00E941A17CDB7DEB7E0E10C9448
:10357000A729C82CD12C82E0861568F09C9CF0010C
:103580009D9CF00D1124EC57FD4F8091DC0280834F
:103590008091DD028183411023C09C9CF0019D9CA1
:1035A000F00D1124EC57FD4F13821282209113016C
:1035B000C601820F911D9C01220F331F280F391F56
:1035C00020523D4F9C9CF0019D9CF00D1124EC5726
:1035D000FD4F4281618180810E9499168394BECF04
:1035E0009C9C80019D9C100D11240C571D4FF801CF
:1035F00083818823F1F081508383859DC00111244C
:10360000648170E00E940829FB01FF27E155FC4F0F
:103610008491E82FE719E59DC0011124B7010E94AC
:1036200008298091DE02689FB0011124F80172839D
:10363000BDCF0E940C2AB5010E941C298C179D0742
:103640000CF0B4CFF2E0F61598F40E940C2AB50104
:103650000E941C29F80180830E940C2A2091DD021F
:103660002695622F70E00E941C29280FF801218303
:103670009C9CF0019D9CF00D1124EC57FD4F128293
:103680008091DE02893C58F088EC9C9CF0019D9C66
:10369000F00D1124EC57FD4F8483838387CF843151
:1036A000A0F784E1F2CFEBEDF2E080818E7F8083A2
:1036B00060817181828193810E94BB161092AA025F
:1036C0000E941A1708956091DB02669570E04BE046
:1036D00050E086E191E00E941C2A892B19F481E0D8
:1036E0008093AA020E94F0219093A3028093A202E9
:1036F00008959091DB0290FF2BC09170811129C039
:1037000092609093DB02662351F06091DB0270912E
:10371000DC028091DD029091DE020E94BB16609176
:10372000DB02669570E04BE050E086E191E00E949C
:103730001C2A892BA9F01092AA0281E08093A5028D
:103740004091DE026091DD028091DC020E94A618A9
:1037500008958B3210F09465D4CF880F982BD1CF79
:103760000E94631BEACF682F9091DB02969581E05F
:10377000890F8B3208F081E00E94791B089581E067
:103780000E94B31B0895682F9091DB0296958FEFEE
:10379000890F09F48AE20E94791B089581E00E9452
:1037A000C31B089561E00E94791B0895EBEDF2E0E0
:1037B00080818160808386950E94D21B08958091CC
:1037C000DB0280FF03C00E94531B08950E94D61B9A
:1037D000089560E00E94791B08958091A8028111EC
:1037E0002EC00E94440E811104C00E94D30E0E947C
:1037F000CE160E94B6166093DB027093DC028093B3
:10380000DD029093DE026E7F61F40E94CE160E946C
:10381000B6166093DB027093DC028093DD02909316
:10382000DE020E94A7161092AA028091DB0280FF9E
:1038300003C086950E94E91B81E08093A802089549
:103840000F931F93CF93DF938091AA028823B9F13E
:103850008091A902E091DB02E695E81BE093A402C7
:10386000823091F5F0E0E555FC4FE491CE2FD0E0A9
:103870000EE617E18091A502882361F01092A5025F
:103880000E94F0219093A3028093A2021092A702BB
:103890001092A6020E94F021E091A202F091A302F0
:1038A0008E1B9F0B8F3F9F4750F4EC0FFD1FF09333
:1038B000A302E093A20282EA92E0F8010995DF9167
:1038C000CF911F910F910895863049F4F0E0E855AB
:1038D000FC4FE491CE2FD0E002E817E1CBCF893046
:1038E00051F4E695F0E0EB55FC4FE491CE2FD0E09B
:1038F0000AEA18E1BFCF8F3051F4E695F0E0EE55BB
:10390000FC4FE491CE2FD0E007EE18E1B3CF853124
:1039100049F4F0E0E156FC4FE491CE2FD0E007E50A
:1039200019E1A8CFC8E2D0E00AEC19E1883109F426
:10393000A1CF833239F4EDE9F3E0C591D49102E9E6
:1039400017E198CFC4EFD1E00CE41AE1843209F416
:1039500091CFC0EDD7E005E916E1853209F08ACFB5
:103960008E2F63E00E94EE28E92FF0E0E656FC4F30
:10397000E491CE2FD0E009E81AE17CCFFA01811161
:1039800001C0FB0109950895CF93DF93C82FD62F6F
:103990000E94DE168C1748F00E94DE168D1728F460
:1039A0000E94BF1BDF91CF9108958C2F0E94D21BE4
:1039B000F9CF1F93CF93DF93EC01FB01128111111B
:1039C00010C00E94560D8272FE01E052F847E531A8
:1039D000F10508F05EC0EC54F54D0C9452290E949C
:1039E000DF1B812FDF91CF911F9108954EEC5BE19A
:1039F0006FEB7BE10E94BE1CF4CF4FEB5BE16EEC02
:103A00007BE1F8CF4EE558E16FE478E1F3CF4FE486
:103A100058E16EE578E1EECF40E858E16FE678E1F5
:103A2000E9CF4FE658E160E878E1E4CF42EA58E1B7
:103A300061E978E1DFCF41E958E162EA78E1DACF84
:103A400042E157E16AEF76E1D5CF4AEF56E162E114
:103A500077E1D0CF81E00E94D21BC3CF65E082E046
:103A60000E94C41CBECF68E086E0FACF6EE089E019
:103A7000F7CF64E18FE0F4CF67E185E1F1CF88E132
:103A8000EACF62E289E1ECCF83E2E5CF6AE285E248
:103A9000E7CF11E0A6CF869A41B34F7B51B3506474
:103AA000EFB7F8949B01220F331F260F371F280F03
:103AB000391F2817390741F4EFBF8FE594E00197CC
:103AC000F1F700C000000895DC016D91CD0178E0B0
:103AD00051BB000000C067FF41BB660F000000C083
:103AE00000C000C041BB00C07A9591F7E2CFCF93F0
:103AF000DF93EC01FB018281882309F4D2C09E018F
:103B000030572332310508F0B2C00E94590E90930D
:103B1000C6028093C502FE01E150F047E232F10592
:103B200020F4E753F54D0C9452298091C502816031
:103B30008093C50293C08091C60288608093C602BC
:103B40008DC08091C5028260F3CF8091C5028460F0
:103B5000EFCF8091C5028860EBCF8091C602816073
:103B6000EDCF8091C6028260E9CF8091C50280616D
:103B7000DFCF8091C5028062DBCF8091C502806477
:103B8000D7CF0E94AF088091C5028068D1CF8091C5
:103B9000C5028C60CDCF8091C6028360CFCF80916B
:103BA000C5028E7FC5CF8091C602877FC7CF809127
:103BB000C5028D7FBDCF8091C5028B7FB9CF80912B
:103BC000C502877FB5CF8091C6028E7FB7CF809127
:103BD000C6028D7FB3CF8091C5028F7EA9CF809121
:103BE000C5028F7DA5CF8091C5028F7BA1CF0E949A
:103BF000AF088091C5028F779BCF8091C502837FEC
:103C000097CF8091C6028C7F99CF8091C50282FBAD
:103C1000992790F921E0922790FB82F990FB83F994
:103C200087CF8091C602982F909591708E7F892BB7
:103C300090FB81F983CF9091C502892F8F7B96FFEE
:103C4000806476CF0E94AF089091C502892F97FBC0
:103C500087F980586DCF81E00E94D60E8091C50211
:103C60009091C6020E945E0E0E94AF0880E0DF9134
:103C7000CF91089580E0F0CF9091C502892F8F7E7B
:103C800094FF806155CF9091C502892F8E7F90FF60
:103C900081604ECF9091C602892F877F93FF886005
:103CA0004DCF81E0E4CF8B3109F465C040F58B3016
:103CB00071F078F4863009F447C020F4853059F16A
:103CC00080E00895873009F448C08830C9F781E062
:103CD0000895803109F45DC068F48E3089F79091C1
:103CE0007002892F8B7F92FF84608093700282FD27
:103CF0004CC0EDCF863159F3893149F3E1CF8A3297
:103D000001F160F48732B1F020F48E31C8F28D51A8
:103D10004CC08932A9F60E943F04D9CF833440F4C5
:103D20008A3308F041C0853329F0883381F2C8CF47
:103D3000833431F681E090E00E9402090E94AF08CE
:103D4000C6CF0E94D30EC3CF80917002807F809334
:103D5000700281E08093AE02089590917002892FE5
:103D60008E7F90FF81608093700280FDB0CF817F55
:103D700080937002ACCF90917002892F8D7F91FF5C
:103D800082608093700281FFA2CF80917002816077
:103D9000EFCF90917002892F877F93FF8860809387
:103DA000700283FDF2CF93CF895321E030E0A90167
:103DB00002C0440F551F8A95E2F7CA01BDCF80E0CB
:103DC00008950E94DF1E0895CF93C82F8091AE0200
:103DD0008130B9F0882331F08230A1F11092AE0227
:103DE00080E00DC00E94560D8232D1F78C2F0E94C8
:103DF000DF1E81111BC08C2F0E94531E8170CF913A
:103E000008950E94560D823289F38C2F0E94E11E84
:103E100081110AC0C43199F060F4CB3029F0C0316F
:103E200069F782E08093AE0281E0E8CF81E090E024
:103E3000E5CFC93221F0C833B9F380E0DFCF10926B
:103E4000AE02FBCFC93209F440C0F0F4C431E9F14D
:103E5000A8F481E0C73099F680930D0184E1809346
:103E60000C018AE080930B018EE180930A0188E0C7
:103E70008093070188E28093060104C082EE8C0FD4
:103E80008A3070F181E0BBCFC03509F450C0B8F47E
:103E90008AE0CF34B9F7E091AB02F091AC023097F1
:103EA00089F32081082E000C990B820F911D8F3F02
:103EB000910509F00CF43FC08FEF8083E3CFC1354B
:103EC000C1F181E0C23539F39ACF8091AD028823E8
:103ED000C9F21092AD021092AC021092AB02D2CF96
:103EE000CD51C093AD02C330C9F048F4C13099F050
:103EF0008CE091E0C23051F01092AD02C3CFC530DA
:103F000099F078F086E091E0C630B1F79093AC027A
:103F10008093AB02B7CF8DE091E0F8CF8BE091E0DA
:103F2000F5CF8AE091E0F2CF87E091E0EFCF86EF26
:103F3000B2CF8FEFB0CF97FFC0CF1082A3CFCF9378
:103F4000DF93EB0186319C4711F50E94560D9A8153
:103F5000992399F08A7A91E009F490E09093AF0266
:103F6000811109C089E20E942E0D0E94970D80E008
:103F7000DF91CF91089585E3F6CF8091AF02811153
:103F800004C089E20E94360DF0CF85E3FBCF81E0CB
:103F9000EFCF0F931F93CF93DF93C42FD22FFC014A
:103FA00082818823C9F04093B2020E94F02190934D
:103FB000B1028093B00280E28C0F883040F4C77069
:103FC00081E001C0880FCA95EAF70E944506DF919B
:103FD000CF911F910F9108951091B202141332C026
:103FE0008091B0029091B1020E940822883C910514
:103FF00048F5C0E2CD0F1D17B9F080E2810F88307F
:1040000040F4177081E001C0880F1A95EAF70E940A
:104010004C06C83048F481E09D2F977001C0880F8E
:104020009A95EAF70E944506802F0E943C06C83008
:1040300070F6D77081E001C0880FDA95EAF70E9428
:104040004C06C5CF80E28C0F883008F6C77081E03F
:1040500001C0880FCA95EAF7F2CF0F93DB018851B0
:104060009C4787309105A0F5FC01E551F54D0C9476
:10407000522906E221EE41EE6AE17CE7CD010E9481
:10408000C91F80E00F91089507E225EE45EE6BE130
:104090007CE7F4CF06E221EE40EE68E17CE7EECF6C
:1040A00007E225EE44EE69E17CE7E8CF06E221EE87
:1040B00042EE6CE17CE7E2CF07E225EE46EE6DE1F1
:1040C0007CE7DCCF08E221E045EE6EE17CE7D6CF6D
:1040D00012968C91882319F01092B202D3CF81E00E
:1040E000D1CF9093DD018093DC0108959093B802C5
:1040F0008093B7020895E091B702F091B80230972B
:1041000029F00190F081E02D0995089580E008954F
:10411000E091B702F091B802309721F00280F3816C
:10412000E02D09950895E091B702F091B80230971B
:1041300039F022E0DC012C930480F581E02D099513
:104140000895A3E0B0E0E7EAF0E20C949929209109
:10415000B5023091B60228173907A1F09093B60244
:104160008093B502E091B702F091B802309751F018
:1041700023E029839B838A830680F781E02DCE018B
:10418000019609952396E2E00C94B529A3E0B0E0EE
:10419000ECECF0E20C9499292091B3023091B40236
:1041A00028173907A1F09093B4028093B302E091ED
:1041B000B702F091B802309751F024E029839B8335
:1041C0008A830680F781E02DCE010196099523961A
:1041D000E2E00C94B5299C012E5F3F4FAC01485F93
:1041E0005F4F80E02417350709F40895F901919194
:1041F0009F019923B9F38F5FF5CF662349F0FC0146
:10420000329608962191261729F0E817F907D1F779
:1042100080E0089581E008959C01FC0132969FEFB3
:1042200080E04191461751F09F3F19F4411101C0C0
:10423000982F8F5F8630A9F79F3F09F40895290FC3
:10424000311D97FD3A95F90162830895FC0132967C
:1042500008962191261303C0DF0111971C92E817DD
:10426000F907B9F708950E940C2108950E942621AC
:104270000895029626E0FC0111922A95E9F7089527
:1042800046E050E00E94292A21E0892B09F420E031
:10429000822F089508950E944A210895811106C031
:1042A00081E08093B9020E944B21089582E0F9CF0A
:1042B00083E08093B9020E944B2108950E944E2111
:1042C000089581E08093B9020E944B2108950E94D5
:1042D00061210895089508950E946B21089508951D
:1042E00008950E946A210895CF930E946F210E9431
:1042F000E4120E947021C0E08C2F0E941512892BBD
:1043000031F4CF5FC530C1F780E0CF91089581E0EF
:10431000FCCF85B7806885BF85B7806885BF089565
:104320001F921FB61F9211248F939F93AF93BF9339
:104330008091BA02811113C08091F2029091F30230
:10434000A091F402B091F5024196A11DB11D809398
:10435000F2029093F302A093F402B093F502BF919E
:10436000AF919F918F911F901FBE1F9018958091C4
:10437000FA02843031F10E94A5041092BA0288E159
:1043800090E020E40FB6F894A895809360000FBEEB
:104390002093600083B7817F846083BF83B781608F
:1043A00083BF7894889583B78E7F83BF0FB6F894C8
:1043B000A8958091600088618093600010926000F1
:1043C0000FBE08950E94AF080E94AA04089582E0DB
:1043D00084BD93E095BD9AEF97BD80936E000895DC
:1043E0002FB7F8948091F2029091F302A091F40219
:1043F000B091F5022FBF08952FB7F8946091F202A3
:104400007091F3028091F4029091F5022FBF08950C
:104410009C014FB7F8948091F2029091F302A09121
:10442000F402B091F5024FBF821B930B089578946C
:104430001F921FB61F9211248F939F93AF93BF9328
:104440008091F2029091F302A091F402B091F502F2
:104450000196A11DB11D8093F2029093F302A093E7
:10446000F402B093F502BF91AF919F918F911F908D
:104470001FBE1F90189581E08093E00080E280933A
:10448000D8001092C9008FE19EE40197F1F700C0B7
:10449000000087E090EBDC0180930303909304031A
:1044A000A0930503B093060388E19CE00FB6F8944F
:1044B000A895809360000FBE90936000FFCF88E1C5
:1044C0009CE00FB6F894A895809360000FBE90937F
:1044D0006000FFCF8091C30208959B01BA019091C3
:1044E000FA029430E9F48F708093E9009FEF809195
:1044F000E800915085FD06C085ED8A95F1F7000032
:104500009111F5CF8091E80085FF0AC050E040E0AE
:10451000C9010E9467248091E8008E778093E800AB
:10452000089543E050E0BC0182E00E946D220895AE
:1045300046E050E0BC0182E00E946D220895CF93D6
:10454000DF93EC0148E050E0BC0181E00E946D2265
:1045500088E0FE01ABEBB2E001900D928A95E1F7A5
:10456000DF91CF9108958091F902811109C00E94D5
:10457000F7250E9454268091E20084608093E20037
:1045800008951092F90208950E94612108956091A2
:10459000F60281E0611101C080E00E945821089577
:1045A0009091FA0281E0943009F080E06091F60287
:1045B0000E945E21089542E061EC81E00E94732533
:1045C00042E261EC82E00E9473259091FA0281E060
:1045D000943009F080E06091F6020E944E21089527
:1045E0008091FC02833009F461C030F48130D1F154
:1045F000823009F49EC008958A3009F48AC08B3055
:1046000009F46FC0893009F050C08091FB028132FB
:1046100009F04BC08091FF0290910003029708F0CF
:1046200044C08091E800877F8093E8008091E80093
:1046300082FF37C09091F3008091F200029731F42D
:104640008091F100813011F0863021F48091F100E9
:104650008093C3028091E8008B778093E8000E94EA
:10466000A72523C08091FB02813AF9F48091E800EC
:10467000877F8093E8008091FF0290910003892B4F
:1046800061F468E08BEB92E070E00E94B6248091C8
:10469000E8008B778093E800089560E090E080E088
:1046A000F3CF8091FA028111C1CF08958091FB026E
:1046B000813AD9F78091FF0290910003892BA9F7E5
:1046C0008091E800877F8093E8008091E80080FF78
:1046D000FCCF809129018093F1008091E8008E77D2
:1046E000BCCF8091FB02813201F78091FF02909153
:1046F0000003892BD1F68091E800877F8093E80042
:104700000E94A7258091FD02809329010E94AF0895
:1047100008958091FB02813241F68091E800877F05
:104720008093E8000E94A7258091FE028093C40236
:1047300008958091FB02813A09F0B7CF8091E8009B
:10474000877F8093E8008091E80080FFFCCF809114
:10475000C402C1CF84B7877F84BF0FB6F894A895F1
:1047600080916000886180936000109260000FBEAD
:1047700080E890E00FB6F894809361009093610018
:104780000FBE0E94672108950E94F7250E945426BB
:10479000E2EEF0E080818460808378940E94D328E8
:1047A000089581E291E00E94762008958091FA02B6
:1047B000853031F48091FA02853019F00E94E221AF
:1047C00008950E94B7218091F802882399F30E94EE
:1047D0007421882379F30E9451240E94AF08EACF04
:1047E00008959A0140910103509102030E94F92318
:1047F0000895492F55274330510519F168F4413088
:10480000510509F444C04230510509F445C090E017
:1048100080E050E040E025C04132510549F142328C
:104820005105A9F780E490E04AE956E06115710569
:10483000C1F08BE790E04FE156E06130710589F0FF
:10484000E6CF99278130910581F0009729F00297F2
:10485000F1F6E4EBF5E002C0EEECF5E0849190E0D7
:10486000AF01F901518340830895E0ECF5E0F6CF04
:1048700089E090E044EE55E06115710591F389E01F
:1048800090E04DEF55E06130710559F3C0CF82E102
:1048900090E04DE056E0E5CF8BE390E042ED55E04F
:1048A000E0CF80E189BD82E189BD09B400FEFDCF82
:1048B0008091D8008F7D8093D8008091E000826045
:1048C0008093E0008091E00081FDFCCF0895AF92DD
:1048D000BF92CF92DF92FF920F931F93CF93DF93FC
:1048E0006C01EB018A010E94C625F82E811123C0BC
:1048F0000115110539F0F80180819181C81BD90B90
:10490000C80ED91EB12CA12C2097A9F08091E800E7
:1049100085FD22C08091E8008E778093E800011524
:104920001105A1F0F80180819181A80EB91EB18214
:10493000A08285E0F82E8F2DDF91CF911F910F91EE
:10494000FF90DF90CF90BF90AF9008950E94C62552
:104950008823D1F2F82EEFCFF60181916F01809379
:10496000F1002197FFEFAF1ABF0ACECFFC01809173
:1049700001039091020386179707A0F06115710556
:1049800029F49091E8009E779093E80090E06115FB
:10499000710551F4911108C08091E80082FF34C084
:1049A00080E00895BC01F2CF8091FA028823C1F122
:1049B0008530C1F18091E80083FD30C08091E8002E
:1049C00082FDEACF8091E80080FFE1CF8091F30083
:1049D0002091F200382F6115710519F0283031054A
:1049E00058F091E02830310509F090E02091E8007E
:1049F0002E772093E800CBCF81918093F100615016
:104A000071092F5F3F4FE7CF8091FA02882341F071
:104A1000853041F08091E80083FFBECF81E00895AA
:104A200082E0089583E00895FC0180910103909154
:104A3000020386179707A0F06115710529F480918C
:104A4000E8008E778093E80090E06115710551F4DD
:104A5000911108C08091E80082FF35C080E0089580
:104A6000BC01F2CF8091FA028823C9F18530C9F1E7
:104A70008091E80083FD31C08091E80082FDEACF9B
:104A80008091E80080FFE1CF8091F3002091F20057
:104A9000382F6115710519F02830310558F091E073
:104AA0002830310509F090E08091E8008E778093FE
:104AB000E800CBCF84918093F10031966150710969
:104AC0002F5F3F4FE6CF8091FA02882341F0853077
:104AD00041F08091E80083FFBDCF81E0089582E03E
:104AE000089583E00895982F973028F08F70809371
:104AF000E90081E008959093E900242F762F50E09B
:104B0000981731F07091EC002091ED005091F00079
:104B100021FD02C09F5FE8CF3091EB003E7F3093D4
:104B2000EB003091ED003D7F3093ED003091EB00D4
:104B300031603093EB007093EC002093ED005093C4
:104B4000F0002091EE0027FDE5CF80E008958091F0
:104B5000FB0287FF13C08091E80082FF06C08091AE
:104B6000E8008B778093E80004C08091FA028111FD
:104B7000F2CF08958091FA028823D9F38091E8005A
:104B800080FFF8CF8091E8008E77ECCF2091E40091
:104B90003091E50095E6A9012091EC00822F81700B
:104BA00020FF06C08091E80080FF06C080E00895E5
:104BB0002091E80022FD1AC08091FA02882389F032
:104BC000853089F08091EB0085FD0FC02091E400D5
:104BD0003091E50042175307F9F29150E1F684E075
:104BE000089582E0089583E0089581E008950E9489
:104BF00066260E946E26E0EEF0E080818160808370
:104C0000E8EDF0E080818F77808319BCA7EDB0E0FC
:104C10008C918E7F8C9380818F7E80831092F9029D
:104C200008950F931F93CF93DF930E9466260E94EF
:104C30006E26C8EDD0E088818F7788838881806870
:104C4000888388818F7D888319BC1092FA02109224
:104C5000F6021092F8021092F70200EE10E0F8014E
:104C600080818B7F808388818160888342E060E0DF
:104C700080E00E947325E1EEF0E080818E7F8083EA
:104C8000E2EEF0E0808181608083808188608083B3
:104C9000F80180818E7F8083888180618883DF91A5
:104CA000CF911F910F910895E8EDF0E080818F7E04
:104CB0008083E7EDF0E080818160808384E082BFC3
:104CC00081E08093F9020E9411260895E8EDF0E05A
:104CD00080818E7F80831092E20008951092DA0026
:104CE0001092E10008951F920F920FB60F921124B7
:104CF0002F933F934F935F936F937F938F939F93E4
:104D0000AF93BF93EF93FF938091E10082FF0BC0BD
:104D10008091E20082FF07C08091E1008B7F809349
:104D2000E1000E94D2288091DA0080FF19C08091B2
:104D3000D80080FF15C08091DA008E7F8093DA0062
:104D40008091D90080FF96C080E189BD82E189BD54
:104D500009B400FEFDCF81E08093FA020E94B322E5
:104D60008091E10080FF19C08091E20080FF15C0B2
:104D70008091E2008E7F8093E2008091E20080616A
:104D80008093E2008091D80080628093D80019BCA3
:104D900085E08093FA020E94C7228091E10084FF9F
:104DA0002BC08091E20084FF27C080E189BD82E1B1
:104DB00089BD89B5982F917080FFFBCF8091D80075
:104DC0008F7D8093D8008091E1008F7E8093E100F9
:104DD0008091E2008F7E8093E2008091E20081600A
:104DE0008093E2008091F602882309F449C084E0B0
:104DF0008093FA020E94D0228091E10083FF29C0B3
:104E00008091E20083FF25C08091E100877F80933D
:104E1000E10082E08093FA021092F6028091E100B4
:104E20008E7F8093E1008091E2008E7F8093E2008C
:104E30008091E20080618093E20042E060E080E0E7
:104E40000E9473258091F00088608093F0000E949A
:104E5000C422FF91EF91BF91AF919F918F917F916C
:104E60006F915F914F913F912F910F900FBE0F90D7
:104E70001F90189519BC1092FA020E94C12270CF9F
:104E80008091E30087FD93E09093FA02B3CF1F92E5
:104E90000F920FB60F9211242F933F934F935F936E
:104EA0006F937F938F939F93AF93BF93CF93DF9332
:104EB000EF93FF93D091E900DF708091EC00C82F51
:104EC000C17080FDC0E81092E9008091F000877FFA
:104ED0008093F00078940E948B271092E9008091D3
:104EE000F00088608093F000CD2BCF70C093E90074
:104EF000FF91EF91DF91CF91BF91AF919F918F91F2
:104F00007F916F915F914F913F912F910F900FBEC5
:104F10000F901F901895AAE2B0E0E1E9F7E20C9437
:104F200098298BEF92E02091F100FC012193CF01B1
:104F3000F3E083309F07B9F70E94F0228091E800E8
:104F400083FF1EC18091FB029091FC029A3008F011
:104F500017C1E92FF0E0EE50F54D0C94522980383E
:104F600099F0823809F00CC18091FF028F70873070
:104F700008F006C18093E9008091EB0085FB88274B
:104F800080F91092E90006C08091F7029091F80232
:104F9000911182609091E800977F9093E800809350
:104FA000F1001092F1008091E8008E77E5C088232F
:104FB00009F4D3C0823009F0E3C08091FD02811171
:104FC000D6C08091FF028F702FEF280F263008F097
:104FD000D7C08093E9002091EB0020FFC8C0933038
:104FE00031F48091EB0080628093EB00C0C090911F
:104FF000EB0090619093EB0021E030E001C0220FC4
:105000008A95EAF72093EA001092EA008091EB007B
:105010008860EACF8111B4C01091FD021F778091A2
:10502000E3008078812B8093E3008091E800877F04
:105030008093E8000E94A7258091E80080FFFCCFC4
:105040008091E30080688093E30082E0111183E0A7
:105050008093FA0295C08058823008F091C0809108
:10506000FD029091FE028C3D23E09207A1F583E0C2
:105070008A838AE289834FB7F894DE01139620E091
:105080003EE051E2E32FF0E050935700E49120FF1F
:1050900003C0E295EF703F5FEF708E2F90E0EA3033
:1050A000C0F0C7968D939D932F5F243159F74FBF62
:1050B0008091E800877F8093E8006AE270E0CE018B
:1050C00001960E94B6248091E8008B778093E800D7
:1050D00057C0C096E7CF6091FF0270910003AE0108
:1050E0004F5F5F4F0E94F123BC01892B09F448C038
:1050F0009091E800977F9093E80089819A810E94BF
:105100001425E1CF8038E1F58091E800877F809316
:10511000E8008091F6028093F10045CF811130C004
:105120009091FD02923060F58091E800877F809336
:10513000E8009093F6020E94A7258091F60288234A
:1051400011F084E005C08091E30087FDFACF81E093
:105150008093FA020E94DB2213C08091FD0281300D
:1051600079F481E0933009F080E08093F8021092A6
:10517000E9008091E800877F8093E8000E94A725DE
:105180008091E80083FF0AC08091E800877F8093C8
:10519000E8008091EB0080628093EB00AA96E3E048
:1051A0000C94B4290895CF938091FA028823A1F03A
:1051B000C091E900CF709091EC00892F817090FD33
:1051C00080E8C82B1092E9008091E80083FD0E94DE
:1051D0008B27CF70C093E900CF910895991B79E098
:1051E00004C0991F961708F0961B881F7A95C9F777
:1051F0008095089587FB082E062687FD819567FD1B
:1052000061950E94EE280EF4919507FC8195089512
:10521000AA1BBB1B51E107C0AA1FBB1FA617B707DC
:1052200010F0A61BB70B881F991F5A95A9F78095F8
:105230009095BC01CD01089597FB072E16F40094BC
:1052400007D077FD09D00E94082907FC05D03EF45D
:10525000909581959F4F0895709561957F4F089522
:10526000A1E21A2EAA1BBB1BFD010DC0AA1FBB1F6A
:10527000EE1FFF1FA217B307E407F50720F0A21BDC
:10528000B30BE40BF50B661F771F881F991F1A9449
:1052900069F760957095809590959B01AC01BD0173
:1052A000CF010895EE0FFF1F0590F491E02D0994B2
:1052B0000E946029332312F48A1B9B0B0C947129E2
:1052C000A29FB001B39FC001A39F700D811D112447
:1052D000911DB29F700D811D1124911D08950E9492
:1052E0006029B7FF0895821B930B08950E946029DF
:1052F000A59F900DB49F900DA49F800D911D11242A
:105300000895B7FF0C9476290E947629821B930B8F
:1053100008952F923F924F925F926F927F928F9259
:105320009F92AF92BF92CF92DF92EF92FF920F9334
:105330001F93CF93DF93CDB7DEB7CA1BDB0B0FB63E
:10534000F894DEBF0FBECDBF09942A8839884888FB
:105350005F846E847D848C849B84AA84B984C88491
:10536000DF80EE80FD800C811B81AA81B981CE0F88
:10537000D11D0FB6F894DEBF0FBECDBFED0108956D
:105380008F929F92AF92BF92CF92DF92EF92FF9255
:10539000CF93DF93EC01688179818A819B816115CC
:1053A00071058105910521F464E279ED8BE597E0C3
:1053B0002DE133EF41E050E00E94872A49015A0174
:1053C0009B01AC01A7EAB1E40E9476296B017C0144
:1053D000ACEEB4EFA50194010E948429DC01CB015D
:1053E0008C0D9D1DAE1DBF1DB7FF03C00197A10908
:1053F000B04888839983AA83BB839F77DF91CF913D
:10540000FF90EF90DF90CF90BF90AF909F908F90E4
:1054100008950E94C029089580E091E00E94C0296B
:105420000895B0E0A0E08093000190930101A09363
:105430000201B09303010895FC014150504030F047
:1054400001900616D1F73197CF0108958827992743
:105450000895FB01DC0104C08D910190801921F4B5
:1054600041505040C8F7881B990B0895FB01DC019F
:1054700002C001900D9241505040D8F70895F9991B
:10548000FECF92BD81BDF89A992780B50895A6E117
:10549000B0E044E050E00C94792AA8E1B0E042E0AA
:1054A00050E00C94792A262FF999FECF92BD81BD48
:1054B000F89A019700B4021639F01FBA20BD0FB652
:1054C000F894FA9AF99A0FBE08950396272F0E942E
:1054D000542A0E94532A252F0E94542A242F0C94C8
:1054E000542A0196272F0E94542A0C94532ADC0137
:1054F000CB01FC01F999FECF06C0F2BDE1BDF89ADF
:10550000319600B40D9241505040B8F70895052EE1
:1055100097FB1EF400940E949E2A57FD07D00E941C
:10552000302907FC03D04EF40C949E2A50954095E8
:10553000309521953F4F4F4F5F4F0895909580953F
:10554000709561957F4F8F4F9F4F0895F894FFCFCF
:1055500092069206E306E30656077207C106C106E5
:105560007707E807F707F707EF1CF61CFD1C021D7D
:10557000071D0C1D111D161D1B1D201D251D2A1D7F
:105580002E1D331D361D391D3C1D3F1D411D441D63
:10559000461DCF1D431ED71DA11DA51DDB1DA91D29
:1055A000DF1DEB1DB51D3C1EB91DEF1DBD1DF31DFF
:1055B0001B1EC11DF71D221EC71DFD1D051EAD1D95
:1055C000E31DB11DE71DCB1D011E111E2B1E3A1E32
:1055D0009B1DD31D4A1E4A205020392044205620AE
:1055E0005C206220AF27D727C028D727C0280A28E9
:0855F0002B28C02882288E2818
:1055F800010000005202280850011E0A140101018E
:1056080002000600060601191A1B1C1D1E1F202178
:10561800226A229F229822912201E200E900EA00F0
:10562800B500B600B700CD008301CC008A01920115
:1056380094012102230224022502260227022A02BB
:10564800B300B4006F0070009F01CB019F02A0025D
:10565800818283E200E900EA00B500B600B700CD18
:10566800008301CC008A01920194012102230224C3
:10567800022502260227022A02B300B4006F007036
:10568800009F01CB019F02A002818283F0F1C667CF
:105698006636943137353497963330909192939596
:1056A8000001020202020606060909090909090F92
:1056B8000F0F0F0F0F151515181919191919191991
:0C56C80019191923242525252525250066
:00000001FF
